:10000300E4F594FF1200447F011200AEE4FF1200F6
:1000130074E4FF1200927F011200837F011200A09B
:100023001200C61200DEEF70FA1200E48F9080F027
:10004400EF25E025E0543CFFE5D354C34FF5D3221C
:0C00AE00EF5403FFE5D354FC4FF5D322C0
:0F007400EFC4333354C0FFE5D2543F4FF5D222CF
:0E009200EFC4335420FFE5D254DF4FF5D222E5
:10005400EF25E025E0541CFFE5D254E34FF5D2220E
:10006400EF25E025E0541CFFE5D254E34FF5D222FE
:0C00BA00EF5403FFE5D254FC4FF5D222B6
:0F008300EFC4333354C0FFE5D1543F4FF5D122C2
:0E00A000EFC4335420FFE5D154DF4FF5D122D9
:0B00C6007F0143D380AE071FEE70FAED
:0100D100220C
:0300E400AFD52273
:0300E700AFD42271
:0600DE00E5D35440FF22AF
:10003300E5D154187E007803CEC313CE13D8F9FF4D
:01004300229A
:030000000200D229
:0C00D200787FE4F6D8FD7581070200037A
:00000001FF
