:10036F0057656C636F6D6520746F20746865006AE4
:10037F006F79737469636B20746573740050757350
:10038F0068005269676874004C65667400557000A8
:05039F00446F776E00C1
:10000300E4F508F5091202F77BFF7A03796FE4F54B
:100013000EFD1202007BFF7A03797EE4F50E7D016B
:10002300120200120333EF60FA1203338F08E5085C
:10003300650960F5E50814601514602E14601D143D
:1000430060361460432405705012040E804B120472
:100053000E7BFF7A03798C750E06802812040E7BC3
:10006300FF7A037991750E0B801A12040E7BFF7AC7
:10007300037997E4F50E800D12040E7BFF7A037962
:100083009C750E07E4FD800E12040E7BFF7A037944
:0E0093009F750E067D01120200850809808B04
:0B04AD007FFA7E001204B87FFA7E0088
:0F04B8000000000000EF1F70011E144E70F222B2
:1004F200AD07AC061204AD1204ADED1D70011C1463
:040502004C70F12226
:0B052000EF600443E2802253E27F22E0
:0B052B00EF600443E2402253E2BF22D5
:0B053600EF600453E2DF2243E22022CA
:0B054100EF600453E2EF2243E21022BF
:06056D00EF547FF5D922D6
:0E050600EF25E025E0FFE5E254F34FF5E22299
:0B054C00EF700443E2022253E2FD22A4
:0B055700EF600443E2012253E2FE22A9
:0B056200EF600475E1DF2275E120224C
:10047100AE077F01120557AF06120506E4FF12050C
:0E0481004C43A604E4F5E10F120562C2C2224C
:1003CA00E4752DFFF52CF52BF52AADE1ED5401FC72
:1003DA00ED5402F52E7F0A7E001204B8EC60EBAFF2
:0103EA00050D
:0103EB0022EF
:1004C70043E210EF25E04DF5DA1203CAEF30E103FE
:0504D7007F00227F01FF
:0104DC0022FD
:0602B3008B248A25892638
:1002B900E4FD1204C78F28AF271527EFD394004018
:0602C90027E528B4012224
:1002CF00AB240526E526AA257002052514F912018F
:1002DF001CF5DA1203CA8F29E52930E1D4E4F52899
:0702EF0080CF43E220AF289D
:0102F60022E5
:060266008B0C8A0D890ECD
:10026C007D011204C78F10E51070031200A1AF0FAF
:10027C00150FEF602FE510602BE50F700343E220A4
:10028C001203CAAB0C050EE50EAA0D7002050D1477
:10029C00F9E5DA120162EF20E1047F0180027F00B0
:0602AC008F1080CAAF10A4
:0102B2002229
:1000A100E5E2540CFD5390F3E59454F3440CF594BC
:1000B10075E20375E20775E206E59454F34408F529
:1000C100947F057E001204B85394F37F057E0012DD
:1000D10004B8E4FCE59454F34404F5947F057E00F0
:1000E1001204B85394F37F057E001204B80CBC08C7
:1000F100E37F057E001204B8E59454F34404F594BB
:100101007F057E001204B8E59454F3440CF5947510
:0A011100E20775E203ED4403F5E296
:01011B0022C1
:1002F7007F021204717F647E001204B87F381203F4
:10030700EC7F391203EC7F141203EC7F081203A46D
:100317007F5F1203EC7F6A1203EC7FC87E00120432
:0C032700F212042F12040E7F060203ECF9
:060200008B0A8A0B890C39
:10020600ED7003FD80027D40E50ED3940F4003752B
:100216000E10E4F521E50E2D2480F5227B007A00F0
:1002260079217527027F3E1202B3E4FFAB0AAA0BBF
:10023600A90C8F82758300120135FE74102FF8A663
:10024600060FBF11E7750F40AB0AAA0BA90C1204E3
:10025600DDEF04F5277B007A00790F7F3E0202B3BB
:10040E007F0A7E001204F2E4F50A750B01FB7A00F6
:10041E00790A7527027F3E1202B37F0A7E0002041C
:01042E00F2DB
:0203A400AB07A5
:1003A6007F0A7E001204F2E4F50AEB4470F50B7B3B
:1003B600007A00790A7527027F3E1202B37F0A7E11
:0403C600000204F23B
:0203EC00AB075D
:1003EE007F0A7E001204F2E4F50A8B0BFB7A007989
:1003FE000A7527027F3E1202B37F0A7E000204F2C4
:10042F007F0A7E001204F2E4F50A750B0CFB7A00CA
:10043F00790A7527027F3E1202B37F0A7E000204FB
:01044F00F2BA
:100450007F0A7E001204F2E4F533753408FB7A005B
:1004600079337527027F3E1202B37F0A7E000204B1
:01047000F299
:060196008B2F8A30893135
:10019C007B007A007932750F017F3F120266E532DF
:1001AC00F4541DFF54016401700AAB2FAA30A9311D
:1001BC0074FF8011EF54106410AB2FAA30A931706A
:1001CC0003048001E4120162EF54046404700CAB6C
:1001DC002FAA30A931900001048015EF540864084F
:1001EC00AB2FAA30A931900001700474FF8001E498
:0301FC0012017479
:0101FF0022DD
:10048F007B007A007935750F017F3F120266E535E3
:0D049F00F45402FFBF02047F0180027F00C1
:0104AC00222D
:100333007B007A00790A750F017F3F120266630A18
:10034300FFE50A30E1037F0122E50A30E0037F0283
:1003530022E50A30E4037F0322E50A30E3037F0446
:0B03630022E50A30E2037F05227F0044
:01036E00226C
:03000000020514E2
:0C051400787FE4F6D8FD75813502000305
:10011C00BB010689828A83E0225002E722BBFE02E1
:09012C00E32289828A83E4932214
:10013500BB010CE58229F582E5833AF583E022507F
:1001450006E92582F8E622BBFE06E92582F8E222C9
:0D015500E58229F582E5833AF583E49322E3
:10016200BB010689828A83F0225002F722BBFE017C
:02017200F32276
:10017400F8BB010DE58229F582E5833AF583E8F0C1
:10018400225006E92582C8F622BBFE05E92582C86D
:02019400F22255
:1004DD00E4FFFE12011C600C0FEF70010E09E970B4
:0504ED00F20A80EF227D
:00000001FF
