:1005CB001207A3BF02FAE4F593D2EAD2B9D2AF7FF6
:1005DB000112062F7D03E4FF1208547F0112064C13
:0405EB00D2E880FED4
:03004B0002037F2E
:10037F00C0E0C0F0C083C082C0D075D000C000C044
:0D038F0001C002C003C004C005C006C007C5
:10039C00120773EF5440D3940040131207F2EF701E
:0E03AC000AFB7A00793512087B80F0853580D7
:1003BA00D007D006D005D004D003D002D001D00097
:0B03CA00D0D0D082D083D0F0D0E03241
:0A07DE008FE7E5E630E1FBAFE7220C
:02062F008F1426
:10063100E4FF1206868F15E514B401054315018008
:0B064100035315FEAD15E4FF0206692F
:02064C008F1409
:10064E00E4FF1206868F15E514B4010543150280EA
:0B065E00035315FDAD15E4FF02066913
:02047E008F3EAF
:10048000E4FF1206868F3FE53E14600C14601124D1
:10049000027013533FF7800E433F08533FFB800623
:0D04A000433F08433F04AD3FE4FF020669FF
:0402BD008F388D39B0
:1002C100E4FF1206868F3AE53824FB601E14603382
:1002D10024027049E53960047F0080027F01EF54F8
:1002E10001C454F0FFE53A54EF802FE53960047FF3
:1002F1000080027F01EF5401C43354E0FFE53A541A
:10030100DF8017E53960047F0080027F01EF54012F
:10031100C4333354C0FFE53A54BF4FF53AAD3AE424
:04032100FF02066968
:0B0773007D707F07120669EF5470FFD5
:01077E002258
:1006A0007D707F07120669EF5470F54E7F071206C2
:0806B00086EF540F424EAF4EDD
:0106B800221F
:100724007401A807088002C333D8FCFD7F070206C2
:01073400695B
:08084C00120842EF5470FF2274
:040325008F298D2A65
:100329007F021206868F2B7F011206868F2CE52904
:1003390024FA500624076021802EAF297401A807EA
:10034900088002C333D8FCFF422BE52A6005EF423F
:100359002C8015EFF4522C800F752B3FE52A600590
:10036900752C3F8003E4F52CAD2B7F02120669AD95
:060379002C7F0102066961
:020003008F3B31
:100005007F021206868F3C7F011206868F3DE53BF7
:1000150024FA5006240760168019AF3B7401A8071F
:10002500088002C333D8FCF4523C523D8005E4F508
:100035003CF53DAD3C7F02120669AD3D7F010206F0
:010045006951
:1003D5008F2D8B2E8A2F8930E52D14600A24FB5032
:1003E500196004240670251207E88F1AE52D242AC2
:1003F500FFAB2EAA2FA930020184E52D240AFFABFD
:0D0405002EAA2FA930120503FD1206692250
:100449008F318B328A338934E53114600824FB609B
:10045900042406700BAB32AA33A934AF3102004E23
:10046900E531240AFF120686AB32AA33A934EF120A
:05047900051C7F0122BB
:0205EF00AB0758
:1005F100EC540FC454F0FFE54F540F4FF54FEB543B
:100601000FFFE54F54F04FF54FAD4F7F04020669E0
:1006B900E4F550EF24FE5403FFE55054FC4FF55088
:0706C900AD507F030206693A
:0A07E8007F03120686EF2402FF22B1
:07085400EF2411FF02066909
:02022D008F1F21
:10022F007F021206868F207F011206868F21E51F1F
:10023F0014601A14602714603414604314604E2441
:10024F0005705EE5205401F522E521804EAF20EFC9
:10025F00C3135401F522AF21EFC313803EAF20EF3C
:10026F0013135401F522AF21EF1313802EAF20EF9C
:10027F001313135401F522AF21EF131313801CAF87
:10028F0020EFC45401F522AF21EFC4800EAF20EF51
:10029F00C4135401F522AF21EFC4135401F5238089
:0D02AF0005E4F522F523E52325E02522FFD7
:0102BC00221F
:060869007F081206862242
:1006D0007F08120686EF54F0FFE4C4F854F0C8EF28
:0606E000C4540F48FF2284
:10041200EF14601414601514601614601714601839
:100422002405701D7F1180127F12800E7F13800AB7
:100432007F1480067F1580027F161206868F5180F8
:0604420003E4F551AF5187
:010448002291
:1006FC00E4F552EF547FFFE55254804FF552AD5262
:05070C007F05020669F3
:020611008F4018
:100613007F061206868F41E540540325E0FFE5413E
:0C06230054F94FF541AD417F0602066915
:0204AD008F427C
:1004AF007F061206868F43E542600924FE700D43D6
:1004BF00432080035343DF5343F780065343DF4307
:0904CF004308AD437F06020669F3
:0A07F2007F17120686EF5401FF2264
:0C077F007F17120686EFC3135401FF22FF
:0B07D3007F17120686EFC45401FF22BE
:0C078B007F17120686EFC4135401FF22F2
:1006E6007F17120686EF5430FFE4C4F854F0C8EFC3
:0606F600C4540F48FF226E
:0A07FC007F17120686EF5403FF2258
:06086F007F17120686222D
:0A0806007F08120686EF540FFF2250
:0A0810007F09120686EF5401FF2253
:010046002297
:0C079700EF543FF553AD537F1C02066980
:02052E008F44F8
:100530007F1D1206868F45E54460047F0180027F9F
:1005400000EF540125E025E0FFE54554FB4FF5455C
:07055000AD457F1D020669A5
:02057F008F46A5
:100581007F1D1206868F47E54660047F0180027F4A
:1005910000EF540125E0FFE54754FD4FF547AD4716
:0505A1007F1D02066948
:0205A6008F487C
:1005A8007F1D1206868F49E54860047F0180027F1F
:1005B80000EF5401FFE54954FE4FF549AD497F1D51
:0305C800020669BF
:07085B008D1A7FA002018449
:070862008D1A7FB002018432
:0A081A00EF44A8FF85281A020184AC
:060875007F6012068622DE
:06087B007F0812004E226E
:0E076500120842EF540EFFE4C313EF13FF22FD
:0A082400C2E97FE31207DED2E922E9
:1007110012086F7E00EF54407806CEC313CE13D873
:03072100F9FF22BB
:0A082E00C2E97FE21207DED2E922E0
:0A083800C2E97FE11207DED2E922D7
:09084200C2E97FFF1207DED2E9D2
:01084B00228A
:020557008F4AC9
:100559007F061206868F4BE54A60047F0180027F81
:1005690000EF5401C454F0FFE54B54EF4FF54BAD88
:060579004B7F060206693B
:0204D8008F4C47
:1004DA007F061206868F4DE54C60047F0180027FFD
:1004EA0000EF5401C43333335480FFE54D547F4F3A
:0904FA00F54DAD4D7F06020669C7
:10068600C2E98FE7E5E6540260FAAFE7E4F5E7E58D
:09069600E6540260FAAFE7D2E974
:01069F002238
:10066900C2E9EF2420F5E7E5E6540260FAAFE78D29
:0C067900E7E5E6540260FA85E754D2E998
:010685002252
:08004E008F088B098A0A890B57
:1000560075100185090EE50814600C24FB60082460
:10006600FE60142408702C1207E88F0C8F0DC2E96D
:10007600E508240AFF80171207658F08E508C39470
:100086000750101208758F0C8F0DC2E97F61120799
:0C009600DE8005E4F50DF50CE50E702889
:1000A200850B11E4F5E7E5107008A811A60F0511FC
:1000B2008003E4F510E5E6540260FA85E70FD50CFB
:0500C200E2A811A60FE9
:0900C70002017BE50E6401703AB0
:1000D000850A11850B12E4F5E7E51070138512828D
:1000E000851183E50FF00512E512700705118003F5
:1000F000E4F510E5E6540260FA85E70FD50CD785E4
:080100001282851183E50FF066
:080108008071E50E64FE702910
:10011000850B11E4F5E7E5107009A811E50FF2056C
:10012000118003E4F510E5E6540260FA85E70FD587
:070130000CE1A811E50FF23C
:02013700804204
:10013900850911850A12850B13E4F5E7E510701896
:10014900AB11AA12A913E50F12051C74012513F5A9
:1001590013E43512F5128003E4F510E5E654026064
:10016900FA85E70FD50CD2AB11AA12A913E50F1224
:02017900051C63
:08017B00D2E9E508FEE50DFFE5
:010183002259
:060184008B178A1889198F
:09018A00AD17C2E98FE7ED701911
:1001930085191CA81CE6FE051CE5E6540260FA85D9
:0701A300E71B8EE7D51AEC03
:0701AA008075ED6401702671
:1001B10085181C85191D851D82851C83E0FE051D82
:1001C100E51D7002051CE5E6540260FA85E71B8E09
:0401D100E7D51AE272
:0701D500804AED64FE701981
:1001DC0085191CA81CE2FE051CE5E6540260FA8594
:0701EC00E71B8EE7D51AECBA
:0201F300802C5E
:1001F50085171C85181D85191EAB1CAA1DA91E1265
:100205000503FE7401251EF51EE4351DF51DE5E605
:0C021500540260FA85E71B8EE7D51ADD65
:0B022100E5E6540260FA85E71BD2E915
:01022C0022AF
:10074600EF6009E5A3448054F7F5A32253A377226B
:10073500EF5401C4333354C0FFE5A354B74FF5A3B9
:010745002291
:0F075600EF5403C454F0FFE5A354C74FF5A3229B
:0B07A300E5AD30E3047F0280027F011F
:0107AE002228
:0C07AF00EF5407FFE5A354F04FF5A32220
:06088100E5AD5480FF22EA
:06088700E5AD5440FF2224
:0C07BB00EF5407FFE5AD54F84FF5AD22F8
:030000000207C72D
:0C07C700787FE4F6D8FD7581540205CB64
:10050300BB010689828A83E0225002E722BBFE02F6
:09051300E32289828A83E4932229
:10051C00BB010689828A83F0225002F722BBFE01BE
:02052C00F322B8
:00000001FF
