:1004450075E610D292D2B9D2AF7F01120659E58076
:0E045500F4F5087B007A0079087D0312081088
:0E046300750B14D290AF0B150BEF70F9C29011
:09047100754F01E54F60DB80FAD4
:03004B0002031C91
:10031C00C0E0C0F0C083C082C085C084C09253923C
:10032C00FEC0D075D000C000C001C002C003C00424
:06033C00C005C006C00769
:1003420012074CEF24F0600624F0700880031207B5
:04035200ED754F00F6
:10035600D007D006D005D004D003D002D001D000FB
:10036600D0D0D092D084D085D082D083D0F0D0E0C7
:010376003254
:0A0793008FE5C2C030C0FDAFE522C3
:02063C008F3DF0
:10063E00E4FF1206AA8F3EE53DB40105433E01805C
:0B064E0003533EFEAD3EE4FF020676C3
:020659008F0C04
:10065B00E4FF1206AA8F0DE50CB40105430D0280D1
:0B066B0003530DFDAD0DE4FF02067609
:0204AF008F3F7D
:1004B100E4FF1206AA8F40E53F14600C146011247A
:1004C1000270135340F7800E4340085340FB8006EF
:0D04D100434008434004AD40E4FF020676BE
:0402B4008F378D38BB
:1002B800E4FF1206AA8F39E53724FB601E14603369
:1002C80024027049E53860047F0080027F01EF5402
:1002D80001C454F0FFE53954EF802FE53860047FFE
:1002E8000080027F01EF5401C43354E0FFE5395424
:1002F800DF8017E53860047F0080027F01EF54013A
:10030800C4333354C0FFE53954BF4FF539AD39E430
:04031800FF02067664
:0B074C007D707F07120676EF5470FFEF
:01075700227F
:100691007D707F07120676EF5470F5507F071206C2
:0806A100AAEF540F4250AF50C4
:0106A900222E
:10072D007401A807088002C333D8FCFD7F070206B9
:01073D007645
:080801001207F7EF5470FF220B
:040377008F2B8D2C0F
:10037B007F021206AA8F2D7F011206AA8F2EE52B64
:10038B0024FA500624076021802EAF2B7401A80796
:10039B00088002C333D8FCFF422DE52C6005EF42E9
:1003AB002E8015EFF4522E800F752D3FE52C600536
:1003BB00752E3F8003E4F52EAD2D7F02120676AD30
:0603CB002E7F0102067600
:020003008F3A32
:100005007F021206AA8F3B7F011206AA8F3CE53AB2
:1000150024FA5006240760168019AF3A7401A80720
:10002500088002C333D8FCF4523B523C8005E4F50A
:100035003BF53CAD3B7F02120676AD3C7F010206E7
:010045007644
:1003D1008F2F8B308A318932E52F14600A24FB502C
:1003E1001960042406702512079D8F10E52F242A19
:1003F100FFAB30AA31A932020180E52F240AFFABFD
:0D04010030AA31A932120534FD1206762210
:10047A008F338B348A358936E53314600824FB6060
:10048A00042406700BAB34AA35A936AF3302004EEA
:10049A00E533240AFF1206AAAB34AA35A936EF12AD
:0504AA00054D7F012259
:0205FC00AB074B
:1005FE00EC540FC454F0FFE551540F4FF551EB542A
:10060E000FFFE55154F04FF551AD517F04020676C0
:1006C200E4F552EF24FE5403FFE55254FC4FF55279
:0706D200AD527F0302067622
:0A079D007F031206AAEF2402FF22D8
:07080900EF2411FF02067647
:020224008F2128
:100226007F021206AA8F227F011206AA8F23E521DA
:1002360014601A14602714603414604314604E244A
:1002460005705EE5225401F524E523804EAF22EFCA
:10025600C3135401F524AF23EFC313803EAF22EF3F
:1002660013135401F524AF23EF1313802EAF22EF9F
:100276001313135401F524AF23EF131313801CAF8C
:1002860022EFC45401F524AF23EFC4800EAF22EF52
:10029600C4135401F524AF23EFC4135401F525808C
:0D02A60005E4F524F525E52525E02524FFD8
:0102B3002228
:06081E007F081206AA2269
:1006D9007F081206AAEF54F0FFE4C4F854F0C8EFFB
:0606E900C4540F48FF227B
:10040E00EF1460141460151460161460171460183D
:10041E002405701D7F1180127F12800E7F13800ABB
:10042E007F1480067F1580027F161206AA8F5380D6
:06043E0003E4F553AF5387
:010444002295
:10070500E4F554EF547FFFE55454804FF554AD5450
:050715007F05020676DD
:02061E008F410A
:100620007F061206AA8F42E541540325E0FFE5420A
:0C06300054F94FF542AD427F06020676F9
:0204DE008F434A
:1004E0007F061206AA8F44E543600924FE700D437F
:1004F000442080035344DF5344F780065344DF43D2
:090500004408AD447F06020676B2
:0A07A7007F171206AAEF5401FF228B
:0C0758007F171206AAEFC3135401FF2202
:0B0788007F171206AAEFC45401FF22E5
:0C0764007F171206AAEFC4135401FF22F5
:1006EF007F171206AAEF5430FFE4C4F854F0C8EF96
:0606FF00C4540F48FF2265
:0A07B1007F171206AAEF5403FF227F
:060824007F171206AA2254
:0A07BB007F081206AAEF540FFF2278
:0A07C5007F091206AAEF5401FF227B
:010046002297
:0C077000EF543FF555AD557F1C02067696
:02055F008F45C6
:100561007F1D1206AA8F46E54560047F0180027F48
:1005710000EF540125E025E0FFE54654FB4FF54629
:07058100AD467F1D02067666
:0205B0008F4773
:1005B2007F1D1206AA8F48E54760047F0180027FF3
:1005C20000EF540125E0FFE54854FD4FF548AD48E2
:0505D2007F1D0206760A
:0205D7008F494A
:1005D9007F1D1206AA8F4AE54960047F0180027FC8
:1005E90000EF5401FFE54A54FE4FF54AAD4A7F1D1D
:0305F90002067681
:070810008D107FA0020180A2
:070817008D107FB00201808B
:0A07CF00EF44A8FF852A1002018004
:06082A007F601206AA2205
:060830007F0812004E22B9
:0E073E001207F7EF540EFFE4C313EF13FF2270
:0A07D900C2917FE3120793D2912230
:10071A001208247E00EF54407806CEC313CE13D8B5
:03072A00F9FF22B2
:0A07E300C2917FE2120793D2912227
:0A07ED00C2917FE1120793D291221E
:0907F700C2917FFF120793D29119
:0108000022D5
:020588008F4B97
:10058A007F061206AA8F4CE54B60047F0180027F2A
:10059A0000EF5401C454F0FFE54C54EF4FF54CAD55
:0605AA004C7F06020676FC
:020509008F4D14
:10050B007F061206AA8F4EE54D60047F0180027FA5
:10051B0000EF5401C43333335480FFE54E547F4F07
:09052B00F54EAD4E7F0602067686
:1006AA00C2918FE5C2C030C0FDAFE5E4F5E5C2C036
:0706BA0030C0FDAFE5D29155
:0106C1002216
:10067600C291EF2420F5E5C2C030C0FDAFE58DE59F
:0A068600C2C030C0FD85E556D291D8
:010690002247
:08004E008F158B168A17891823
:10005600751D0185161BE51514600C24FB6008242C
:10006600FE60142408702C12079D8F198F1AC291F6
:10007600E515240AFF801712073E8F15E515C39470
:1000860007501012082A8F198F1AC2917F61120722
:0C009600938005E4F51AF519E51B7027AE
:1000A20085181EE4F5E5C2C0E51D7008A81EA61C51
:1000B200051E8003E4F51D30C0FD85E51CD519E35E
:0400C200A81EA61CB2
:0900C600020177E51B64017039A9
:1000CF0085171E85181FE4F5E5C2C0E51D70138561
:1000DF001F82851E83E51CF0051FE51F7007051E97
:1000EF008003E4F51D30C0FD85E51CD519D8851FAB
:0700FF0082851E83E51CF061
:08010600806FE51B64FE702808
:10010E0085181EE4F5E5C2C0E51D7009A81EE51CA4
:10011E00F2051E8003E4F51D30C0FD85E51CD519E2
:06012E00E2A81EE51CF230
:02013400804108
:1001360085161E85171F851820E4F5E5C2C0E51D46
:100146007018AB1EAA1FA920E51C12054D740125C7
:1001560020F520E4351FF51F8003E4F51D30C0FDB2
:1001660085E51CD519D3AB1EAA1FA920E51C1205CF
:010176004D3B
:08017700D291E515FEE51AFF27
:01017F00225D
:060180008B0D8A0E890FB1
:0B018600AD0DC2918FE5C2C0ED7018F6
:10019100850F12A812E6FE051230C0FD85E5118E0D
:0601A100E5C2C0D510ED1F
:0701A7008072ED6401702578
:1001AE00850E12850F13851382851283E0FE0513CB
:1001BE00E5137002051230C0FD85E5118EE5C2C053
:0301CE00D510E366
:0701D1008048ED64FE701888
:1001D800850F12A812E2FE051230C0FD85E5118ECA
:0601E800E5C2C0D510EDD8
:0201EE00802B64
:1001F000850D12850E13850F14AB12AA13A91412C4
:100200000534FE74012514F514E43513F51330C0DC
:0B021000FD85E5118EE5C2C0D510DEB3
:08021B0030C0FD85E511D29110
:0102230022B8
:0300000002077C78
:0C077C00787FE4F6D8FD75815602044534
:10053400BB010689828A83E0225002E722BBFE02C5
:09054400E32289828A83E49322F8
:10054D00BB010689828A83F0225002F722BBFE018D
:02055D00F32287
:00000001FF
