:1005F30075E610E4F594D292D2B9D2AF7F01120618
:10060300327D03E4FF1207FF7F0112064FD2908071
:01061300FEE8
:03004B0002031C91
:10031C00C0E0C0F0C083C082C085C084C09253923C
:10032C00FEC0D075D000C000C001C002C003C00424
:06033C00C005C006C00769
:10034200120742EF5440D394004013120793EF7008
:0E0352000AFB7A00793512082680F085358086
:10036000D007D006D005D004D003D002D001D000F1
:10037000D0D0D092D084D085D082D083D0F0D0E0BD
:01038000324A
:020632008F1423
:10063400E4FF1206A08F15E514B4010543150180EB
:0B064400035315FEAD15E4FF02066C29
:02064F008F1406
:10065100E4FF1206A08F15E514B4010543150280CD
:0B066100035315FDAD15E4FF02066C0D
:020484008F3EA9
:10048600E4FF1206A08F3FE53E14600C14601124B1
:10049600027013533FF7800E433F08533FFB80061D
:0D04A600433F08433F04AD3FE4FF02066CF6
:0402B4008F388D39B9
:1002B800E4FF1206A08F3AE53824FB601E14603371
:1002C80024027049E53960047F0080027F01EF5401
:1002D80001C454F0FFE53A54EF802FE53960047FFC
:1002E8000080027F01EF5401C43354E0FFE53A5423
:1002F800DF8017E53960047F0080027F01EF540139
:10030800C4333354C0FFE53A54BF4FF53AAD3AE42D
:04031800FF02066C6E
:0B0742007D707F0712066CEF5470FF03
:01074D002289
:100687007D707F0712066CEF5470F54E7F071206D8
:08069700A0EF540F424EAF4EDC
:01069F002238
:100723007401A807088002C333D8FCFD7F070206C3
:010733006C59
:0807F7001207E3EF5470FF222A
:040381008F298D2A09
:100385007F021206A08F2B7F011206A08F2CE52974
:1003950024FA500624076021802EAF297401A8078E
:1003A500088002C333D8FCFF422BE52A6005EF42E3
:1003B5002C8015EFF4522C800F752B3FE52A600534
:1003C500752C3F8003E4F52CAD2B7F0212066CAD36
:0603D5002C7F0102066C02
:020003008F3B31
:100005007F021206A08F3C7F011206A08F3DE53BC3
:1000150024FA5006240760168019AF3B7401A8071F
:10002500088002C333D8FCF4523C523D8005E4F508
:100035003CF53DAD3C7F0212066CAD3D7F010206ED
:010045006C4E
:1003DB008F2D8B2E8A2F8930E52D14600A24FB502C
:1003EB00196004240670251207898F1AE52D242A1B
:1003FB00FFAB2EAA2FA930020180E52D240AFFABFB
:0D040B002EAA2FA930120509FD12066C2241
:10044F008F318B328A338934E53114600824FB6095
:10045F00042406700BAB32AA33A934AF3102004E1D
:10046F00E531240AFF1206A0AB32AA33A934EF12EA
:05047F0005227F0122AF
:0205D100AB0776
:1005D300EC540FC454F0FFE54F540F4FF54FEB5459
:1005E3000FFFE54F54F04FF54FAD4F7F0402066CFC
:1006B800E4F550EF24FE5403FFE55054FC4FF55089
:0706C800AD507F0302066C38
:0A0789007F031206A0EF2402FF22F6
:0707FF00EF2411FF02066C5C
:020224008F1F2A
:100226007F021206A08F207F011206A08F21E51FF4
:1002360014601A14602714603414604314604E244A
:1002460005705EE5205401F522E521804EAF20EFD2
:10025600C3135401F522AF21EFC313803EAF20EF45
:1002660013135401F522AF21EF1313802EAF20EFA5
:100276001313135401F522AF21EF131313801CAF90
:1002860020EFC45401F522AF21EFC4800EAF20EF5A
:10029600C4135401F522AF21EFC4135401F5238092
:0D02A60005E4F522F523E52325E02522FFE0
:0102B3002228
:060814007F081206A0227D
:1006CF007F081206A0EF54F0FFE4C4F854F0C8EF0F
:0606DF00C4540F48FF2285
:10041800EF14601414601514601614601714601833
:100428002405701D7F1180127F12800E7F13800AB1
:100438007F1480067F1580027F161206A08F5180D8
:0604480003E4F551AF5181
:01044E00228B
:1006FB00E4F552EF547FFFE55254804FF552AD5263
:05070B007F0502066CF1
:020614008F4015
:100616007F061206A08F41E540540325E0FFE54121
:0C06260054F94FF541AD417F0602066C0F
:0204B3008F4276
:1004B5007F061206A08F43E542600924FE700D43B6
:1004C500432080035343DF5343F780065343DF4301
:0904D5004308AD437F0602066CEA
:0A0793007F171206A0EF5401FF22A9
:0C074E007F171206A0EFC3135401FF2216
:0B077E007F171206A0EFC45401FF22F9
:0C075A007F171206A0EFC4135401FF2209
:1006E5007F171206A0EF5430FFE4C4F854F0C8EFAA
:0606F500C4540F48FF226F
:0A079D007F171206A0EF5403FF229D
:06081A007F171206A02268
:0A07A7007F081206A0EF540FFF2296
:0A07B1007F091206A0EF5401FF2299
:010046002297
:0C076600EF543FF553AD537F1C02066CAE
:020534008F44F2
:100536007F1D1206A08F45E54460047F0180027F7F
:1005460000EF540125E025E0FFE54554FB4FF54556
:07055600AD457F1D02066C9C
:020585008F469F
:100587007F1D1206A08F47E54660047F0180027F2A
:1005970000EF540125E0FFE54754FD4FF547AD4710
:0505A7007F1D02066C3F
:0205AC008F4876
:1005AE007F1D1206A08F49E54860047F0180027FFF
:1005BE0000EF5401FFE54954FE4FF549AD497F1D4B
:0305CE0002066CB6
:070806008D1A7FA0020180A2
:07080D008D1A7FB00201808B
:0A07BB00EF44A8FF85281A02018010
:060820007F601206A02219
:060826007F0812004E22C3
:0E0734001207E3EF540EFFE4C313EF13FF228E
:0A07C500C2917FE31207EDD29122EA
:1007100012081A7E00EF54407806CEC313CE13D8C9
:03072000F9FF22BC
:0A07CF00C2917FE21207EDD29122E1
:0A07D900C2917FE11207EDD29122D8
:0907E300C2917FFF1207EDD291D3
:0107EC0022EA
:02055D008F4AC3
:10055F007F061206A08F4BE54A60047F0180027F61
:10056F0000EF5401C454F0FFE54B54EF4FF54BAD82
:06057F004B7F0602066C32
:0204DE008F4C41
:1004E0007F061206A08F4DE54C60047F0180027FDD
:1004F00000EF5401C43333335480FFE54D547F4F34
:09050000F54DAD4D7F0602066CBD
:1006A000C2918FE5C2C030C0FDAFE5E4F5E5C2C040
:0706B00030C0FDAFE5D2915F
:0106B7002220
:10066C00C291EF2420F5E5C2C030C0FDAFE58DE5A9
:0A067C00C2C030C0FD85E554D291E4
:010686002251
:08004E008F088B098A0A890B57
:1000560075100185090EE50814600C24FB60082460
:10006600FE60142408702C1207898F0C8F0DC29124
:10007600E508240AFF80171207348F08E508C394A1
:100086000750101208208F0C8F0DC2917F61120746
:0C009600ED8005E4F50DF50CE50E70277B
:1000A200850B11E4F5E5C2C0E5107008A811A60F92
:1000B20005118003E4F51030C0FD85E50FD50CE392
:0400C200A811A60FCC
:0900C600020177E50E64017039B6
:1000CF00850A11850B12E4F5E5C2C0E510701385A2
:1000DF001282851183E50FF00512E51270070511E5
:1000EF008003E4F51030C0FD85E50FD50CD88512DF
:0700FF0082851183E50FF07B
:08010600806FE50E64FE702815
:10010E00850B11E4F5E5C2C0E5107009A811E50FE5
:10011E00F205118003E4F51030C0FD85E50FD50C16
:06012E00E2A811E50FF24A
:02013400804108
:10013600850911850A12850B13E4F5E5C2C0E510A1
:100146007018AB11AA12A913E50F12052274012526
:1001560013F513E43512F5128003E4F51030C0FDF3
:1001660085E50FD50CD3AB11AA12A913E50F12051D
:010176002266
:08017700D291E508FEE50DFF41
:01017F00225D
:060180008B178A18891993
:0B018600AD17C2918FE5C2C0ED7018EC
:1001910085191CA81CE6FE051C30C0FD85E51B8EDB
:0601A100E5C2C0D51AED15
:0701A7008072ED6401702578
:1001AE0085181C85191D851D82851C83E0FE051D85
:1001BE00E51D7002051C30C0FD85E51B8EE5C2C035
:0301CE00D51AE35C
:0701D1008048ED64FE701888
:1001D80085191CA81CE2FE051C30C0FD85E51B8E98
:0601E800E5C2C0D51AEDCE
:0201EE00802B64
:1001F00085171C85181D85191EAB1CAA1DA91E126A
:100200000509FE7401251EF51EE4351DF51D30C0DF
:0B021000FD85E51B8EE5C2C0D51ADE9F
:08021B0030C0FD85E51BD29106
:0102230022B8
:0A07ED008FE5C2C030C0FDAFE52269
:0300000002077282
:0C077200787FE4F6D8FD7581540205F391
:10050900BB010689828A83E0225002E722BBFE02F0
:09051900E32289828A83E4932223
:10052200BB010689828A83F0225002F722BBFE01B8
:02053200F322B2
:00000001FF
