:10000000020D5DE4FFFE1203CB600C0FEF70010EDA
:1000100009E970F20A80EF22228033D2B9D2BDC240
:100020000BA20C92EA227F600224CB021FB11214B1
:100030000DE49000F7F0A3EB1214D57F0A7E0002C6
:0800400014139001B6E0FF2249
:10004B0002289975C81175CBFA75CACA75CDFA75A0
:0F005B00CCCAD2AD227F031224CBEF2402FF22A6
:10006B00021FFA0203B6E86480F8E933E833601143
:10007B000460F0ED33EC337009E8FCE9FDEAFEEBCC
:10008B00FF220460DED3EB9FEA9EE99DE8C2E78C7A
:10009B00F0C2F795F0400CE8CCF8E9CDF9EACEFACE
:1000AB00EBCFFB12038185D0F05804700320D5B33E
:1000BB00E80470075002B2D50203C092D5EC04607D
:1000CB00F7E4CCC0E0C398F8603B94186008400D8F
:1000DB00D0E0FB020398E4FBFAC9FC8028E830E48B
:1000EB0006E4C9FBE4CAFCE830E305E4C9CACBFC6F
:1000FB00E854076010F8C3E913F9EA13FAEB13FBA2
:10010B00EC13FCD8F130F52FC3E49CFCEF9BFFEE16
:10011B009AFEED99FDD0E0FBEF4E4D4C701222DBB9
:10012B00030203BDEC2CFCEF33FFEE33FEED33FD8E
:10013B00ED30E7EB020398EF2BFFEE3AFEED39FDC6
:10014B00D0E0FB50130BBB00030203C0ED13FDEE1D
:10015B0013FEEF13FFEC13FC020398EC4D6011E858
:10016B00497017ED33EC3304600DE4FCFFFEFD2208
:10017B00E933E8330470F80203B6120381580460C4
:10018B0009E4CC248150062850090203C0284003FF
:10019B000203BDC0E0EB4A7044B98006D0E0FB021D
:1001AB0003ACEF4E701CBD8008EBFFEAFEE9FD804F
:1001BB00EBE98DF0A4FEE5F002024FE9CDF9EAFE82
:1001CB00EBFFEF89F0A4FCE5F0CE89F0A42EFFE461
:1001DB0035F0CD89F0A42DFEE435F08067EF4E703D
:1001EB0005BD80D780C3EF8BF0A4ACF0EE8BF0A4F1
:1001FB002CFCE435F0F8EF8AF0A42CE5F038FCE4A5
:10020B0033CB8DF0A42CFCE5F03BF8EE8AF0A42C5C
:10021B00FCE5F038F8E433CF89F0A42CFCE5F0389A
:10022B00CF3400CE89F0A42FFFE5F03EFEE433C9B6
:10023B008DF0A42EFEE5F039CD8AF0A42FFFE5F06A
:10024B003EFEE43DFD33D0E0FB50070BBB000F023D
:10025B0003C0EC2CFCEF33FFEE33FEED33FD02035A
:10026B00980203C0EC5D046005E8590470030203B7
:10027B00B6120381580460F6EC4860F2EC7004FD92
:10028B00FEFF22C860DB2481C85009C3986002506E
:10029B00060203BD9850CAF582E9294B4A7005AB9B
:1002AB00820203AC75F0007C1A7880C3EF9BEE9A48
:1002BB00ED99400DC3EF9BFFEE9AFEED99FDE842E1
:1002CB00F0DC23ACF0D0E0FFD0E0FED0E0FDAB8261
:1002DB0020E7101BEB60BAEC2CFCEF33FFEE33FE88
:1002EB00ED33FD020398E803F830E705C0F075F035
:1002FB0000EF2FFFEE33FEED33FD40B830E7C28049
:10030B00AA75F020800E75F010800575F0087D0041
:10031B007E007F003392D530D5031204CFEC3340EF
:10032B0010EF33FFEE33FEED33FDEC33FCD5F0ED88
:10033B0022E5F0247EA2D513CC92E7CDCEFF22EDA1
:10034B00D2E7CD33EC3392D524814006E4FFFEFD9A
:10035B00FC22FCE4CFCECDCC24E0501174FF80ED19
:10036B00C3CC13CCCD13CDCE13CECF13CF0470F0A3
:10037B0030D5DE0204CFE9D2E7C933E833F892D5A2
:10038B00EDD2E7CD33EC33FC5002B2D522EC30E7A3
:10039B00100FBF000C0EBE00080DBD00040BEB6070
:1003AB0014A2D5EB13FCED92E7FD2274FFFCFDFECE
:1003BB00FF22E480F8A2D574FF13FC7D80E480EF6C
:1003CB00BB010689828A83E0225002E722BBFE0230
:1003DB00E32289828A83E49322BB010CE58229F50F
:1003EB0082E5833AF583E0225006E92582F8E6227E
:1003FB00BBFE06E92582F8E222E58229F582E58338
:10040B003AF583E49322BB010689828A83F022505A
:10041B0002F722BBFE01F322F8BB010DE58229F5A1
:10042B0082E5833AF583E8F0225006E92582C8F687
:10043B0022BBFE05E92582C8F222EF8DF0A4A8F0BD
:10044B00CF8CF0A428CE8DF0A42EFE22BC000BBEC8
:10045B000029EF8DF084FFADF022E4CCF875F008A5
:10046B00EF2FFFEE33FEEC33FCEE9DEC984005FCDA
:10047B00EE9DFE0FD5F0E9E4CEFD22EDF8F5F0EEA2
:10048B008420D21CFEADF075F008EF2FFFED33FD8D
:10049B004007985006D5F0F222C398FD0FD5F0EA2D
:1004AB0022C5F0F8A3E028F0C5F0F8E582158270BC
:1004BB00021583E038F022EF2BFFEE3AFEED39FD0B
:1004CB00EC38FC22C3E49FFFE49EFEE49DFDE49C1C
:1004DB00FC22EB9FF5F0EA9E42F0E99D42F0E89C8E
:1004EB0045F022E0FCA3E0FDA3E0FEA3E0FF22E049
:1004FB00F8A3E0F9A3E0FAA3E0FB22ECF0A3EDF004
:10050B00A3EEF0A3EFF022A8828583F0D083D082F4
:10051B00120529120529120529120529E473E49302
:10052B00A3C583C5F0C583C8C582C8F0A3C583C561
:10053B00F0C583C8C582C822A42582F582E5F035B3
:10054B0083F58322E0FBA3E0FAA3E0F922F8E0FBBA
:10055B00A3A3E0F925F0F0E582158270021583E084
:10056B00FA38F022EBF0A3EAF0A3E9F022E709F660
:10057B0008DFFA8046E709F208DFFA803E88828CB2
:10058B0083E709F0A3DFFA8032E309F608DFFA808C
:10059B006EE309F208DFFA806688828C83E309F048
:1005AB00A3DFFA805A89828A83E0A3F608DFFA80F8
:1005BB004E89828A83E0A3F208DFFA804280D280E0
:1005CB00FA80C680D4805580F28029801080A68066
:1005DB00EA809A80A880DA80E280CA802988848C9D
:1005EB008589828A83E493A30592F0A31592DFF5A4
:1005FB00DEF3800B89828A83E493A3F608DFF9ECA0
:10060B00FAA9F0EDFB2288848C8589828A83E0A38A
:10061B000592F0A31592DFF6DEF480E389828A83DC
:10062B00E493A3F208DFF980D688F0EF60010E4E59
:10063B0060CD88F0ED2402B4040050C3F582EB24A6
:10064B0002B4040050B923234582239005C873E3F9
:10065B00F5F009E208B5F06D606B80F3E3F5F00996
:10066B00E608B5F060605E80F387F009E608B5F048
:10067B0054605280F487F009E208B5F04860468078
:10068B00F488828C8387F009E0A3B5F0386036805C
:10069B00F488828C8387F009E493A3B5F027602557
:1006AB0080F388828C83E3F5F009E0A3B5F0166044
:1006BB001480F388828C83E3F5F009E493A3B5F0FF
:1006CB0004600280F2020771808580E7808E80D201
:1006DB008032801580628074809B80B5808B80A176
:1006EB0080458066803002077D88848C8589828A6C
:1006FB0083E493F5F0A30592E493A31592B5F0660A
:10070B00606480ED89828A83E493F5F0A3E208B5F7
:10071B00F054605280F289828A83E0F5F0A3E608F8
:10072B00B5F043604180F389828A83E0F5F0A3E260
:10073B0008B5F032603080F389828A83E493F5F058
:10074B00A3E608B5F020601E80F2803F88848C857C
:10075B0089828A83E493F5F0A30592E0A31592B501
:10076B00F004600280EE7FFFB5F0020F2240027FA3
:10077B00012288848C8589828A83E0F5F0A3059217
:10078B00E0A31592B5F0DF60DD80EF88848C85895E
:10079B00828A83E0F5F0A30592E493A31592B5F05A
:1007AB00C560C380EE88F0ED2402B4040050B7F5A9
:1007BB0082EB2402B4040050AD2323458223900620
:1007CB00D373E709F60870FA8046E709F20870FA66
:1007DB00803E88828C83E709F0A370FA8074E3096A
:1007EB00F60870FA806CE309F20870FA806488826C
:1007FB008C83E309F0A370FA805889828A83E0A383
:10080B00F60870FA804C89828A83E0A3F20870FAAA
:10081B00804080D280FA80C680D4805180F28027BD
:10082B00801080A680EA809A80A880DA80E280CA55
:10083B00802788848C8589828A83E493A30592F030
:10084B00A3159270F5800B89828A83E493A3F60833
:10085B0070F9ECFAA9F0EDFB2288848C8589828AE9
:10086B0083E0A30592F0A3159270F680E589828A46
:10087B0083E493A3F20870F980D888F0ED2402B4D6
:10088B00040050CEF582EB2402B4040050C42323A1
:10089B0045822390081D73A3F8E0C5F025F0F0E521
:1008AB0082158270021583E0C838F0E82220002000
:1008BB0020202053746F707065642100202020204D
:1008CB0052756E6E696E672100202020537461741F
:1008DB0069737469637300202020636C65617265B2
:1008EB006421004F7065726174696F6E3A004465E4
:1008FB007669636500486F7374004E6F206F6620D6
:10090B006368616E6E656C733A0052462063686172
:10091B006E6E656C3A2000545820696E7465727661
:10092B00616C3A0000000000545820504C206C655C
:10093B006E3A0000000000000041434B2054582049
:10094B00504C206C656E3A00000054582070697052
:10095B00653A000000000000000000FFFF001B00D4
:10096B000500054445564943455F4D4F44453A0004
:10097B000000000054585F54494D454F55543A0000
:10098B00000000000054585F4154542E2E534E4328
:10099B005F4F4E3A000054585F4154542E2E534E25
:1009AB00435F4F46463A00484F53545F4D4F4445C3
:1009BB003A0000000000000052585F504950455368
:1009CB003A000000000000000052585F54494D45AA
:1009DB004F55543A00000000000054585F4D315FF2
:1009EB004359434C455F5045523A0052585F50456E
:1009FB0052494F443A0000000000000052585F502B
:100A0B004552494F445F4D4F443A00000052585FE6
:100A1B0043485F484F4C445F5045523A00004352A5
:100A2B005950545F50495045533A00000000004F55
:100A3B0055545055545F504F5745523A00000000E3
:100A4B0050444F574E5F49444C455F454E3A00006A
:100A5B00004D41585F53594E435F504552494F44E7
:100A6B003A00434F4C5F43485F53575F4C494D3AF5
:100A7B000000002D31382064426D000000000000A2
:100A8B00000000002D31322064426D000000000098
:100A9B0000000000002D362064426D0000000000B5
:100AAB00000000000000302064426D0000000000D8
:100ABB00000000000000005458207061796C6F61D9
:100ACB0064733A0000000000545820617474656D23
:100ADB007074733A00000000004176672054582070
:100AEB00617474656D7074733A004D61782054585D
:100AFB0020617474656D7074733A00545820636888
:100B0B002073776974636865733A000054582062E8
:100B1B00797465733A000000000000000052582001
:100B2B007061796C6F6164733A0000000000525879
:100B3B002062797465733A000000000000000060C9
:100B4B0055004C2A204D6F64652073656C6563748A
:100B5B0020202A002A2054657374207365747570E5
:100B6B002020202A002A20537461746973746963EE
:100B7B00732020202A002A20477A6C6C2070617227
:100B8B00616D7320202A002A204368616E6E656CAC
:100B9B0020636F6E66202A004800E60008000A00FA
:100BAB00000000602000C6000000000000000000F4
:100BBB00000000000000000000000000000000002A
:100BCB00000000000000004100C4004100EE0142A3
:100BDB0000A100004100C3005000A3000000000072
:100BEB0000000000000000000000005000B30000F7
:100BFB0000000000000000000000000000004100A9
:100C0B0010FF410011005100120000000000000015
:100C1B000000000000000000000051002300000055
:100C2B000000000000000000000000000000410078
:100C3B0034004100350041003600500037031728BF
:100C4B003D4B000000000000000000000042004788
:100C5B000005420049000541004B0050016E03178F
:100C6B00283D4B0000000000000000000000450183
:100C7B00A8010306090C410169FF4101B0004101C4
:100C8B00B3004201B4000042017E0000009001213C
:100C9B00EBF0A3EAF0A3E9F0E4900129F0A3F0D381
:100CAB00900128E09400900127E064809480500329
:100CBB00020D51900121E0FBA3E0FAA3E0F99001B2
:100CCB0029E0FEA3E0F5828E831203E4601090010D
:100CDB002AE004F070DD900129E004F080D590014A
:100CEB0024E0FBA3E0FAA3E0F91203CB603E9001F2
:100CFB0024A3E475F0011208A2A9F0FA1203CBFFAA
:100D0B00900121E0FBA3E0FAA3E0F9900129E4753F
:100D1B00F0011208A285F082F583EF1204239001F3
:100D2B002774FFF5F01204AC45F070B2900121E08E
:100D3B00FBA3E0FAA3E0F9900129E0FEA3E0F58222
:100D4B008E83E4120423900121E0FBA3E0FAA3E0DD
:100D5B00F922787FE4F6D8FD758121020DA4020EED
:100D6B002FE493A3F8E493A34003F68001F208DF8A
:100D7B00F48029E493A3F85407240CC8C333C45458
:100D8B000F4420C8834004F456800146F6DFE4800C
:100D9B000B0102040810204080900B4AE47E019363
:100DAB0060BCA3FF543F30E509541FFEE493A360DE
:100DBB00010ECF54C025E060A840B8E493A3FAE439
:100DCB0093A3F8E493A3C8C582C8CAC583CAF0A38A
:100DDB00C8C582C8CAC583CADFE9DEE780BE2E2E2E
:100DEB005C2E2E5C2E2E5C2E2E5C67617A656C6CF5
:100DFB005C636F6D6D6F6E5C677A6C6C2E6300025B
:100E0B0006080A0C0004FFFFFFFFFFFF0001003F75
:100E1B00FFFFFFFFFFFFFFFFFFFF003F000300018E
:100E2B00FFFFFFFF122853121C50120019D15CD286
:100E3B00AFE4FF12119312281E9000F6EFF0D19839
:100E4B00AE079000F6E0FF7003EE60EA121193809C
:100E5B00E57F02122F837F647E001214437F3812CA
:100E6B00002E7F3912002E7F1412002E7F081215D0
:100E7B00307F5F12002E7F6A12002E7FC87E001219
:100E8B0014131214C31215437F0602002EE49000B4
:100E9B00F7F09000EEE07003021041120042900157
:100EAB001CEFF060030210CF900010E064016002B1
:100EBB00E1E79000F704F0122C19EF7002E1B0900B
:100ECB0000C61204EEEF2401FFE43EFEE43DFDE418
:100EDB003CFC9000C61205069000DA1204FA900052
:100EEB00E8E0FEA3E0FFE4FCFD1204C29000DA127E
:100EFB000506122C38900118EEF0A3EFF09000CA03
:100F0B001204FA900118E0FEA3E0FFE4FCFD1204CA
:100F1B00C29000CA1205069000CA1204EEE4120336
:100F2B000CE4FBFA79C87842120166C004C005C014
:100F3B0006C0079000C61204EEE412030CA804A925
:100F4B0005AA06AB07D007D006D005D00412026F56
:100F5B0012034AE4FCFD9000CE120506900118E046
:100F6B00FEA3E0FFE4FCFD9000D21204FAC31204CE
:100F7B00DD5011900118E0FEA3E0FFE4FCFD9000B2
:100F8B00D21205069000D61204FAC001C002C003AB
:100F9B00122C5AE4FCFDD003D002D0011204C290F3
:100FAB0000D61205061210D5EF60319000DE120448
:100FBB00EEEF2401FFE43EFEE43DFDE43CFC90003B
:100FCB00DE1205069000E21204FA90011AE0FFE42B
:100FDB00FCFDFE1204C29000E21205069000C4E074
:100FEB00604AC2AF9000E6E0FEA3E0FFC39000A210
:100FFB00E09F9000A1E09E4031E49000C5F090008E
:10100B00A1F0A3F0D2AF9000C5E060FA7B017A00AB
:10101B0079F89000E8A3E0FD9000ECA3E0900121AB
:10102B00F0121DE690011C7401F0D2AF90011CE090
:10103B00900010F001CF11D5EF700201CF9000F7A7
:10104B007401F09000DE1204EEEF2401FFE43EFE8B
:10105B00E43DFDE43CFC9000DE1205069000E2123C
:10106B0004FA90011AE0FFE4FCFDFE1204C29000AA
:10107B00E21205069000EAA3E090011AF0E0FD6091
:10108B00437B017A0079F8A3E0900121F0122A8FBB
:10109B00EF60319000C61204EEEF2401FFE43EFE38
:1010AB00E43DFDE43CFC9000C61205069000DA120C
:1010BB0004FA90011AE0FFE4FCFDFE1204C290005A
:1010CB00DA1205069000F7E0FF227B017A01791A0C
:1010DB0090012012056F7A010990012312056F7A96
:1010EB000079F890011D12056F90011D12054FE953
:1010FB004A4BC36001D3400D7BFF7A0D79E97FB476
:10110B007E03120018F1C4300478120026900127D8
:10111B00EFF0D39420506990011D12054F122F68E8
:10112B009001AFE0D394004010E014F0E02482F57E
:10113B0082E43401F583E08001EE900126F0122762
:10114B00DDEF6002C20490012312054FE94A4B60A8
:10115B000F900126E0FF90012312054FEF120411AF
:10116B0090012012054FE94A4B600F900127E0FFD9
:10117B0090012012054FEF12041112001B7F012268
:10118B00F1D712001B7F00229000F7EFF0540360A1
:10119B0061E030E112900011E0FF7E007D047C00E5
:1011AB00D169900011EFF09000F7E030E012900061
:1011BB0011E0FF7E007D047C00D179900011EFF0EF
:1011CB00900011E075F011A4244CF9740035F0FA7D
:1011DB007B01C003C002C0017BFF7A0879B8900184
:1011EB001D12056FD001D002D00371257F587E02EE
:1011FB0091139000F7E030E7449000C4E06017E4EF
:10120B00F01227BC7BFF7A0879B890011D12056F8D
:10121B007A0879BA801F9000EEE070031226C29014
:10122B0000C47401F07BFF7A0879B890011D120598
:10123B006F7A0879C771257F587E0291139000F75A
:10124B00E030E6247BFF7A0879E290011D12056FEE
:10125B007A0879D471257F587E0291137F209000F4
:10126B00C6E4F0A3DFFC7F08900011E014602B14A0
:10127B0060601460411460772404600261157B0187
:10128B007A01790990011D12056F9000F7E090012A
:10129B0020F07A0079F8F1E680707B017A01790908
:1012AB0090011D12056F9000F7E0900120F07A007D
:1012BB0079F8D18980547B017A01790990011D124B
:1012CB00056F9000F7E0900120F07A0079F8B1619A
:1012DB0080387B017A01790990011D12056F90000E
:1012EB00F7E0900120F07A0079F8121847801B7B09
:1012FB00017A01790990011D12056F9000F7E090BA
:10130B000120F07A0079F8121A0F7B017A01790922
:10131B0090011D12056F7A0079F890011A12056F72
:10132B00120003900120EFF090011D12054F1200E7
:10133B0003900121EFF078227C017D0190011A12BC
:10134B00054F12088578337C017D0190011D120534
:10135B004F120885900120E0FFC3941050157422A2
:10136B002FF582E43401F5837420F0900120E00422
:10137B00F080E1E4900132F0900121E0FFC3941082
:10138B00501574332FF582E43401F5837420F090FB
:10139B000121E004F080E1E4900143F078127C003D
:1013AB007D017B017A0179221207B0EF601D781263
:1013BB007C007D017B017A0179221208857B017A01
:1013CB00007912E4900148F0FD915278237C007D66
:1013DB00017B017A0179331207B0EF602478237C0B
:1013EB00007D017B017A0179331208857B017A003C
:1013FB007923E4900148F07D0191527F057E0091A5
:10140B001322AB077F0A7E00AD07AC067FFA7E0086
:10141B0091437FFA7E0091437FFA7E0091437FFADE
:10142B007E009143ED1D70011C144C70DF22D2EA3B
:10143B00D2E8D20C7F0A7E000000000000EF1F7084
:10144B00011E144E70F22290014412056FED7D4087
:10145B007001FD900148E0D3940F40037410F0E449
:10146B0090015BF0900148E02D248090015CF07BB3
:10147B00017A01795B91DCE4FF90014412054F8FF7
:10148B00827583001203E4FE744A2FF582E4340163
:10149B00F583EEF00FEFB411E09001497440F0903A
:1014AB00014412054F120003EF04900161F07B0120
:1014BB007A0179497F3E8021910FE49000F7F0A3E8
:1014CB00740C91D57F0A7E008113F07B017A007931
:1014DB00F79001617402F07F3E90015E12056FE49C
:1014EB00FD122FDE900162EFF0900161E0FF14F02E
:1014FB00EFD394004026A3E0B4012190015EE47584
:10150B00F0011205581203CBF5DA122FBE900163CE
:10151B00EFF030E1D4E4900162F080CD43E2209013
:10152B000162E0FF22910DE49000F7F0EB4470A311
:10153B0091D57F0A7E008113910FE49000F7F0A301
:10154B0004F0FB7A0079F790016104F07F3E91E49F
:10155B007F0A7E00811390011A12056F900120E023
:10156B0030E312900035E0FF7E007D0F7C00D169E7
:10157B00900035EFF0900120E030E212900035E062
:10158B00FF7E007D0F7C00D179900035EFF090014C
:10159B0020E030E516D126C006C007122A5DAC0646
:1015AB00AD07D007D006D1691228E3900120E030B7
:1015BB00E416D126C006C007122A5DAC06AD07D0D3
:1015CB0007D006D1791228E3900035E075F0119021
:1015DB00096E120543AD82AC83F18B900035E0FFB1
:1015EB00B40C1ED12B900A7E75F011EF120543EE51
:1015FB0075F011A42583AD82FC90011D12054FE1FE
:10160B0091D1261218FE90011D12054FA801AC02B4
:10161B00AD037B017A0079A3020885900035E0FFCA
:10162B00AD07EDC3941050028001C3400D7BFF7AD0
:10163B000D79E97F1D7E02120018F1C4EDC39410E1
:10164B00501512001BED25E02488F582E43401F5DA
:10165B0083E0FEA3E0FF2212001BE4FEFF220FBF7C
:10166B0000010ED3EF9DEE9C4003E4FEFF22EF4EF4
:10167B007006AE04AF058005EF1F70011E229001AE
:10168B001A12056F900120E030E312900034E0FF56
:10169B007E007D037C00D169900034EFF090012037
:1016AB00E030E212900034E0FF7E007D037C00D13D
:1016BB0079900034EFF0900120E030E53E9000345B
:1016CB00E0FD25E024E6F582E43400F583E0FEA39B
:1016DB00E0FFED25E02466F582E43409F583E4931D
:1016EB00FC740193FDD169900034E025E024E6F50C
:1016FB0082E43400F583EEF0A3EFF0900120E030AC
:10170B00E43E900034E0FD25E024E6F582E434006D
:10171B00F583E0FEA3E0FFED25E02466F582E434DB
:10172B0009F583E493FC740193FDD179900034E0C7
:10173B0025E024E6F582E43400F583EEF0A3EFF028
:10174B00900034E075F011A42422F582E43409F101
:10175B0088900034E025E024E6F582E43400F5833C
:10176B00E0FEA3E0FF1218FE90011D12054FA80129
:10177B00AC02AD037B017A0079A3020885AD82FC34
:10178B0090011A12054F90012112056F8D828C83E7
:10179B00E493601B0DED70010C14F582E493FF9044
:1017AB000121E475F001120558EF12041180DD9050
:1017BB00012112054FE4020411A2AFE433C2AFC200
:1017CB00B9C2BDD20BD2EA24FF92AF22F1C4122FC1
:1017DB006CE49001AFF0C20402001B90011A1205D9
:1017EB006F900120E0FF20E50330E40F9000EEE066
:1017FB007F0070027F019000EEEFF090011A12054E
:10180B004FA801AC02AD037BFF7A0879EE12088575
:10181B009000EEE090011D601112054FA801AC0283
:10182B00AD037BFF7A0879F9800F12054FA801AC45
:10183B0002AD037BFF7A09790002088590011A1229
:10184B00056F900120E030E313900036E0FF7E003F
:10185B007D077C00121669900036EFF0900120E0B6
:10186B0030E213900036E0FF7E007D077C001216FD
:10187B0079900036EFF0900036E075F011A424C299
:10188B00F582E4340A121788900036E0640270384F
:10189B009000CE11FB9000A3E09000B3F0A3742E48
:1018AB00F09000A4E09000B5F09000A5E09000B699
:1018BB00F0E4A3F090011D12054FA801AC02AD039B
:1018CB007B017A0079B38025900036E025E025E096
:1018DB0024C6F582E43400F58311FB90011D12053B
:1018EB004FA801AC02AD037B017A0079A3020885F6
:1018FB001204EE7B017A0079A3900121EEF0A3EFA5
:10190B00F0A312056FE490012BF090012AF09001E7
:10191B00267427F0A37410F0900126E0FCA3E0FDE1
:10192B00D39400EC9400500221DD900121E0FEA342
:10193B00E0FF120457900128EEF0A3EFF04E701C5D
:10194B0090012BE0701690012312054F90012AE0B5
:10195B00F5827583007420120423803F90012B7451
:10196B0001F0900126E0FCA3E0FD900121E0FEA335
:10197B00E0FF120457A312054F90012AE0FEF582F7
:10198B00758300EF120423E92EF9E43AFA1203CB24
:10199B00443012041190012AE004F0900126E0FC7F
:1019AB00A3E0FDA3E0FEA3E0FF120445C3900122D8
:1019BB00E09FF0900121E09EF0900126E0FEA3E075
:1019CB00FF7C007D0A120457900126EEF0A3EFF086
:1019DB00212390012312054F90012AE0F582758394
:1019EB0000E412042390012BE070189001231205E0
:1019FB004F743012041190012312054F900001E433
:101A0B001204232290011A12056F900120E030E39B
:101A1B001B900049E0FEA3E0FF900047E0FCA3E031
:101A2B00FD121669900049EEF0A3EFF0900120E053
:101A3B0030E21B900049E0FEA3E0FF900047E0FC82
:101A4B00A3E0FD121679900049EEF0A3EFF09001A0
:101A5B0020E030E454900047E0FEA3E0FFA3E0B5A4
:101A6B00061CA3E0B507177D107C001216799000B9
:101A7B0047EEF0A3EFF0A3EEF0A3EFF08029900078
:101A8B0049A3E02437F582E43400F583E0FF7E00C0
:101A9B007D7D7C00121679900049A3E02437F582F6
:101AAB00E43400F583EFF071C7900120E030E5548A
:101ABB00900047E0FEA3E0FFA3E0B5061CA3E0B552
:101ACB0007177D107C00121669900047EEF0A3EF0C
:101ADB00F0A3EEF0A3EFF08029900049A3E02437A8
:101AEB00F582E43400F583E0FF7E007D7D7C0012FF
:101AFB001669900049A3E02437F582E43400F5839E
:101B0B00EFF071C7900047E0FEA3E0FFA3E06E701B
:101B1B0003A3E06F701F90011A12054FA801AC02CE
:101B2B00AD037BFF7A097905120885900047E0FE2B
:101B3B00A3E0FF807078A37C007D017BFF7A09799D
:101B4B0015120885900049E0FEA3E0FF7B017A00A7
:101B5B0079B331047B017A0079B3120003C374119A
:101B6B009F900128F0E49E900127F07B017A007989
:101B7B00B390012412056F7A0079A3120C9890018F
:101B8B001A12054FA801AC02AD037B017A0079A3B1
:101B9B00120885900049A3E02437F582E43400F560
:101BAB0083E0FF7E0011FE90011D12054FA801ACD2
:101BBB0002AD037B017A0079A30208857B017A00D1
:101BCB007937900047A3E0FD90012112056F1217A2
:101BDB00C49001B6E0C37001D3400D7BFF7A0D7941
:101BEB00E97F3B7E02120018EDD394105002800166
:101BFB00C3400D7BFF7A0D79E97F3C7E0212001802
:101C0B00E490016DF0900185EDF0E0FF7E00786EC1
:101C1B007C017D0190012112054F12063490016D5C
:101C2B00E0246EF582E43401F583E0FF913C020081
:101C3B001BE49001E8F0EF547FFFE054804FF0E09D
:101C4B00FD7F05E18F78F77C007D017BFF7A0E79B4
:101C5B000A7E007F051206341217C4C2E8A20B924B
:101C6B00EAC20C7F011230DA7F011230AA7FFF1219
:101C7B00309CE490016DF09001857405F0C209C2AF
:101C8B000AE490016AF0C208D201D202C206D20065
:101C9B00900186F0A3F0C203C204C2059001AFF01D
:101CAB007B017A0179A8FFB1A67B017A0079F77FD6
:101CBB0001B1A69000F77403F07B017A0079F77FEE
:101CCB0002B1A69000F77404F07B017A0079F77FDC
:101CDB0003B1A69000F77405F07B017A0079F77FCA
:101CEB0004B1A69000F77406F07B017A0079F77FB8
:101CFB0005B1A690016DE0246EF582E43401F58305
:101D0B00E0FF913C900188E4F0A37402F0E4A3F0AF
:101D1B00A3F0A3F0A37402F0A3E4F0A37423F0E404
:101D2B00A3F0A3F0A3F0A3743FF0E490019EF0A303
:101D3B00F0900194F0A3F0A3F0A37464F0A37403E8
:101D4B00F0A374F0F0A37401F0A3749AF0E4A3F081
:101D5B00A3F09001A0F0A37403F0E4A3F0A3F0A30D
:101D6B00F0A37496F0A3E4F0A37432F0122A367F3A
:101D7B000112305D7F02122FF27F051230461230B6
:101D8B003A122F6CF1F07FF07E031224641221D0F3
:101D9B0002001B7B017A0179A8E4FF90012B12054D
:101DAB006F90012AEFF014600A24FB501C6004248E
:101DBB00067027120060900132EFF090012AE024A8
:101DCB002AFFA312054F022B0E90012AE0240AFFD3
:101DDB00A312054F1203CBFDF18F2290011D1205AB
:101DEB006F900120EDF0D3941B5005E09400500D43
:101DFB007BFF7A0D79E97FAE7E02120018900121EC
:101E0B00E0D3940550028001C3400D7BFF7A0D791E
:101E1B00E97FAF7E02120018900120E0FF6005D32E
:101E2B00941B40037F0022900120E0900180F090F2
:101E3B0001B6E0B402031227BC1217C490016AE08A
:101E4B00FF900121E0FE6F600790016AEEF0D20176
:101E5B009001B6E06002E173200102C1FDC201D224
:101E6B0002FF1227F17D01E4FF122730900121E0E0
:101E7B00700E7B017A0179A87F06B1A6B19E8072A4
:101E8B007B017A0179227F01122634900129EFF030
:101E9B00900121E0FF6401603BEF24FD60121460B0
:101EAB001914602080007B017A0179227F02801C4B
:101EBB007B017A0179227F0380127B017A017922DF
:101ECB007F0480087B017A0179227F0512263490EA
:101EDB000129EFF07B017A017922E4FFB1A67B01A6
:101EEB007A0179227F06B1A6900121E0FF7D0112D4
:101EFB002C7CE490016BF0A3F09001ADF0A3F0907B
:101F0B0001B1F0A3F0F1F0122C05C200900188E0B2
:101F1B00FFA3E0900127CFF0A3EFF07F0112216C1C
:101F2B0030031D900127E0FEA3E0FFEE700AEF24C3
:101F3B00FD60071460068000801A801C7F02801AE7
:101F4B00900127E0FEA3E0FFEE700DEF24FE60048E
:101F5B0024027004E4FF80027F011225369001B643
:101F6B007401F012001BFF2220010F1227E6EF7005
:101F7B0009122C0512001B7F012212001B7F00226D
:101F8B00E0FD7F02C2E9EF2420F5E7E5E6540260AD
:101F9B00FAAFE7AE058EE7E5E6540260FA9001E989
:101FAB00E5E7F0D2E922C0E0C0F0C083C082C08573
:101FBB00C084C0925392FEC0D075D000C000C2C680
:101FCB009000A1E475F0011204AC9000C3E0600234
:101FDB0014F0D000D0D0D092D084D085D082D083D2
:101FEB00D0F0D0E032C2E97FE1122D6CD2E922C0F1
:101FFB00E0C0F0C083C082C085C084C0925392FE03
:10200B00C0D075D000C000C001C002C003C004C066
:10201B0005C006C0079000C57401F01149D007D068
:10202B0006D005D004D003D002D001D000D0D0D040
:10203B0092D084D085D082D083D0F0D0E032C2B998
:10204B00C2BD122CD4300A0C900198E0FEA3E0FF25
:10205B009164C20A9001B6E06402600221133188D8
:10206B007E009000EFEEF0A3EFF0D20BD2EA9001DE
:10207B006DE06F7001E4602AC2E8A20B92EAC20C19
:10208B009000EFA3E0246EF582E43401F583E0FFCA
:10209B00121C3CD2EAD2E8D20C9000EFA3E09001E4
:1020AB006DF051019000EFEEF0A3EFF05101EF4E08
:1020BB00700E7F01316CD206D2EAD2E8D20C800EC0
:1020CB00C2E8A20B92EAC20CC206E4FF316C90018B
:1020DB006BE475F0011204AC900194E0FEA3E0FFF9
:1020EB009000EFEEF0A3EFF0D39400EE9400404C91
:1020FB009000EFE0FEA3E0FF90016CE09F90016B7E
:10210B00E09E403831D080349001B6E06401702CF1
:10211B00300829B1FB9000EFEEF0A3EFF030031382
:10212B009000EFE07002A3E07012318890016DE037
:10213B00B50709121439C2E8D206C208D390018739
:10214B00E09400900186E09400400974FFF5F012D2
:10215B0004AC8002C203C20BA20C92EAD2B9D2BD6C
:10216B0022EF60122007157F0131A37F03AE071FFB
:10217B00EE70FAD20722E4FF31A3C20722D39001FB
:10218B00B5E094009001B4E0940040069001B3E0F8
:10219B00FF229001B0E0FF229001E5EFF0E4FF9108
:1021AB00CB9001E6EFF09001E5E0B40107A3E0442A
:1021BB0002F080079001E6E054FDF09001E6E0FDAF
:1021CB00E4FF021F8FC2E8A20B92EAC20C9001B689
:1021DB00E0B402057F0F122CB59001A2E07004A3AE
:1021EB00E064017003FF80027F01316CC206C209FB
:1021FB00E49001B6F022900190E07002A3E0600F32
:10220B00D39001B5E094009001B4E094004004E455
:10221B00FEFF2290017EE07002A3E07003FEFF221E
:10222B0090018EE0FEA3E0FF7C017DDC1204459063
:10223B000198E0FCA3E0FD120457AB07AA0690013E
:10224B0085E0FF7E00AD03AC02120445D390017F05
:10225B00E09F90017EE09E5016E0FEA3E0FF12048B
:10226B0057C3EB9DFFEA9CCF24FFCF34FFFE229098
:10227B00017EE0FEA3E0FFC3900197E09FFF90017A
:10228B0096E09EFE22C2B9C2BDD20BD2EAB1D89063
:10229B0000F4EFF030E633D20491E5EF24FF920522
:1022AB00914C9001B6E0B4012190016AE0FF9001DE
:1022BB00AFE0FE2482F582E43401F583EFF0EEC348
:1022CB00940250069001AFE004F09000F4E0FF2080
:1022DB00E40330E51A91BEEF04FF9000F1F0FD909E
:1022EB000181E0C39DF09001B1E48FF01204AC903A
:1022FB0000F4E0FD20E50261AA9001B6E064016004
:10230B000261AAD20A900180E0241275F004A4FFA6
:10231B0090019BE02FFF90019AE035F0FEC39001F6
:10232B0099E09FFF900198E09EFEED30E60874EC7B
:10233B002FFF74FF3EFE9164122D35914C90018856
:10234B00E0FEA3E0FF9000F2EEF0A3EFF09001A40B
:10235B00E0FDA3E0900186CDF0A3EDF0EF64024E1B
:10236B0060139000F2E0FEA3E0FF64034E6006EF03
:10237B0064044E7002D20391EEEF6006D20031D0AE
:10238B00801DB1C6E490016BF0A3F09001B1F0A3F6
:10239B00F0D2EAD2E8D20C7F0AFE121443C2E890C4
:1023AB0000F4E020E4028141C2E8A20B92EAC20CE5
:1023BB009000F1E0FF90016BE48FF01204AC900100
:1023CB008AE0FEA3E0FF9000F2EEF0A3EFF04E6088
:1023DB00159000F2E0FEA3E0FFC390016CE09F902C
:1023EB00016BE09E500330090431D080499001818C
:1023FB00E0703C9001A6E0FEA3E0FFD39001AEE0BD
:10240B009F9001ADE09E400DE4900186F0A3F0C2D9
:10241B00037F018016300311B1FBD3EF9401EE94CF
:10242B00004002C2067F0280027F03B13680079113
:10243B00F8121439C2E8C20BA20C92EAD2B9D2BD7F
:10244B002290019CE0FFA3E09001B4CFF0A3EFF04A
:10245B0090016DE09001B3F022AD07AC06E4FF9163
:10246B00B30F91B3E4120311E4FBFAF978471201AD
:10247B00667B007A247974784912026FE4FBFAF9CF
:10248B00783F12007512034AAC06AD07EF24FFFF2D
:10249B00EE34FFFEE5B35406FD53B3F9EFF5B4EE9E
:1024AB00F5B5AF05EF42B322EF600443B3012253FE
:1024BB00B3FE227F0891CBEF540FFF22EFF07F0684
:1024CB00C2E98FE7E5E6540260FAAFE7E4F5E7E52A
:1024DB00E6540260FAAFE7D2E9227F0991CBEF54C1
:1024EB0001FF227F1791CBEFC45401FF2290018192
:1024FB00E0D3940F40087DFA7C007F0F800C900195
:10250B0081E0C39401FF7DFA7C00AB07EC540FC450
:10251B0054F0FF9001E7E0540F4FF0EB540FFFE046
:10252B0054F04FF0E0FD7F04021F8F9001E3EFF0BA
:10253B00B1C691F89001E3E01460121460201460AE
:10254B0027800090016DE09001E4F08035900185CB
:10255B00E0FDE4FF122C7C9001E4EFF08024122DBF
:10256B00459001E4EFF0801A90016DE0049001E4D6
:10257B00F0E0FF900185E0FEEF8EF0849001E4E542
:10258B00F0F090016DE0FF9001E4E0FE6F601E90B3
:10259B00016DEEF0E0246EF582E43401F583E0FF8B
:1025AB00121C3C9001ADE475F0011204AC30030336
:1025BB00D20822D206121439C2E822300305900148
:1025CB008C800390018EA3E0900181F0227D707FBF
:1025DB0007121F8FEF54709000F5F0E0FFC0077FDC
:1025EB000791CBEF540FFED0E04EFF9000F5F02299
:1025FB00900190E07002A3E0600FD39001B5E094DE
:10260B00009001B4E094004004E4FEFF2290017EB0
:10261B00E0FCA3E0FD4C7003FEFF22C3900197E0AA
:10262B009DFF900196E09CFE2290012B12056F906E
:10263B00012AEFF014600824FB60042406700C9050
:10264B00012AE0FFA312054F022D7690012AE02408
:10265B000AFF91CB90012B12054FEF1204117F0152
:10266B002290011BEFF07F0291CB90011CEFF07FCA
:10267B000191CB90011DEFF090011BE0FF24FA506C
:10268B00062407601B80207401A807088002C3334F
:10269B00D8FCF4FD90011CE05DF0A3E05DF0800739
:1026AB00E490011CF0A3F090011C121F8B90011DF4
:1026BB00E0FD7F01021F8FF1BC30024F1217C4C225
:1026CB0002D201121D9E7FFFD16CE490011AF09093
:1026DB00011AE0FFC39406502E74017E00A8070870
:1026EB008005C333CE33CED8F9FF900192E05EFE66
:1026FB00A3E05F4E600990011AE0FF7D01F130907D
:10270B00011AE004F080C87F01F1F17F01316CE424
:10271B0090016BF0A3F09001B67402F0D2EAD2E80C
:10272B00D20C02001B90012AEFF0A3EDF07F029177
:10273B00CB90012CEFF07F0191CB90012DEFF0901E
:10274B00012AE0FF24FA50062407603C80537401F1
:10275B00A807088002C333D8FCFD90012CE04DF094
:10276B0090012BE0600890012DE04DF0803390013B
:10277B002AE0FF7401A807088002C333D8FCF4FFDA
:10278B0090012DE05FF0801990012C743FF09001C7
:10279B002BE0600890012D743FF08005E490012D33
:1027AB00F090012C121F8B90012DE0FD7F01021F79
:1027BB008F9001B6E0B4010AD2099001B6E0601126
:1027CB0080F89001B6E0B402081217C431D01200A1
:1027DB001B227F1791CBEF5401FF227F1791CBEF79
:1027EB00C4135401FF2290012AEFF0E4FF91CB9028
:1027FB00012BEFF090012AE0B40107A3E04401F0B4
:10280B00800790012BE054FEF090012BE0FDE4FFDC
:10281B00021F8F9000C3E0702CAFA0EFF4FF601F7E
:10282B0090004BE0C39407500DC2ADE004F0900054
:10283B00C374AAF080069000C37401F0D2AD22E4F9
:10284B0090004BF0227F00227F02116F7F03117BE0
:10285B007F0111891165BF02FB22E5AD7F0130E3DA
:10286B00027F0222EF5407FFE5AD54F84FF5AD227E
:10287B00EF25E05406FFE5B354F94FF5B322EF60B3
:10288B0009E5A3448054F7F5A32253A37722C0E0B4
:10289B00C0F0C083C082C085C084C0925392FEC07A
:1028AB00D075D000C000C001C002C003C004C00579
:1028BB00C006C007122290D007D006D005D004D096
:1028CB0003D002D001D000D0D0D092D084D085D00C
:1028DB0082D083D0F0D0E032AC06AD07900035E06B
:1028EB00FF900121EFF0A3ECF0A3EDF09001B6E027
:1028FB00C37001D3400D7BFF7A0D79E97FE97E012F
:10290B00120018900121E0C3941050028001C340C3
:10291B000D7BFF7A0D79E97FEA7E01120018900199
:10292B0021E0701CD3900123E09404900122E094E9
:10293B0000400D7BFF7A0D79E97FEB7E01120018C9
:10294B00900121E0B4041CD3900123E09401900189
:10295B0022E09400400D7BFF7A0D79E97FEC7E013C
:10296B00120018900121E0B4051CD3900123E094D0
:10297B003F900122E09400400D7BFF7A0D79E97FB7
:10298B00ED7E01120018900121E0B40B1CD39001D5
:10299B0023E0943F900122E09400400D7BFF7A0DE1
:1029AB0079E97FEE7E01120018900121E0B40C1C36
:1029BB00D3900123E09403900122E09400400D7B1F
:1029CB00FF7A0D79E97FEF7E011200181217C49080
:1029DB000121E0FFC39410504FA3E0FCA3E0FDEFF7
:1029EB0025E02488F582E43401F583ECF0A3EDF0C7
:1029FB00EF24FB603124FD602524FC60251460125C
:102A0B00240D7024ED4C6006ED64014C701AC2036A
:102A1B008016ED64014C7010FF12216C800AD20AF3
:102A2B00800651368002D20202001B9001A0A3E067
:102A3B00FF9001241224C7900125EFF0900124E0B0
:102A4B00540325E0FFA3E054F94FF0E0FD7F0602AD
:102A5B001F8F900035E0FF900121EFF078227C0171
:102A6B007D017BFF7A0E790F7E007F20120634905A
:102A7B000121E025E02422F582E43401F583E0FE18
:102A8B00A3E0FF2290011D12056F900120EDF0D302
:102A9B0094055005E09400500D7BFF7A0D79E97F8A
:102AAB00947E02120018900121E0D394055002800D
:102ABB0001C3400D7BFF7A0D79E97F957E021200F1
:102ACB00181217C4900120E0FF600BD39405500639
:102ADB001227E6EF600612001B7F0022900121E017
:102AEB00FF90011D12054F900120E0900126F0711F
:102AFB000212001B7F0122EF44A8FF900126E090F9
:102B0B000132F090012F12056F90012FE0FDC2E909
:102B1B008FE7ED702A12054F900134E9F0900134E4
:102B2B00E0F8E6FEE004F0E5E6540260FA900133CB
:102B3B00E5E7F08EE7900132E014F070E061F6ED1E
:102B4B006401703F90012F12054FAB01900134EAE5
:102B5B00F0A3EBF0900134E0FEA3E0F5828E83E06E
:102B6B00FE900134E475F0011204ACE5E65402600A
:102B7B00FA900133E5E7F08EE7900132E014F07044
:102B8B00D38068ED64FE702D90012F12054F9001DC
:102B9B0034E9F0900134E0F8E2FEE004F0E5E654AD
:102BAB000260FA900133E5E7F08EE7900132E01412
:102BBB00F070E0803690012F12054F900134120512
:102BCB006F90013412054F1203CBFE900135E47563
:102BDB00F0011204ACE5E6540260FA900133E5E72C
:102BEB00F08EE7900132E014F070D6E5E654026007
:102BFB00FA900133E5E7F0D2E92290011D12054F5F
:102C0B00900120E0FD900132EDF07FA0610E90016C
:102C1B00B6E06401C36001D3400D7BFF7A0D79E907
:102C2B007F637E03120018A200E433FF229001B6EB
:102C3B00E06401C36001D3400D7BFF7A0D79E97F1E
:102C4B006A7E031200189001B1E0FEA3E0FF229010
:102C5B0001B6E06401C36001D3400D7BFF7A0D79AF
:102C6B00E97F717E031200189001ADE0FEA3E0FF37
:102C7B0022EFD394004005900169EFF0900169E0D9
:102C8B00FFC43333335480FEEFC4333354806EFEB2
:102C9B00E0FFC43354806EFEEF54806EFEE0C3132E
:102CAB004EF0AE058EF084AFF022AE071FEED3943C
:102CBB000040157C007D2DED1DAA0470011CD394E2
:102CCB0000EA940040E480EF22D39001B5E0940039
:102CDB009001B4E09400400774FFF5F01204AC903F
:102CEB00017FE02401FF90017EE03400FE9001960D
:102CFB00E0FCA3E0FD12045790017EECF0A3EDF095
:102D0B00900190E07002A3E0600A90017EE07002F7
:102D1B00A3E070159001B0E004FF900185E0FEEF99
:102D2B008EF0849001B0E5F0F02290016DE09001FF
:102D3B00B0F0E490017EF0A3F022D39001B5E094C3
:102D4B00019001B4E0940040069001B3E0FF2290A3
:102D5B0001B0E004FF900185E0FEEF8EF084AFF050
:102D6B00228FE7E5E630E1FBAFE7229001D81205B1
:102D7B006F9001D7EFF09001DF7401F09001D8E074
:102D8B009001DDF0EF14600C24FB600824FE601949
:102D9B00240870331200609001DBEFF0A3F0C2E95E
:102DAB009001D7E0240AFF801AF1529001D7EFF07F
:102DBB00C3940750121200269001DBEFF0A3F0C270
:102DCB00E97F61B16C8009E49001DCF09001DBF0EC
:102DDB009001DDE0FF704C9001D812054F9001E09F
:102DEB00E9F0E4F5E79001DFE070119001DEE0FE21
:102DFB009001E0E0F8A606E004F08005E49001DF26
:102E0B00F0E5E6540260FA9001DEE5E7F09001DBB5
:102E1B00E014F070CD9001DEE0FE9001E0E0F8A64A
:102E2B0006E143EF640170649001D812054FAF01C6
:102E3B009001E0EAF0A3EFF0E4F5E79001DFE0703A
:102E4B001E9001DEE0FF9001E0E0FCA3E0F5828C38
:102E5B0083EFF09001E0E475F0011204AC8005E41F
:102E6B009001DFF0E5E6540260FA9001DEE5E7F051
:102E7B009001DBE014F070C09001DEE0FF9001E008
:102E8B00E0FCA3E0F5828C83EFF0E1439001DDE001
:102E9B0064FE704C9001D812054F9001E0E9F0E40C
:102EAB00F5E79001DFE070119001DEE0FF9001E0AB
:102EBB00E0F8EFF2E004F08005E49001DFF0E5E6E6
:102ECB00540260FA9001DEE5E7F09001DBE014F0CC
:102EDB0070CD9001DEE0FF9001E0E0F8EFF280585A
:102EEB009001D812054F9001E012056FE4F5E790C1
:102EFB0001DFE0701B9001DEE0FF9001E012054F57
:102F0B00EF1204119001E1E475F0011204AC80059D
:102F1B00E49001DFF0E5E6540260FA9001DEE5E7AC
:102F2B00F09001DBE014F070C39001DEE0FF900144
:102F3B00E012054FEF120411D2E99001D7E0FE9099
:102F4B0001DCE0FDEDFF22F15FEF540EFFE4C31354
:102F5B00EF13FF22C2E97FFFB16CD2E9227F08A1F8
:102F6B0076C2E97FE2B16CD2E922EF25E025E0FFE2
:102F7B00E5E254F34FF5E222AE077F01F1A8AF066D
:102F8B00F175E4FFF19D43A604E4F5E10FF1B3C243
:102F9B00C222EF700443E2022253E2FD22EF6004EF
:102FAB0043E2012253E2FE22EF600475E1DF22755A
:102FBB00E12022900164120512000000FFADE1ED4B
:102FCB005401FCED5402900168F012143FEC60EDDB
:102FDB00AF052243E210EF25E04DF5DAF1BEEF7FAE
:102FEB000130E1027F00229000FCEFF0E4FF12249D
:102FFB00CB9000FDEFF09000FCE014601014601A11
:10300B00240270219000FDE054F7F080189000FD31
:10301B00E04408F0E054FBF0800B9000FDE0440826
:10302B00F0E04404F09000FDE0FDE4FF021F8F7D13
:10303B00707F07121F8FEF5470FF22E49000FCF09B
:10304B00EF24FE5403FFE054FC4FF0E0FD7F03023E
:10305B001F8F9000FC1224C79000FDEFF09000FC36
:10306B00E0600C24FE70159000FDE044208006907B
:10307B0000FDE054DFF0E054F7F0800B9000FDE032
:10308B0054DFF0E04408F09000FDE0FD7F06021FE6
:10309B008FEF543F9000FCF0E0FD7F1C021F8F90E0
:1030AB0000FCEFF07F1D1224CB9000FDEFF09000A1
:1030BB00FCE07F0060027F01EF540125E025E0FF7B
:1030CB009000FDE054FB4FF0E0FD7F1D021F8F9041
:1030DB0000FCEFF07F1D1224CB9000FDEFF0900071
:1030EB00FCE07F0060027F01EF540125E0FF9000C0
:0D30FB00FDE054FD4FF0E0FD7F1D021F8F32
:00000001FF
