:1000000002059B011C0050001504192A3F4D0000F9
:1000100000000000000000000045004F0104070A36
:100020000D410010FF4100570041005A0042005BA3
:100030000000420025000000D2B9D2BDC20BA20CC4
:1000400092EA22120B0DEF5470FF22020A2D7F025A
:100050001214667F0312142C7F0112144C12145CCC
:09006000BF02FA227F60020B715D
:10006B00C18D0203B5E86480F8E933E8336011040D
:10007B0060F0ED33EC337009E8FCE9FDEAFEEBFFD1
:10008B00220460DED3EB9FEA9EE99DE8C2E78CF089
:10009B00C2F795F0400CE8CCF8E9CDF9EACEFAEBD3
:1000AB00CFFB12038085D0F05804700320D5B3E842
:1000BB000470075002B2D50203BF92D5EC0460F76F
:1000CB00E4CCC0E0C398F8603B94186008400DD0B6
:1000DB00E0FB020397E4FBFAC9FC8028E830E40656
:1000EB00E4C9FBE4CAFCE830E305E4C9CACBFCE88D
:1000FB0054076010F8C3E913F9EA13FAEB13FBEC9E
:10010B0013FCD8F130F52FC3E49CFCEF9BFFEE9A68
:10011B00FEED99FDD0E0FBEF4E4D4C701222DB0350
:10012B000203BCEC2CFCEF33FFEE33FEED33FDEDA5
:10013B0030E7EB020397EF2BFFEE3AFEED39FDD0E4
:10014B00E0FB50130BBB00030203BFED13FDEE13DB
:10015B00FEEF13FFEC13FC020397EC4D6011E84923
:10016B007017ED33EC3304600DE4FCFFFEFD22E968
:10017B0033E8330470F80203B512038058046009A6
:10018B00E4CC248150062850090203BF2840030207
:10019B0003BCC0E0EB4A7044B98006D0E0FB02031D
:1001AB00ABEF4E701CBD8008EBFFEAFEE9FD80EB68
:1001BB00E98DF0A4FEE5F002024EE9CDF9EAFEEB83
:1001CB00FFEF89F0A4FCE5F0CE89F0A42EFFE43517
:1001DB00F0CD89F0A42DFEE435F08067EF4E70056D
:1001EB00BD80D780C3EF8BF0A4ACF0EE8BF0A42CCA
:1001FB00FCE435F0F8EF8AF0A42CE5F038FCE4339E
:10020B00CB8DF0A42CFCE5F03BF8EE8AF0A42CFC93
:10021B00E5F038F8E433CF89F0A42CFCE5F038CFC7
:10022B003400CE89F0A42FFFE5F03EFEE433C98DF8
:10023B00F0A42EFEE5F039CD8AF0A42FFFE5F03EB9
:10024B00FEE43DFD33D0E0FB50070BBB000F020378
:10025B00BFEC2CFCEF33FFEE33FEED33FD020397C7
:10026B000203BFEC5D046005E8590470030203B59B
:10027B00120380580460F6EC4860F2EC7004FDFE4B
:10028B00FF22C860DB2481C85009C3986002500666
:10029B000203BC9850CAF582E9294B4A7005AB8220
:1002AB000203AB75F0007C1A7880C3EF9BEE9AEDDE
:1002BB0099400DC3EF9BFFEE9AFEED99FDE842F0DE
:1002CB00DC23ACF0D0E0FFD0E0FED0E0FDAB822031
:1002DB00E7101BEB60BAEC2CFCEF33FFEE33FEEDBB
:1002EB0033FD020397E803F830E705C0F075F00023
:1002FB00EF2FFFEE33FEED33FD40B830E7C280AA9F
:10030B0075F020800E75F010800575F0087D007E6D
:10031B00007F003392D530D5031204ABEC33401081
:10032B00EF33FFEE33FEED33FDEC33FCD5F0ED2276
:10033B00E5F0247EA2D513CC92E7CDCEFF22EDD2F1
:10034B00E7CD33EC3392D524814006E4FFFEFDFC70
:10035B0022FCE4CFCECDCC24E0501174FF80EDC352
:10036B00CC13CCCD13CDCE13CECF13CF0470F03036
:10037B00D5DE0204ABE9D2E7C933E833F892D5ED09
:10038B00D2E7CD33EC33FC5002B2D522EC30E71080
:10039B000FBF000C0EBE00080DBD00040BEB60146C
:1003AB00A2D5EB13FCED92E7FD2274FFFCFDFEFFE3
:1003BB0022E480F8A2D574FF13FC7D80E480EFBBB0
:1003CB00010689828A83E0225002E722BBFE02E308
:1003DB002289828A83E49322BB010CE58229F58270
:1003EB00E5833AF583E0225006E92582F8E622BB45
:1003FB00FE06E92582F8E222E58229F582E5833AB9
:10040B00F583E49322BB010689828A83F022500292
:10041B00F722BBFE01F322F8BB010DE58229F58221
:10042B00E5833AF583E8F0225006E92582C8F622E7
:10043B00BBFE05E92582C8F222EF8DF0A4A8F0CF10
:10044B008CF0A428CE8DF0A42EFE22BC000BBE0097
:10045B0029EF8DF084FFADF022E4CCF875F008EFB6
:10046B002FFFEE33FEEC33FCEE9DEC984005FCEEDB
:10047B009DFE0FD5F0E9E4CEFD22EDF8F5F0EE840C
:10048B0020D21CFEADF075F008EF2FFFED33FD40D1
:10049B0007985006D5F0F222C398FD0FD5F0EA224B
:1004AB00C3E49FFFE49EFEE49DFDE49CFC22E70970
:1004BB00F608DFFA8046E709F208DFFA803E888209
:1004CB008C83E709F0A3DFFA8032E309F608DFFA41
:1004DB00806EE309F208DFFA806688828C83E30979
:1004EB00F0A3DFFA805A89828A83E0A3F608DFFA49
:1004FB00804E89828A83E0A3F208DFFA804280D2A1
:10050B0080FA80C680D4805580F28029801080A626
:10051B0080EA809A80A880DA80E280CA8029888469
:10052B008C8589828A83E493A30592F0A31592DFCD
:10053B00F5DEF3800B89828A83E493A3F608DFF957
:10054B00ECFAA9F0EDFB2288848C8589828A83E002
:10055B00A30592F0A31592DFF6DEF480E389828A7D
:10056B0083E493A3F208DFF980D688F0EF60010EE5
:10057B004E60CD88F0ED2402B4040050C3F582EB3D
:10058B002402B4040050B923234582239005097338
:10059B00787FE4F6D8FD7581620205E202064CE431
:1005AB0093A3F8E493A34003F68001F208DFF480F1
:1005BB0029E493A3F85407240CC8C333C4540F4441
:1005CB0020C8834004F456800146F6DFE4800B011B
:1005DB0002040810204080900003E47E019360BC6D
:1005EB00A3FF543F30E509541FFEE493A360010EB3
:1005FB00CF54C025E060A840B8E493A3FAE493A3DA
:10060B00F8E493A3C8C582C8CAC583CAF0A3C8C5FA
:10061B0082C8CAC583CADFE9DEE780BE0205080BC4
:10062B000E0004FFFFFFFFFFFF0001003FFFFFFF76
:10063B00FFFFFFFFFFFFFF003F00030001FFFFFF76
:10064B00FF114E1208ECE4F593D2AF120A76754700
:10065B0000754800754900754A00754B00754C00D4
:10066B007B007A007929F14BEF60E3E529F4F58003
:10067B0085A0297B007A007929E4F5487D01D1D743
:10068B0080CCC0E0C0F0C083C082C085C084C09263
:10069B005392FEC0D075D000C000C001C002C00391
:1006AB00C004C005C006C007120CE5D007D006D0A9
:1006BB0005D004D003D002D001D000D0D0D092D03E
:1006CB0084D085D082D083D0F0D0E0328B448A4561
:1006DB0089468D47F1D3E547600BD3940A50061238
:1006EB001493EF600511387F0022AB44AA45A9464D
:1006FB0085474DAF48F1CA11387F0122AD07AC06D3
:10070B00E4FFF1BF0FF1BFE47110E4FBFAF9784796
:10071B0031657B007A2479747849516EE4FBFAF9E0
:10072B00783F11747149EF24FFFFEE34FFFEE5B300
:10073B005406FD53B3F9EFF5B4EEF5B5ED42B32224
:10074B008B448A458946F1D330046411648F4EE59E
:10075B004ED394205057AB44AA45A946120FFB9099
:10076B000056E0D394004012E014F0E02429F58207
:10077B00E43400F583E0F54D80028E4D121489EFC1
:10078B006002C204E54C454B454A600AAB4AAA4B92
:10079B00A94CE54D9110E54945484547600AAB47E3
:1007AB00AA48A949E54E911011387F0122F1E611B3
:1007BB00387F0022EF600443B3012253B3FE22EFD4
:1007CB0044A8FF854D52802DA2AFE433C2AFC2B90E
:1007DB00C2BDD20BD2EA24FF92AF22F1D312143A4C
:1007EB00E4900056F0C20401387F03120B71EF2422
:0307FB0002FF22D8
:100800008B4F8A508951AD4FC2E98FE7ED70198542
:100810005154A854E6FE0554E5E6540260FA85E713
:10082000538EE7D552EC8075ED64017026855054E7
:10083000855155855582855483E0FE0555E55570F3
:10084000020554E5E6540260FA85E7538EE7D55277
:10085000E2804AED64FE7019855154A854E2FE0509
:1008600054E5E6540260FA85E7538EE7D552EC80F2
:100870002C854F54855055855156AB54AA55A956D1
:100880001203CAFE74012556F556E43555F555E5B3
:10089000E6540260FA85E7538EE7D552DDE5E6546B
:1008A0000260FA85E753D2E9227B017A00794FE4AE
:1008B000FF8F498B4A8A4B894CE54914600A24FB17
:1008C00050186004240670231207F48F52E549245F
:1008D0002AFFAB4AAA4BA94C0100E549240AFFAB09
:1008E0004AAA4BA94C1203CAFD71112278447C001C
:1008F0007D007BFF7A0679277E007F051205751241
:1009000007D3C2E8A20B92EAC20C7F0171FC7F01FF
:10091000911B7FFF12149FE4900014F090002C7440
:1009200005F0C209C20AE4900011F0C208D201D257
:1009300002C206D20090002DF0A3F0C203C204C28E
:1009400005900056F07B017A00794FFF11B17B00D2
:100950007A0079447F0111B17544037B007A0079F4
:10096000447F0211B17544047B007A0079447F030F
:1009700011B17544057B007A0079447F0411B1758B
:1009800044067B007A0079447F0511B1900014E0A1
:100990002415F582E43400F583E0FFF1CBE4900008
:1009A0002FF0A3F0A304F0A374F4F0A3E4F0A37475
:1009B00002F0A3E4F0A37423F0E4A3F0A3F0A3F007
:1009C000A3743FF0E4900045F0A3F090003BF0A347
:1009D000F0A3F0A37464F0A37403F0A374F0F0A385
:1009E0007401F0A37468F0A3E4F0A37402F0900023
:1009F00047E4F0A37403F0E4A3F0A3F0A3F0A3741E
:100A000096F0A3E4F0A37432F0913C7F01915E7FF5
:100A10000291877F0512147212004312143A1214C5
:100A2000437FF07E0312070791B4020038C0E0C094
:100A3000F0C083C082C085C084C0925392FEC0D0F3
:100A400075D000C000C001C002C003C004C005C012
:100A500006C007B1F4D007D006D005D004D003D02B
:100A600002D001D000D0D0D092D084D085D082D016
:100A700083D0F0D0E0321210393002401207D3C2D6
:100A800002D20111A97FFF712EE4F54474017E00AA
:100A9000A844088005C333CE33CED8F9FF9000397F
:100AA000E05EFEA3E05F4E60067D01AF44718B0502
:100AB00044E544C3940640D47F0171E17F0151D6DF
:100AC000E4900012F0A3F090005D7402F0D2EAD23C
:100AD000E8D20C020038EF60122007157F0151F2B6
:100AE0007F03AE071FEE70FAD20722E4FF51F2C275
:100AF00007228F1AE4FF71718F1BE51AB4010543B9
:100B00001B028003531BFDAD1BE4FF80047D707F3F
:100B100007C2E9EF2420F5E7E5E6540260FAAFE703
:100B20008DE7E5E6540260FA85E71FD2E9228F459A
:100B30007F0271718F467F0171718F47E54524FAFD
:100B40005006240760168019AF457401A807088075
:100B500002C333D8FCF4524652478005E4F546F50B
:100B600047AD467F027111AD477F0180A48F497F59
:100B70001DC2E98FE7E5E6540260FAAFE7E4F5E766
:100B8000E5E6540260FAAFE7D2E9228F458D467F51
:100B90000271718F477F0171718F48E54524FA50CA
:100BA0000624076021802EAF457401A80708800243
:100BB000C333D8FCFF4247E5466005EF4248801545
:100BC000EFF45248800F75473FE546600575483F92
:100BD0008003E4F548AD477F027111AD487F0161A4
:100BE000118F45E4FF71718F46E545B40105434619
:100BF0000180035346FEAD46E4FF6111716D8F4ADB
:100C0000E5497F0060027F01EF540125E0FFE54ADE
:100C100054FD4FF54AAD4A7F1D6111716D8F4AE554
:100C2000497F0060027F01EF540125E025E0FFE5E8
:100C30004A54FB4FF54AAD4A7F1D6111900047A30E
:100C4000E0FF8F497F0671718F4AE549540325E023
:100C5000FFE54A54F94FF54AAD4A7F0661118F49C5
:100C60007F0671718F4AE549600924FE700D434A81
:100C7000208003534ADF534AF78006534ADF434A32
:100C800008AD4A7F0661118F49E4FF71718F4AE513
:100C90004914600C14601124027013534AF7800E3B
:100CA000434A08534AFB8006434A08434A04AD4A74
:100CB000E4FF6111C2E8A20B92EAC20C90005DE071
:100CC000B402057F0F121182900049E07004A3E086
:100CD00064017003FF80027F0151D6C206C209E49D
:100CE00090005DF022C2B9C2BD1211A1300A0D9070
:100CF000003FE0FEA3E0FF120707C20A90005DE09C
:100D000064026002A19D1212177522008F23D20B7C
:100D1000D2EA900014E065237002E5226022C2E866
:100D2000A20B92EAC20C74152FF582E43400F5830D
:100D3000E0FFF1CBD2EAD2E8D20C900014E523F028
:100D400012124A8E228F2312124AEF4E700E7F012A
:100D500051D6D206D2EAD2E8D20C800EC2E8A20B5B
:100D600092EAC20CC206E4FF51D6900013E004F0F0
:100D70007006900012E004F090003BE0FEA3E08ECD
:100D800022F523D39400EE9400403F900013E095A9
:100D900023900012E09522403191B4802D90005DA7
:100DA000E0640170253008221210008E228F23305B
:100DB0000310E52345227012121217900014E0B5BB
:100DC0000708F19FC2E8D206C208D390002EE09433
:100DD0000090002DE09400400EA3E024FFF090006E
:100DE0002DE034FFF08002C203C20BA20C92EAD2C3
:100DF000B9D2BD22C2B9C2BDD20BD2EAF1B88F2797
:100E0000E52730E634D204F1E8EF24FF9205121210
:100E10003290005DE0B40121900011E0FF90005697
:100E2000E0FE2429F582E43400F583EFF0EEC3946C
:100E3000025006900056E004F0E52720E40330E578
:100E40001CF1DFEF04F524900028E0C39524F09016
:100E50000059E02524F0900058E03400F0E5272008
:100E6000E502E10690005DE064016002E106D20A5D
:100E7000900027E0241275F004A4FF900042E02FB8
:100E8000FF900041E035F0FEC3900040E09FFF90EE
:100E9000003FE09EFEE52730E60874D82FFF74FF80
:100EA0003EFE12070712120712123290002FE0F5D1
:100EB00025A3E0F52690004BE0FFA3E090002DCFA6
:100EC000F0A3EFF0E526640245256010E5266403F3
:100ED00045256008E526640445257002D203F1F13A
:100EE000EF6006D20091B4801D121149E490001207
:100EF000F0A3F0900058F0A3F0D2EAD2E8D20C7F31
:100F00000AFEF1A9C2E8E52720E402E194C2E8A2C2
:100F10000B92EAC20C900013E02524F0900012E03E
:100F20003400F0900031E0F525A3E0F526E52645F4
:100F300025600FC3900013E09526900012E09525E0
:100F4000500330090491B4804B900028E0703E902B
:100F5000004DE0FEA3E0FFD3900055E09F900054C9
:100F6000E09E400DE490002DF0A3F0C2037F0180CD
:100F700017300312121000D3EF9401EE94004002D8
:100F8000C2067F0280027F03121092800712110AAC
:100F9000F19FC2E8C20BA20C92EAD2B9D2BD22D212
:100FA000EAD2E8D20C7F0A7E000000000000EF1FAA
:100FB00070011E144E70F222710DEF5470F5287FEF
:100FC000077171EF540F4228AF2822E4F51EEF5449
:100FD0007FFFE51E54804FF51EAD1E7F0561117F1A
:100FE000087171EF540FFF227F097171EF5401FFF7
:100FF000227F177171EFC45401FF227F080212E3B0
:10100000900037E07002A3E0600FD390005CE094A2
:101010000090005BE094004004E4FEFF2290002575
:10102000E0FCA3E0FD4C7003FEFF22C390003EE015
:101030009DFF90003DE09CFE2290005DE0B4010A1F
:10104000D20990005DE0601280F890005DE0B4028B
:10105000091207D3120CB412003822EFD3940040C7
:1010600005900010EFF0900010E0FFC433333354CC
:1010700080FEEFC4333354806206E0FFC4335480F3
:101080006206EF54806206E0C3134EF08DF084AF29
:10109000F0228F183149310AE51814601014601AD3
:1010A00014601D8000900014E0F519802790002C3A
:1010B000E0FDE4FF115B8F19801A315B8F198014FA
:1010C000900014E004F51990002CE0FFE5198FF072
:1010D0008485F019900014E065196020E519F0E0AE
:1010E0002415F582E43400F583E0FF120FCB900065
:1010F00055E004F07006900054E004F0300303D291
:101100000822D206120F9FC2E822900028E0D39452
:101110000F40087DFA7C007F0F800C900028E0C310
:101120009401FF7DFA7C00AB07EC540FC454F0FF30
:10113000E51D540F4FF51DEB540FFFE51D54F04F07
:10114000F51DAD1D7F04020B1130030590003380A7
:1011500003900035A3E0900028F022D390005CE0DB
:10116000940190005BE09400400690005AE0FF225A
:10117000900057E004FF90002CE0FEEF8EF084AF6B
:10118000F022AE071FEED3940040157C007D2DEDBC
:101190001DAA0470011CD39400EA940040E480EF7F
:1011A00022D390005CE0940090005BE09400400C3F
:1011B000A3E024FFF090005BE034FFF0900026E015
:1011C0002401FF900025E03400FE90003DE0FCA3E8
:1011D000E0FD120456900025ECF0A3EDF0900037EE
:1011E000E07002A3E0600A900025E07002A3E070C6
:1011F00015900057E004FF90002CE0FEEF8EF08485
:10120000900057E5F0F022900014E0900057F0E4D1
:10121000900025F0A3F022D390005CE094009000B1
:101220005BE09400400690005AE0FF22900057E0F7
:10123000FF22900043E0FFA3E090005BCFF0A3EF1C
:10124000F0900014E090005AF022900037E0700215
:10125000A3E0600FD390005CE0940090005BE0940A
:10126000004004E4FEFF22900025E07002A3E0703D
:1012700003FEFF22900035E0FEA3E0FF7C017DDC51
:1012800012044490003FE0FCA3E0FD120456AB07BB
:10129000AA0690002CE0FF7E00AD03AC02120444CD
:1012A000D3900026E09F900025E09E5016E0FEA31C
:1012B000E0FF120456C3EB9DFFEA9CCF24FFCF341E
:1012C000FFFE22900025E0FEA3E0FFC390003EE079
:1012D0009FFF90003DE09EFE228FE7E5E630E1FBB8
:1012E000AFE7228F578B588A59895A755F01855805
:1012F0005DE55714600C24FB600824FE601424088C
:10130000702A1207F48F5B8F5CC2E9E557240AFF4D
:10131000801691168F57E557C39407500F1200643B
:101320008F5B8F5CC2E97F6151D98005E4F55CF584
:101330005BE55D7027855A60E4F5E7E55F7008A816
:1013400060A65E05608003E4F55FE5E6540260FA9E
:1013500085E75ED55BE2A860A65E810DE55D640170
:10136000703A855960855A61E4F5E7E55F70138549
:101370006182856083E55EF00561E561700205606C
:101380008003E4F55FE5E6540260FA85E75ED55B2D
:10139000D7856182856083E55EF08071E55D64FEDE
:1013A0007029855A60E4F5E7E55F7009A860E55E9D
:1013B000F205608003E4F55FE5E6540260FA85E734
:1013C0005ED55BE1A860E55EF28042855860855994
:1013D00061855A62E4F5E7E55F7018AB60AA61A920
:1013E00062E55E12041074012562F562E43561F570
:1013F000618003E4F55FE5E6540260FA85E75ED5B7
:101400005BD2AB60AA61A962E55E120410D2E9E585
:1014100057FEE55CFF229123EF540EFFE4C313EF68
:1014200013FF22C2E97FFF51D9D2E922EF25E05410
:1014300006FFE5B354F94FF5B322C2E97FE251D973
:10144000D2E922C2E97FE151D9D2E922EF6009E570
:10145000A3448054F7F5A32253A37722E5AD7F017F
:1014600030E3027F0222EF5407FFE5AD54F84FF559
:10147000AD22E4F549EF24FE5403FFE54954FC4F47
:10148000F549AD497F03020B117F17120B71EF5421
:1014900001FF227F17120B71EFC4135401FF22EFDB
:0B14A000543FF549AD497F1C020B11C1
:00000001FF
