:1000000002077D50009A04192A3F4D0000000000AD
:100010000000000000004500D40104070A0D410063
:1000200095FF4100DC004100DF004200E00000429B
:1000300000AA000000D2B9D2BDC20BA20C92EA22E3
:10004000120F6C120FCF80EDAFD722021800000400
:1000500006080A32536601172D391A440C400D491F
:100060000D3E1A2D0C4D7F6002175C020BF102034E
:10007000B6E86480F8E933E83360110460F0ED33EA
:10008000EC337009E8FCE9FDEAFEEBFF220460DED8
:10009000D3EB9FEA9EE99DE8C2E78CF0C2F795F0AA
:1000A000400CE8CCF8E9CDF9EACEFAEBCFFB12032D
:1000B0008185D0F05804700320D5B3E80470075050
:1000C00002B2D50203C092D5EC0460F7E4CCC0E0E4
:1000D000C398F8603B94186008400DD0E0FB020321
:1000E00098E4FBFAC9FC8028E830E406E4C9FBE4A4
:1000F000CAFCE830E305E4C9CACBFCE85407601049
:10010000F8C3E913F9EA13FAEB13FBEC13FCD8F18B
:1001100030F52FC3E49CFCEF9BFFEE9AFEED99FDBA
:10012000D0E0FBEF4E4D4C701222DB030203BDEC1E
:100130002CFCEF33FFEE33FEED33FDED30E7EB0249
:100140000398EF2BFFEE3AFEED39FDD0E0FB5013A4
:100150000BBB00030203C0ED13FDEE13FEEF13FF14
:10016000EC13FC020398EC4D6011E8497017ED3375
:10017000EC3304600DE4FCFFFEFD22E933E83304B8
:1001800070F80203B612038158046009E4CC24819C
:1001900050062850090203C02840030203BDC0E0F6
:1001A000EB4A7044B98006D0E0FB0203ACEF4E701E
:1001B0001CBD8008EBFFEAFEE9FD80EBE98DF0A4B1
:1001C000FEE5F002024FE9CDF9EAFEEBFFEF89F020
:1001D000A4FCE5F0CE89F0A42EFFE435F0CD89F043
:1001E000A42DFEE435F08067EF4E7005BD80D7800A
:1001F000C3EF8BF0A4ACF0EE8BF0A42CFCE435F054
:10020000F8EF8AF0A42CE5F038FCE433CB8DF0A4B1
:100210002CFCE5F03BF8EE8AF0A42CFCE5F038F875
:10022000E433CF89F0A42CFCE5F038CF3400CE893C
:10023000F0A42FFFE5F03EFEE433C98DF0A42EFEBE
:10024000E5F039CD8AF0A42FFFE5F03EFEE43DFD58
:1002500033D0E0FB50070BBB000F0203C0EC2CFCBB
:10026000EF33FFEE33FEED33FD0203980203C0ECE3
:100270005D046005E8590470030203B61203815857
:100280000460F6EC4860F2EC7004FDFEFF22C860EA
:10029000DB2481C85009C398600250060203BD9850
:1002A00050CAF582E9294B4A7005AB820203AC754E
:1002B000F0007C1A7880C3EF9BEE9AED99400DC355
:1002C000EF9BFFEE9AFEED99FDE842F0DC23ACF0E7
:1002D000D0E0FFD0E0FED0E0FDAB8220E7101BEBCA
:1002E00060BAEC2CFCEF33FFEE33FEED33FD02037E
:1002F00098E803F830E705C0F075F000EF2FFFEE47
:1003000033FEED33FD40B830E7C280AA75F020809F
:100310000E75F010800575F0087D007E007F0033BB
:1003200092D530D50312050BEC334010EF33FFEEBE
:1003300033FEED33FDEC33FCD5F0ED22E5F0247E09
:10034000A2D513CC92E7CDCEFF22EDD2E7CD33EC90
:100350003392D524814006E4FFFEFDFC22FCE4CF6D
:10036000CECDCC24E0501174FF80EDC3CC13CCCDA6
:1003700013CDCE13CECF13CF0470F030D5DE0205EF
:100380000BE9D2E7C933E833F892D5EDD2E7CD33A4
:10039000EC33FC5002B2D522EC30E7100FBF000C5A
:1003A0000EBE00080DBD00040BEB6014A2D5EB13CC
:1003B000FCED92E7FD2274FFFCFDFEFF22E480F8D5
:1003C000A2D574FF13FC7D80E480EFBB0106898217
:1003D0008A83E0225002E722BBFE02E32289828A5E
:1003E00083E49322BB010CE58229F582E5833AF58B
:1003F00083E0225006E92582F8E622BBFE06E925C5
:1004000082F8E222E58229F582E5833AF583E493D6
:1004100022BB010FF8E58229F582E5833AF583E0F6
:1004200028F0225009C58229F8E58226F622BBFE73
:1004300009C58229F8E22582F222F8EA2583F583AC
:10044000E9932822BB010689828A83F0225002F7B1
:1004500022BBFE01F322F8BB010DE58229F582E5FE
:10046000833AF583E8F0225006E92582C8F622BBDC
:10047000FE05E92582C8F222EF8DF0A4A8F0CF8C0A
:10048000F0A428CE8DF0A42EFE22BC000BBE0029C5
:10049000EF8DF084FFADF022E4CCF875F008EF2F7B
:1004A000FFEE33FEEC33FCEE9DEC984005FCEE9D38
:1004B000FE0FD5F0E9E4CEFD22EDF8F5F0EE842054
:1004C000D21CFEADF075F008EF2FFFED33FD4007B5
:1004D000985006D5F0F222C398FD0FD5F0EA22C558
:1004E000F0F8A3E028F0C5F0F8E582158270021557
:1004F00083E038F022A3F8E0C5F025F0F0E582159E
:100500008270021583E0C838F0E822C3E49FFFE45C
:100510009EFEE49DFDE49CFC22E3F5F009E208B5B3
:10052000F06BDFF58067E3F5F009E608B5F05EDF14
:10053000F5805A87F009E608B5F052DFF6804E875D
:10054000F009E208B5F046DFF6804288828C8387A6
:10055000F009E0A3B5F036DFF6803288828C83871D
:10056000F009E493A3B5F025DFF5802188828C8320
:10057000E3F5F009E0A3B5F014DFF5801088828C74
:1005800083E3F5F009E493A3B5F002DFF402063447
:10059000808780E9809080D4803480158064807466
:1005A000809D80B7808D80A38047806A803202065C
:1005B0004088848C8589828A83E493F5F0A3059230
:1005C000E493A31592B5F06CDFEFDEED80668982CF
:1005D0008A83E493F5F0A3E208B5F058DFF4805481
:1005E00089828A83E0F5F0A3E608B5F047DFF5805D
:1005F0004389828A83E0F5F0A3E208B5F036DFF59F
:10060000803289828A83E493F5F0A3E608B5F0246A
:10061000DFF480208002804388848C8589828A83ED
:10062000E493F5F0A30592E0A31592B5F006DFF090
:10063000DEEE80007FFFB5F0020F2240027F012234
:1006400088848C8589828A83E0F5F0A30592E0A3F3
:100650001592B5F0DFDFF1DEEF80D988848C8589D3
:10066000828A83E0F5F0A30592E493A31592B5F096
:10067000C3DFF0DEEE80BD88F0EF60010E4E60BF9C
:10068000ED2402B4040050ACF582EB2402B4040063
:1006900050A2232345822390059073E709F608DFD3
:1006A000FA8046E709F208DFFA803E88828C83E709
:1006B00009F0A3DFFA8032E309F608DFFA806EE37F
:1006C00009F208DFFA806688828C83E309F0A3DFF1
:1006D000FA805A89828A83E0A3F608DFFA804E897D
:1006E000828A83E0A3F208DFFA804280D280FA8017
:1006F000C680D4805580F28029801080A680EA8050
:100700009A80A880DA80E280CA802988848C8589D2
:10071000828A83E493A30592F0A31592DFF5DEF3BA
:10072000800B89828A83E493A3F608DFF9ECFAA9A7
:10073000F0EDFB2288848C8589828A83E0A3059270
:10074000F0A31592DFF6DEF480E389828A83E493D6
:10075000A3F208DFF980D688F0EF60010E4E60CD7D
:1007600088F0ED2402B4040050C3F582EB2402B4F7
:10077000040050B923234582239006EB73787FE46D
:10078000F6D8FD7581210207C4020939E493A3F864
:10079000E493A34003F68001F208DFF48029E49398
:1007A000A3F85407240CC8C333C4540F4420C8838F
:1007B0004004F456800146F6DFE4800B0102040891
:1007C00010204080900003E47E019360BCA3FF549E
:1007D0003F30E509541FFEE493A360010ECF54C0DF
:1007E00025E060A840B8E493A3FAE493A3F8E49367
:1007F000A3C8C582C8CAC583CAF0A3C8C582C8CA6F
:10080000C583CADFE9DEE780BE637C777BF26B6F6E
:10081000C53001672BFED7AB76CA82C97DFA59472E
:10082000F0ADD4A2AF9CA472C0B7FD9326363FF7BB
:10083000CC34A5E5F171D8311504C723C31896054A
:100840009A071280E2EB27B27509832C1A1B6E5AA5
:10085000A0523BD6B329E32F8453D100ED20FCB145
:100860005B6ACBBE394A4C58CFD0EFAAFB434D331D
:100870008545F9027F503C9FA851A3408F929D3837
:10088000F5BCB6DA2110FFF3D2CD0C13EC5F974420
:1008900017C4A77E3D645D197360814FDC222A90E6
:1008A0008846EEB814DE5E0BDBE0323A0A490624D5
:1008B0005CC2D3AC629195E479E7C8376D8DD54EB3
:1008C000A96C56F4EA657AAE08BA78252E1CA6B44F
:1008D000C6E8DD741F4BBD8B8A703EB5664803F6D3
:1008E0000E613557B986C11D9EE1F8981169D98E00
:1008F000949B1E87E9CE5528DF8CA1890DBFE64267
:100900006841992D0FB054BB168D010204081020C8
:1009100040801B360205080B0E0004FFFFFFFFFF9F
:10092000FF0001003FFFFFFFFFFFFFFFFFFFFF0092
:100930003F00030001FFFFFFFFE4900017F0A3F06A
:10094000121000121095121FB9D2AFE580F490007A
:100950001AF0900017E0600D7B017A00791A7D0D86
:10096000121CCB80187B017A00791A9000797402EE
:10097000F07D1B12123AF145EF70FBF1B0900018B8
:10098000EFF0900017E07F0070027F01900017EFFA
:10099000F0A3E07009519D31AD900019EFF0900087
:1009A00019E070A731AD900019EFF0809E90011B07
:1009B000E070369000357402F07B017A0079367D64
:1009C00005121BF57B017A0079359000747401F0F3
:1009D0000DD1B2EF700241957B017A007936F1E1D9
:1009E00090011B7401F07F00229000357403F07BAE
:1009F000017A007936121F92E4FFF1B69000667416
:100A000001F0A37400F0A37436F0A37403F07B012B
:100A10007A007936121DEA9000677401F0A3740021
:100A2000F0A3743BF0A3E4F0A3F0A3F0A304F0FB65
:100A30007A0079357D04D1CAEF705A90003BE064AA
:100A40000970527B0190006604F0A37400F0A37457
:100A50003CF0A37409F07A00793C121DEA7B017A1C
:100A600000793C122385EF602490003FE01460057C
:100A7000147014800D7B017A0079401220D07F0120
:100A8000917DE490011BF090003FE0FF22E4900193
:100A90001BF07F0222E490011BF07F0322E4900010
:100AA00036F0F145EF600261947F01915790005557
:100AB000EEF0A3EFF07F0C9157900053EEF0A3EF10
:100AC000F0E4FF9157900057EEF0A3EFF07DC87C63
:100AD000007F01719AE4FDFC7F0C719AE4FDFCFF3C
:100AE000719AF137E4900037F0900035F07B01D136
:100AF000A7EF600C900035E004F0E0C3946440ED93
:100B00007FC87E00913B9000377401F0FBD1A7EFC6
:100B1000604D900073E4F0A3F0A3F0F9A3C9F0A333
:100B2000F0A3E9F07B017A0079381223B4EF603545
:100B3000900038E06408702D78177C017D017B01FE
:100B40007A007939FE7F041207577B017A007939E0
:100B5000122000E4FF917D9000367401F080067F42
:100B60002C7E01913B7F5E7E01913BF1371200406C
:100B7000900055E0FCA3E0FD7F01719A900053E0E6
:100B8000FCA3E0FD7F0C719A900057E0FCA3E0FD10
:100B9000E4FF719A900036E0FF22AE07F16CEEC3DD
:100BA0009410504AEE25E024B4F582E43400F58335
:100BB000ECF0A3EDF0EE24FB603224FD602524FC74
:100BC0006025146012240D7025ED4C6006ED640163
:100BD0004C701BC2038017ED64014C7011FF12149E
:100BE000D2800BD20A80071217768002D20202004E
:100BF00035C0E0C0F0C083C082C085C084C09253BD
:100C000092FEC0D075D000C000C001C002C003C0B9
:100C100004C005C006C0071214EED007D006D005E8
:100C2000D004D003D002D001D000D0D0D092D08454
:100C3000D085D082D083D0F0D0E032AD07AC06E4CE
:100C4000FBFAC3EB9DEA9C500D7FF07E03F1550B40
:100C5000BB00010A80EC22AE07F16CEEC394105089
:100C600015120035EE25E024B4F582E43400F58356
:100C7000E0FEA3E0FF22120035E4FEFF22E4900034
:100C80005AF0A3F0EF7002A1A3E4900059F0900095
:100C900059E0FDC3940E5042D166785D7C007D0121
:100CA0007A0179177E007F04120677EF702478614D
:100CB0007C007D017B017A017912FE7F05120677A7
:100CC000EF700F90005A04F0900059E090005CF033
:100CD0008008900059E004F080B490005AE0705E03
:100CE000900059F0900059E0FDC3940E5050D16629
:100CF000785D7C007D017A0179177E007F04120601
:100D000077EF70327B017A0079617D05F17FEF60CA
:100D10002578617C007D017B017A0179127E007F5C
:100D200005120757900059E090005CF090005A744B
:100D300001F0A3F08008900059E004F080A6900034
:100D40005AE06002C12D900059F0900059E0FDC3B7
:100D5000940E4002C12DD1667A00795D7D09F17F44
:100D6000EF6038785D7C007D017B017A0179177E28
:100D7000007F0412075778617C007D017B017A01B6
:100D800079127E007F05120757900059E090005CB1
:100D9000F090005A7401F0A3F0C12D900059E004C6
:100DA000F080A7E4900059F0900059E0FDC3940E44
:100DB000502DD166785D7C007D017A0179177E0027
:100DC0007F04120677EF700F90005A04F0900059DC
:100DD000E090005CF08008900059E004F080C99039
:100DE000005AE07048900059F0900059E0FDC3941B
:100DF0000E503AD1667A00795D7D04F17FEF60256F
:100E0000785D7C007D017B017A0179177E007F048B
:100E100012075790005A7401F0A3F0900059E09027
:100E2000005CF08008900059E004F080BC90005B0A
:100E3000E0600C7B017A00795DA3E0FD1223159040
:100E4000005AE0601E122159EF7018122187AE0778
:100E500090005CE0FF6E600BEF640E60061221B83C
:100E60007F01227F00227B017A00795DED75F00918
:100E7000A42400FFE5F034FCFE90006BE4F0A374C2
:100E800009F090006B74FFF5F01204F545F0601660
:100E90008F828E83E01204440FBF00010E7401297B
:100EA000F9E43AFA80DC227A007937E4900074F0B1
:100EB0007D01900074E0900079F012123AEF600723
:100EC000F145EF70FBE1B07F0022F13790006E74C6
:100ED00001F090006DE0900074F0D1B2EF6052909C
:100EE000006E7402F0F13790006F7407F07F0A7E95
:100EF00000913B7B017A00796F90006DE0D1AC905E
:100F0000006AE0F9A3E0FAA3E0900073C9F0A3EA55
:100F1000F0A3E9F0A3E4F0A3F0A3F0900067E0FBF6
:100F2000A3E0FAA3E0F91223B4EF6005E490006EA9
:100F3000F090006EE0FF22F16CF1BCE49000DBF079
:100F4000C2040200359000E2E0FF22D2EAD2E8D2E9
:100F50000C7F0A7E000000000000EF1F70011E14CD
:100F60004E70F222EBF0A3EAF0A3E9F0A2AFE43373
:100F7000C2AFC2B9C2BDD20BD2EA24FF92AF229057
:100F80000066EBF0A3EAF0A3E9F0E4FFEFC39D50A5
:100F90001C900066E0FBA3E475F0011204F5A9F0D3
:100FA000FA1203CBF460037F00220F80DF7F01225F
:100FB000A200E433FF229000F5EFF022C2E97FE2C5
:100FC000F1C5D2E9228FE7E5E630E1FBAFE722C2C7
:100FD000E97FE1F1C5D2E922C2E97FFFF1C5D2E99B
:100FE0002278F07C007D017E007F05020757F1D852
:0B0FF000EF540EFFE4C313EF13FF22C9
:101000007F02111C7F0311287F0111361112BF02CC
:10101000FB22E5AD7F0130E3027F0222EF5407FFA0
:10102000E5AD54F84FF5AD22EF25E05406FFE5B3EA
:1010300054F94FF5B322EF6009E5A3448054F7F566
:10104000A32253A37722AD07AC06E4FF71A60F716C
:10105000A6E4120311E4FBFAF978471201667B005B
:101060007A247974784912026FE4FBFAF9783F1216
:10107000007512034AAC06AD07EF24FFFFEE34FF04
:10108000FEE5B35406FD53B3F9EFF5B4EEF5B5AF95
:1010900005EF42B32278357C007D017BFF7A097928
:1010A000147E007F05120757120F6CC2E8A20B9244
:1010B000EAC20C7F01F1C77F011228957FFF122839
:1010C00087E4900099F09000B17405F0C209C20A5B
:1010D000E4900096F0C208D201D202C206D200907B
:1010E00000B2F0A3F0C203C204C2059000DBF07BA3
:1010F000017A0079D4FF31EC7B017A0079357F01E8
:1011000031EC9000357403F07B017A0079357F0271
:1011100031EC9000357404F07B017A0079357F035F
:1011200031EC9000357405F07B017A0079357F044D
:1011300031EC9000357406F07B017A0079357F053B
:1011400031EC900099E0249AF582E43400F583E0D4
:10115000FFD14DE49000B4F0A3F0A304F0A374F425
:10116000F0A3E4F0A37402F0A3E4F0A37423F0E48A
:10117000A3F0A3F0A3F0A3743FF0E49000CAF0A39F
:10118000F09000C0F0A3F0A3F0A37464F0A3740384
:10119000F0A374F0F0A37401F0A37468F0A3E4F07A
:1011A000A37402F09000CCE4F0A37403F0E4A3F085
:1011B000A3F0A3F0A37496F0A3E4F0A37432F0F1CB
:1011C000767F011228487F021228007F051227D45B
:1011D0001227C8120FBC120FCF7FF07E031146D129
:1011E0001C0200357B017A0079D4E4FF900083EB88
:1011F000F0A3EAF0A3E9F0900082EFF014600A2473
:10120000FB5020600424067030121FC990008AEF42
:10121000F0900082E0242AFFA3E0FBA3E0FAA3E021
:10122000F961C6900082E0240AFFA3E0FBA3E0FA84
:10123000A3E0F91203CBFDD18022900075EBF0A35F
:10124000EAF0A3E9F0A3EDF06007E0FED3941B40C1
:10125000037F00229000ACEEF09000E2E0B40203C5
:10126000122692120F6C900096E0FF900079E0FE3B
:101270006F6007900096EEF0D2019000E2E060020D
:10128000618F200102611AC201D202FFF19B7D0130
:10129000E4FFD1CE900079E0700E7B017A0079D422
:1012A0007F0631EC31E480727B017A00797A7F012C
:1012B000122641900081EFF0900079E0FF64016018
:1012C0003BEF24FD601214601914602080007B0144
:1012D0007A00797A7F02801C7B017A00797A7F0319
:1012E00080127B017A00797A7F0480087B017A0082
:1012F000797A7F05122641900081EFF07B017A0018
:10130000797AE4FF31EC7B017A00797A7F0631EC5F
:10131000900079E0FF7D01121B83E4900097F0A319
:10132000F09000D9F0A3F09000DDF0A3F0120FCF01
:1013300071B1C2009000B4E0FFA3E090007FCFF055
:10134000A3EFF07F0191D230031D90007FE0FEA358
:10135000E0FFEE700AEF24FD600714600680008055
:101360001A801C7F02801A90007FE0FEA3E0FFEE4F
:10137000700DEF24FE600424027004E4FF80027FFD
:1013800001121A659000E27401F0120035FF22206C
:10139000010E1227EBEF700871B11200357F0122A8
:1013A0001200357F0022EF600443B3012253B3FEE5
:1013B00022900075E0FBA3E0FAA3E0F9A3E0FD9022
:1013C000008AEDF07FA0900087EBF0A3EAF0A3E99C
:1013D000F0900087E0FDC2E98FE7ED7029A3A3E05C
:1013E00090008CF090008CE0F8E6FEE004F0E5E67A
:1013F000540260FA90008BE5E7F08EE790008AE0F7
:1014000014F070E081C3ED64017043900087A3E0A5
:10141000FBA3E090008CCBF0A3EBF090008CE0FEFF
:10142000A3E0F5828E83E0FE90008DE004F070066C
:1014300090008CE004F0E5E6540260FA90008BE541
:10144000E7F08EE790008AE014F070CF8075ED64CD
:10145000FE702C900087A3A3E090008CF090008C8D
:10146000E0F8E2FEE004F0E5E6540260FA90008B5A
:10147000E5E7F08EE790008AE014F070E080449099
:101480000087E0F9A3E0FAA3E090008CC9F0A3EA9A
:10149000F0A3E9F090008CE0FBA3E0FAA3E0F912DE
:1014A00003CBFE90008DE475F0011204DFE5E654F5
:1014B0000260FA90008BE5E7F08EE790008AE01476
:1014C000F070D1E5E6540260FA90008BE5E7F0D2C7
:1014D000E922EF60122007157F01D1A27F03AE073A
:1014E0001FEE70FAD20722E4FFD1A2C20722C2B9CE
:1014F000C2BD1226D3300A0C9000C4E0FEA3E0FF68
:101500001146C20A9000E2E064026002A1BDD1610E
:101510007E00900010EEF0A3EFF0D20BD2EA900024
:1015200099E06F7001E46029C2E8A20B92EAC20C54
:10153000900010A3E0249AF582E43400F583E0FFE4
:10154000D14DD2EAD2E8D20C900010A3E0900099DD
:10155000F0122739900010EEF0A3EFF0122739EFC8
:101560004E700E7F0191D2D206D2EAD2E8D20C8020
:101570000EC2E8A20B92EAC20CC206E4FF91D2901E
:101580000098E004F07006900097E004F09000C02E
:10159000E0FEA3E0FF900010EEF0A3EFF0D3940084
:1015A000EE9400404D900010E0FEA3E0FF90009804
:1015B000E09F900097E09E4039D11C80359000E27A
:1015C000E06401702D30082A121BBC900010EEF070
:1015D000A3EFF0300313900010E07002A3E070124C
:1015E000D161900099E0B50709120F4BC2E8D2060D
:1015F000C208D39000B3E094009000B2E0940040A1
:101600000EA3E024FFF09000B2E034FFF08002C2AD
:1016100003C20BA20C92EAD2B9D2BD22C2E8A20B3D
:1016200092EAC20C9000E2E0B402057F0F1226B4E9
:101630009000CEE07004A3E064017003FF80027F9D
:101640000191D2C206C209E49000E2F022E49001C6
:1016500025F0EF547FFFE054804FF0E0FD7F0580E0
:101660001FD39000E1E094009000E0E09400400679
:101670009000DFE0FF229000DCE0FF22E0FD7F022F
:10168000C2E9EF2420F5E7E5E6540260FAAFE7AEE1
:10169000058EE7E5E6540260FA900126E5E7F0D210
:1016A000E922900122EFF0E4FFF15C900123EFF0DA
:1016B000900122E0B40107A3E04402F0800790010A
:1016C00023E054FDF0900123E0FDE4FF80B29000A0
:1016D00082EFF0A3EDF07F02F15C900084EFF07FE9
:1016E00001F15C900085EFF0900082E0FF24FA5059
:1016F000062407603C80537401A807088002C333A6
:10170000D8FCFD900084E04DF0900083E0600890EC
:101710000085E04DF08033900082E0FF7401A8075F
:10172000088002C333D8FCF4FF900085E05FF080AE
:1017300019900084743FF0900083E0600890008569
:10174000743FF08005E4900085F0900084D17C9097
:101750000085E0FD7F01C180EFF07F06C2E98FE7E1
:10176000E5E6540260FAAFE7E4F5E7E5E654026027
:10177000FAAFE7D2E9229000CCA3E0FF900059F144
:101780005890005AEFF0900059E0540325E0FFA371
:10179000E054F94FF0E0FD7F06C180900082EFF049
:1017A000E4FFF15C900083EFF0900082E0B4010769
:1017B000A3E04401F08007900083E054FEF0900025
:1017C00083E0FDE4FFC18090003AEFF07F1DF15C03
:1017D00090003BEFF090003AE07F0060027F01EF65
:1017E000540125E0FF90003BE054FD4FF0E0FD7F09
:0917F0001DC1809000B1E0FF2250
:10180000C0E0C0F0C083C082C085C084C092539243
:10181000FEC0D075D000C000C001C002C003C0042B
:10182000C005C006C0071149D007D006D005D004B6
:10183000D003D002D001D000D0D0D092D084D085B7
:10184000D082D083D0F0D0E032C2B9C2BDD20BD2A8
:10185000EA7138900015EFF030E633D2047113EFDF
:1018600024FF9205510F9000E2E0B4012190009610
:10187000E0FF9000DBE0FE24AEF582E43400F58367
:10188000EFF0EEC3940250069000DBE004F090000D
:1018900015E0FF20E40330E51E7109EF04FF90001E
:1018A00012F0FD9000ADE0C39DF09000DEE02FF05F
:1018B0009000DDE03400F0900015E0FD20E502210D
:1018C000689000E2E0640160022168D20A9000ACF6
:1018D000E0241275F004A4FF9000C7E02FFF9000F1
:1018E000C6E035F0FEC39000C5E09FFF9000C4E065
:1018F0009EFEED30E60874D82FFF74FF3EFE1210F6
:10190000467128510F9000B4E0FEA3E0FF90001351
:10191000EEF0A3EFF09000D0E0FDA3E09000B2CD98
:10192000F0A3EDF0EF64024E6013900013E0FEA30D
:10193000E0FF64034E6006EF64044E7002D2037150
:101940001DEF6007D20012161C801D51F7E49000B5
:1019500097F0A3F09000DDF0A3F0D2EAD2E8D20C29
:101960007F0AFE120F55C2E8900015E020E4024104
:1019700004C2E8A20B92EAC20C900012E0FF9000B1
:1019800098E02FF0900097E03400F09000B6E0FE71
:10199000A3E0FF900013EEF0A3EFF04E601590006F
:1019A00013E0FEA3E0FFC3900098E09F900097E053
:1019B0009E500330090512161C80499000ADE0705E
:1019C0003C9000D2E0FEA3E0FFD39000DAE09F90CD
:1019D00000D9E09E400DE49000B2F0A3F0C2037F76
:1019E00001801630031171BCD3EF9401EE940040D6
:1019F00002C2067F0280027F0351658007512712D1
:101A00000F4BC2E8C20BA20C92EAD2B9D2BD22900F
:101A100000C8E0FFA3E09000E0CFF0A3EFF090005B
:101A200099E09000DFF0229000ADE0D3940F4008E1
:101A30007DFA7C007F0F800C9000ADE0C39401FF25
:101A40007DFA7C00AB07EC540FC454F0FF900124E6
:101A5000E0540F4FF0EB540FFFE054F04FF0E0FD77
:101A60007F04021680900120EFF051F7512790017A
:101A700020E014601214601F14602580009000990B
:101A8000E0900121F080339000B1E0FDE4FF71832C
:101A9000900121EFF08023715C900121EFF0801A1A
:101AA000900099E004900121F0E0FF9000B1E0FE89
:101AB000EF8EF084900121E5F0F0900099E0FF9026
:101AC0000121E0FE6F6022900099EEF0E0249AF58B
:101AD00082E43400F583E0FF12164D9000DAE00452
:101AE000F070069000D9E004F0300303D20822D24F
:101AF00006120F4BC2E8223003059000B880039015
:101B000000BAA3E09000ADF0227F0812175CEF54FA
:101B10000FFF227F0912175CEF5401FF227F17127B
:101B2000175CEFC45401FF22900099E09000DCF0B4
:101B3000E49000AAF0A3F0227D707F07121680EFD8
:101B40005470900016F0E0FFC0077F0712175CEF9B
:101B5000540FFED0E04EFF900016F022D39000E12B
:101B6000E094019000E0E0940040069000DFE0FF88
:101B7000229000DCE004FF9000B1E0FEEF8EF084E4
:101B8000AFF022EFD394004005900095EFF0900065
:101B900095E0FFC43333335480FEEFC433335480B5
:101BA0006EFEE0FFC43354806EFEEF54806EFEE0A4
:101BB000C3134EF0AE058EF084AFF0229000BCE06F
:101BC0007002A3E0600FD39000E1E094009000E089
:101BD000E094004004E4FEFF229000AAE0FCA3E0B1
:101BE000FD4C7003FEFF22C39000C3E09DFF9000F8
:101BF000C2E09CFE22900054EBF0A3EAF0A3E9F0CF
:101C00007F01912CE4FEEEC39D501FF1E0EF60FBDD
:101C1000120048900054E0FBA3E475F0011204F5B3
:101C2000A9F0FAEF1204440E80DCE4FFEF600443F5
:101C3000D6802253D67F229000397404F09000673A
:101C40007401F0A37400F0A3744AF0A3E4F0A3F0CD
:101C5000A3F0A304F0FB7A007939FD120ECAEF70ED
:101C60006790004AE0640A705F7B017A00794B124A
:101C70000FE19000397405F07B017A00793AF19216
:101C80007B017A00793D7D0D71F57B017A00793D0C
:101C9000F1D37F01120FB69000667401F0A37400B7
:101CA000F0A3743AF0A37410F07B017A00793AB192
:101CB000EA7B017A0079399000747401F07D111289
:101CC0000EB2EF60037F01227F0022900035EBF01F
:101CD000A3EAF0A3E9F0A3EDF0D3940D5031900006
:101CE00035E0FBA3E0FAA3E0F9A3E0FDB112EF6059
:101CF000037F012290011BE070129137900035E0C4
:101D0000FBA3E0FAA3E0F9A3E0FD80067F00227FB9
:101D10000022900039EBF0A3EAF0A3E9F0A3EDF084
:101D20002404900062F090003D7406F07B017A007C
:101D3000793EF19290003CE0FF7E0078417C007D8E
:101D400001900039E0FBA3E0FAA3E0F912075790F5
:101D5000011BE06004E4FF80027F02120FB69000D6
:101D6000667401F0A37400F0A3743EF0900062E08A
:101D700014900069F07B017A00793EB1EA9000622C
:101D8000E0FD9000677401F0A37400F0A37458F0B4
:101D9000A3E4F0A3F0A3F0A304F0FB7A00793D12D2
:101DA0000ECAEF7042900058E0640B703A7B0190CD
:101DB000006604F0A37400F0A3745EF0A37403F053
:101DC0007A00795EB1EA7B017A00795E122385EFB1
:101DD000601290011BE070097B017A007959120FA3
:101DE000E17F01227F00227F0022900063EBF0A3BD
:101DF000EAF0A3E9F09000F5E014601914603424CF
:101E0000027056786A7C007D017BFF7A0079567EED
:101E1000007F108041786A7C007D017BFF7A007929
:101E2000567E007F101207577B017A00796A1222D2
:101E3000EB8026786A7C007D017BFF7A0079567EF4
:101E4000007F10120757786A7C007D017B017A00C1
:101E500079E37E007F0D120757E4FFEFC39405502E
:101E60001A74F02FF582E43400F583E0FE747A2FC3
:101E7000F582E43400F583EEF0800C747A2FF5825D
:101E8000E43400F583E4F00FEFB410CF90008FE45A
:101E9000F0A3F0A3F07B017A00796A7D04FFF15191
:101EA00090008D7401F0A37400F0A3747AF07B01AC
:101EB0007A00F91228C5900066E0F9A3E0FAA3E0E1
:101EC00090008DC9F0A3EAF0A3E9F0A37401F0A398
:101ED0007400F0A3747AF0900069E0900093F090A1
:101EE0000063E0FBA3E0FAA3E0F990008AEBF0A323
:101EF000EAF0A3E9F0E4FF900093E0FEEFC39E5008
:101F00004F900090E0FBA3E0FAA3E0F91203CBFEB0
:101F100090008DE0FBA3E0FAA3E0F91203CB6EFE84
:101F200090008AE0FBA3E0FAA3E0F9EE12044490EB
:101F3000008BE475F0011204DF90008EE475F0016F
:101F40001204DF900091E475F0011204DF0F80A706
:101F50002290008AEFF0A3EDF0900092EBF0A3EA5C
:101F6000F0A3E9F0E4FF900092E0FBA3E0FAA3E025
:101F7000F98F827583001203E4FE74002FF8EEF2ED
:101F800074F62FF582E43400F583EEF00FEFB41011
:101F9000D522900063EBF0A3EAF0A3E9F090006390
:101FA000E0FBA3E0FAA3E0F8AC02AD037BFF7A000C
:101FB00079537E007F03020757E490011BF0122142
:101FC0001D7B017A01791780377F0312175CEF249C
:101FD00002FF2278E37C007D017E007F0D0207571F
:101FE000E5D65420D39400E494007F0040027F01A2
:061FF000227F08022448D4
:10200000900059EBF0A3EAF0A3E9F07BFF7A0079A6
:102010004EE4FF11E0900059E0FBA3E0FAA3E04A90
:102020004B6055E4A3F0900059E0FBA3E0FAA3E075
:10203000F9A3E0FFF5827583001203E4FE746E2FAE
:10204000F582E43400F583EEF090005CE004F0E00B
:10205000B404D390005C7401F090005CE0FFC39482
:1020600006501590006DEFF07B017A00796D11E05C
:1020700090005CE004F080E11217F3900078EFF03C
:102080009000757401F0A37400F0A3746EF07B01EE
:102090007A00795D51231217F3AD077B017A00793D
:1020A0005D120F6CE4900099F09000B1EDF0E0FF4C
:1020B0007E00789A7C007D01120757900099E024F9
:1020C0009AF582E43400F583E0FF12164D020035E4
:1020D00078127C017D017E007F051207577F012267
:1020E000900072EFF0A3120F64D201D2029000723E
:1020F000E0701678D47C007D01A3E0FBA3E0FAA396
:10210000E0F97E007F05120757900072E0FFA3E020
:10211000FBA3E0FAA3E0F91211EC0200353159EF0C
:1021200070343168EF702F3187EFC3940E50277BE6
:10213000017A007935AD07120E6C78177C017D01AC
:102140007A0079357E007F041207577B017A007987
:102150003911D07F01227F002274FFFFFE3180EF12
:10216000F47F0060027F01227F7E7EFC3180BFFF12
:10217000047F0180027F0022EB247EFFEA34FCFE14
:102180008F828E83E0FF227B817A033178AD07ED69
:10219000B4FF0BEB1B70011ABAFFF0BBFFEDEDB4FF
:1021A000FF047D0E800FED54F064F06004EDC480F8
:1021B00001ED540FFDAF0522AD07E4FBFA3178AC19
:1021C00007EB64817003EA6403601DEC540FF9B9F6
:1021D0000F07EC54F04DFC8020EC54F0FFBFF00EE4
:1021E000EDC454F049FC8011ED44E0FC800B0BBBC6
:1021F00000010ABA03C7BB82C4EB247EFFEA34FCA9
:10220000FEAD04A2AF92D5C2AFD2FD90011CEEF09C
:10221000A3EFF0F5828E83EDF020FCFDC2FDA2D588
:1022200092AF22900072EBF0A3EAF0A3E9F09000E5
:1022300078E0FF744E8FF084FF7402120444900023
:1022400078E024FFFDE434FFFC900072E0FBA3E0A3
:10225000FAA3E0F98D828C83744F1204567E0190AC
:102260000078E014FDEEC39D5038900075E0FBA3AC
:10227000E0FAA3E0F9EE5403F5827583001203E45B
:102280008FF084ADF0EF8EF0A42DFD900072E0FB96
:10229000A3E0FAA3E0F98E82758300ED1204560ED6
:1022A00080BD7E01900078E0FFEEC39F503CEE249D
:1022B000FFFDE434FFFC900072E0FBA3E0FAA3E032
:1022C000F98D828C831203E4FF8E827583001203E2
:1022D000E4C39FFFC39405500EC374059FFF8E8215
:1022E000758300EF1204110E80BA2290008AEBF081
:1022F000A3EAF0A3E9F090008AE0FBA3E0FAA3E0F0
:10230000F8AC02AD037B017A0179127E007F0512E1
:1023100007577F0122ED75F009A42400FFE5F03492
:10232000FCFE90006BE4F0A37409F0900068EBF001
:10233000A3EAF0A3E9F0A2AF92D5C2AFD2FD90011B
:102340001EEEF0A3EFF090006B74FFF5F01204F5B1
:1023500045F0602A900068E0FBA3E475F0011204E8
:10236000F5A9F0FA1203CBFF90011EE475F00112FB
:1023700004F585F082F583EFF030FCCA80FBC2FDE6
:10238000A2D592AF22900063EBF0A3EAF0A3E9F0AC
:10239000900063E0FBA3E0FAA3E0F8AC02AD037B9E
:1023A000FF7A0079537E007F03120677EF7F00707B
:1023B000027F0122900070120F64200402814212F9
:1023C000006690007AEFF0D394205073900070E094
:1023D000FBA3E0FAA3E0F9121FF19000DBE0D39435
:1023E000004010E014F0E024AEF582E43400F58300
:1023F000E08001EE900079F0D188EF6002C2049095
:102400000076E0FBA3E0FAA3E04A4B600EA3E0FFF6
:10241000900076A3A3E0F9EF120444900073E0FB70
:10242000A3E0FAA3E04A4B601090007AE0FF90002E
:1024300073A3A3E0F9EF1204441200357F012212C6
:102440000F371200357F0022900107EBF0A3EAF06E
:10245000A3E9F0900106EFF090010E7401F09001F5
:1024600007E090010CF0EF14600C24FB600824FEE0
:10247000601924087035121FC990010AEFF0A3F00B
:10248000C2E9900106E0240AFF801B120FEE9001C2
:1024900006EFF0C39407501312006690010AEFF0A4
:1024A000A3F0C2E97F61120FC58009E490010BF02F
:1024B00090010AF090010CE0FF704B900107A3A37C
:1024C000E090010FF0E4F5E790010EE0701190014B
:1024D0000DE0FE90010FE0F8A606E004F08005E4B0
:1024E00090010EF0E5E6540260FA90010DE5E7F088
:1024F00090010AE014F070CD90010DE0FE90010F04
:10250000E0F8A606C132EF64017069900107A3E00C
:10251000FAA3E0FF90010FEAF0A3EFF0E4F5E790F3
:10252000010EE0702290010DE0FF90010FE0FCA38E
:10253000E0F5828C83EFF0900110E004F0700690DB
:10254000010FE004F08005E490010EF0E5E654028E
:1025500060FA90010DE5E7F090010AE014F070BC1C
:1025600090010DE0FF90010FE0FCA3E0F5828C8369
:10257000EFF0C13290010CE064FE704B900107A3B4
:10258000A3E090010FF0E4F5E790010EE0701190E8
:10259000010DE0FF90010FE0F8EFF2E004F080059C
:1025A000E490010EF0E5E6540260FA90010DE5E7D3
:1025B000F090010AE014F070CD90010DE0FF900161
:1025C0000FE0F8EFF2806B900107E0F9A3E0FAA3C7
:1025D000E090010FC9F0A3EAF0A3E9F0E4F5E79079
:1025E000010EE0702090010DE0FF90010FE0FBA3D1
:1025F000E0FAA3E0F9EF120444900110E475F00151
:102600001204DF8005E490010EF0E5E6540260FA62
:1026100090010DE5E7F090010AE014F070BE900122
:102620000DE0FF90010FE0FBA3E0FAA3E0F9EF1249
:102630000444D2E9900106E0FE90010BE0FDEDFFBD
:1026400022900083EBF0A3EAF0A3E9F0900082EF80
:10265000F014600824FB600424067010900082E0EF
:10266000FFA3E0FBA3E0FAA3E0F98148900082E039
:10267000240AFF12175C900083E0FBA3E0FAA3E0BA
:10268000F9EF1204447F01227F1712175CEF540107
:10269000FF229000E2E0B4010AD2099000E2E0607B
:1026A0001280F89000E2E0B40209120F6C12161CBE
:1026B00012003522AE071FEED3940040157C007D3A
:1026C0002DED1DAA0470011CD39400EA940040E48F
:1026D00080EF22D39000E1E094009000E0E09400CD
:1026E000400CA3E024FFF09000E0E034FFF0900005
:1026F000ABE02401FF9000AAE03400FE9000C2E0AD
:10270000FCA3E0FD12048A9000AAECF0A3EDF09087
:1027100000BCE07002A3E0600A9000AAE07002A38F
:10272000E070159000DCE004FF9000B1E0FEEF8E59
:10273000F0849000DCE5F0F0229000BCE07002A391
:10274000E0600FD39000E1E094009000E0E094009E
:102750004004E4FEFF229000AAE07002A3E07003B0
:10276000FEFF229000BAE0FEA3E0FF7C017DDC12B8
:1027700004789000C4E0FCA3E0FD12048AAB07AA31
:10278000069000B1E0FF7E00AD03AC02120478D3E6
:102790009000ABE09F9000AAE09E5016E0FEA3E000
:1027A000FF12048AC3EB9DFFEA9CCF24FFCF34FFC6
:1027B000FE229000AAE0FEA3E0FFC39000C3E09FCA
:1027C000FF9000C2E09EFE227D707F07121680EF10
:1027D0005470FF22E490003AF0EF24FE5403FFE02F
:1027E00054FC4FF0E0FD7F030216807F1712175C48
:0727F000EFC4135401FF22A6
:1028000090003AEFF0E4FF12175C90003BEFF0907D
:10281000003AE014601014601A2402702190003B0A
:10282000E054F7F0801890003BE04408F0E054FBDF
:10283000F0800B90003BE04408F0E04404F090008E
:102840003BE0FDE4FF02168090003A12175890001A
:102850003BEFF090003AE0600C24FE701590003BD6
:10286000E04420800690003BE054DFF0E054F7F0B5
:10287000800B90003BE054DFF0E04408F090003B18
:10288000E0FD7F06021680EF543F90003AF0E0FD35
:102890007F1C02168090003AEFF07F1D12175C90AB
:1028A000003BEFF090003AE07F0060027F01EF54C0
:1028B0000125E025E0FF90003BE054FB4FF0E0FDF8
:1028C0007F1D02168090008AEBF0A3EAF0A3E9F0E6
:1028D000E4900090F090008DE0FBA3E0FAA3E0F913
:1028E000A3E0FFF5827583001203E4FE74082FF85D
:1028F000A606900090E004F0E0B410D975DE02E482
:10290000900090F07F0851257F089152900090E050
:10291000FF316F900090E004F0E0C3940940E57F40
:102920000851257F09316F7F087164E4900090F0B1
:10293000900090E0FF24F6F582E43400F583E0FE99
:1029400074002FF8EEF2900090E0FF2408F8E6FE05
:1029500090008AE0FBA3E0FAA3E0F98F8275830080
:10296000EE120456900090E004F0E0B410C2227819
:102970000DE290080993FE7800E2FDEE6DFEEF9007
:10298000090A936EF2780EE290080993FF7801E24B
:10299000FEEF6EF2780FE293FF7802E2FEEF6EF246
:1029A000780CE293FF7803E2FEEF6EF208E2FF7824
:1029B00000E26F7804F208E2FF7801E26F7805F236
:1029C00008E2FF7802E26F7806F208E2FF7803E29D
:1029D0006F7807F208E2FF7804E26F7808F208E205
:1029E000FF7805E26F7809F208E2FF7806E26F7877
:1029F0000AF208E2FF7807E26F780BF208E2FF784C
:102A000008E26F780CF208E2FF7809E26F780DF2C5
:102A100008E2FF780AE26F780EF208E2FF780BE234
:102A20006F780FF222A807E6FE7800E26E900809A0
:102A300093A807F6E82404F8E6FE7804E26E93FE15
:102A4000EF2404F8A606EF2408F8E6FE7808E26E04
:102A500093FEEF2408F8A606EF240CF8E6FE780CA7
:102A6000E26E93FEEF240CF8A606EF04F8E6FE787B
:102A700001E26E93FE900091F0EF2405F8E6FD78F8
:102A800005E26D90080993FDEF04F8A605EF24090F
:102A9000F8E6FD7809E26D93FDEF2405F8A605EF51
:102AA000240DF8E6FD780DE26D93FDEF2409F8A6FC
:102AB00005EF240DF8A606EF2402F8E6FE7802E200
:102AC0006E93900091F0EF2406F8E6FE7806E26E31
:102AD00090080993FE900092F0EF240AF8E6FD7842
:102AE0000AE26D90080993FDEF2402F8A605EF2491
:102AF0000EF8E6FD780EE26D93FDEF2406F8A605CC
:102B0000900091E0FDEF240AF8A605EF240EF8A648
:102B100006EF240FF8E6FE780FE26E90080993FEA8
:102B2000900091F0EF240BF8E6FD780BE26D900831
:102B30000993FDEF240FF8A605EF2407F8E6FD78CA
:102B400007E26D93FDEF240BF8A605EF2403F8E6EA
:102B5000FD7803E26D93FDEF2407F8A605EF24034B
:102B6000F8A60622A807C000E6FE7800E26ED000B4
:102B7000F6EF04F8C000E6FE7801E26ED000F6EF52
:102B80002402F8C000E6FE7802E26ED000F6EF24E0
:102B900003F8C000E6FE7803E26ED000F6EF2404EE
:102BA000F8C000E6FE7804E26ED000F6EF2405F8E7
:102BB000C000E6FE7805E26ED000F6EF2406F8C00D
:102BC00000E6FE7806E26ED000F6EF2407F8C000BB
:102BD000E6FE7807E26ED000F6EF2408F8C000E6C3
:102BE000FE7808E26ED000F6EF2409F8C000E6FE99
:102BF0007809E26ED000F6EF240AF8C000E6FE780D
:102C00000AE26ED000F6EF240BF8C000E6FE780B67
:102C1000E26ED000F6EF240CF8C000E6FE780CE27D
:102C20006ED000F6EF240DF8C000E6FE780DE26EDF
:102C3000D000F6EF240EF8C000E6FE780EE26ED06B
:102C400000F6EF240FF8C000E6FF780FE26FD00027
:102C5000F622EF2402F8E6FEEF2403F8E66EFEEF1C
:102C600004F8E6FD6EFEA807E6FC6EFEAB04EC6D14
:102C7000F5DDADDFED6EFDE66DF6E82402F8E6FD6C
:102C8000EF04F8E6FC6DF5DDADDFED6E6CF6EF24DC
:102C900003F8E6FDEF2402F8E6FC6DF5DDADDFEDAF
:102CA0006E6CF6EF2403F8E6FC6BF5DDADDFED6E40
:102CB0006CF6EF2406F8E6FEEF2407F8E66EFEEF6A
:102CC0002405F8E6FD6EFEEF2404F8E6FC6EFEAB8C
:102CD00004EC6DF5DDADDFED6EFDE66DF6EF24067F
:102CE000F8E6FDEF2405F8E6FC6DF5DDADDFED6EF1
:102CF0006CF6EF2407F8E6FDEF2406F8E6FC6DF528
:102D0000DDADDFED6E6CF6EF2407F8E6FC6BF5DD6C
:102D1000ADDFED6E6CF6EF240AF8E6FEEF240BF85B
:102D2000E66EFEEF2409F8E6FD6EFEEF2408F8E6F5
:102D3000FC6EFEAB04EC6DF5DDADDFED6EFDE66D1A
:102D4000F6EF240AF8E6FDEF2409F8E6FC6DF5DD60
:102D5000ADDFED6E6CF6EF240BF8E6FDEF240AF81C
:102D6000E6FC6DF5DDADDFED6E6CF6EF240BF8E6FD
:102D7000FC6BF5DDADDFED6E6CF6EF240EF8E6FED4
:102D8000EF240FF8E66EFEEF240DF8E66EFEEF245A
:102D90000CF8E66EFEEF240CF8E6FBEF240DF8E6E7
:102DA000FDEF240CF8E66DF5DDADDFED6EFDEF24F3
:102DB0000CF8E66DFDEF240CF8A605EF240EF8E6FE
:102DC000FDEF240DF8E66DF5DDADDFED6EFDEF24D2
:102DD0000DF8E66DFDEF240DF8A605EF240FF8E6DB
:102DE000FDEF240EF8E6FC6DF5DDADDFED6E6CF663
:102DF000EF240FF8E6FCAD036DF5DDADDFED6E6C95
:022E0000F622B8
:00000001FF
