:1000000002057C0205080B0E0004FFFFFFFFFFFF47
:100010000001003FFFFFFFFFFFFFFFFFFFFF003F6B
:0800200000030001FFFFFFFFD8
:10002B00020800D2B9D2ADC20BA20C929222120CD2
:10003B009BEF5470FF227F03120D54EF2402FF221B
:10004B00020965020396E86480F8E933E83360112E
:10005B000460F0ED33EC337009E8FCE9FDEAFEEBEC
:10006B00FF220460DED3EB9FEA9EE99DE8C2E78C9A
:10007B00F0C2F795F0400CE8CCF8E9CDF9EACEFAEE
:10008B00EBCFFB12036185D0F05804700320D5B37E
:10009B00E80470075002B2D50203A092D5EC0460BD
:1000AB00F7E4CCC0E0C398F8603B94186008400DAF
:1000BB00D0E0FB020378E4FBFAC9FC8028E830E4CB
:1000CB0006E4C9FBE4CAFCE830E305E4C9CACBFC8F
:1000DB00E854076010F8C3E913F9EA13FAEB13FBC2
:1000EB00EC13FCD8F130F52FC3E49CFCEF9BFFEE37
:1000FB009AFEED99FDD0E0FBEF4E4D4C701222DBDA
:10010B000302039DEC2CFCEF33FFEE33FEED33FDCE
:10011B00ED30E7EB020378EF2BFFEE3AFEED39FD06
:10012B00D0E0FB50130BBB00030203A0ED13FDEE5D
:10013B0013FEEF13FFEC13FC020378EC4D6011E898
:10014B00497017ED33EC3304600DE4FCFFFEFD2228
:10015B00E933E8330470F802039612036158046024
:10016B0009E4CC248150062850090203A02840033F
:10017B0002039DC0E0EB4A7044B98006D0E0FB025D
:10018B00038CEF4E701CBD8008EBFFEAFEE9FD808F
:10019B00EBE98DF0A4FEE5F002022FE9CDF9EAFEC2
:1001AB00EBFFEF89F0A4FCE5F0CE89F0A42EFFE481
:1001BB0035F0CD89F0A42DFEE435F08067EF4E705D
:1001CB0005BD80D780C3EF8BF0A4ACF0EE8BF0A411
:1001DB002CFCE435F0F8EF8AF0A42CE5F038FCE4C5
:1001EB0033CB8DF0A42CFCE5F03BF8EE8AF0A42C7D
:1001FB00FCE5F038F8E433CF89F0A42CFCE5F038BB
:10020B00CF3400CE89F0A42FFFE5F03EFEE433C9D6
:10021B008DF0A42EFEE5F039CD8AF0A42FFFE5F08A
:10022B003EFEE43DFD33D0E0FB50070BBB000F025D
:10023B0003A0EC2CFCEF33FFEE33FEED33FD02039A
:10024B00780203A0EC5D046005E859047003020317
:10025B0096120361580460F6EC4860F2EC7004FDF2
:10026B00FEFF22C860DB2481C85009C3986002508E
:10027B000602039D9850CAF582E9294B4A7005ABDB
:10028B008202038C75F0007C1A7880C3EF9BEE9A88
:10029B00ED99400DC3EF9BFFEE9AFEED99FDE84201
:1002AB00F0DC23ACF0D0E0FFD0E0FED0E0FDAB8281
:1002BB0020E7101BEB60BAEC2CFCEF33FFEE33FEA8
:1002CB00ED33FD020378E803F830E705C0F075F075
:1002DB0000EF2FFFEE33FEED33FD40B830E7C28069
:1002EB00AA75F020800E75F010800575F0087D0062
:1002FB007E007F003392D530D50312048CEC334053
:10030B0010EF33FFEE33FEED33FDEC33FCD5F0EDA8
:10031B0022E5F0247EA2D513CC92E7CDCEFF22EDC1
:10032B00D2E7CD33EC3392D524814006E4FFFEFDBA
:10033B00FC22FCE4CFCECDCC24E0501174FF80ED39
:10034B00C3CC13CCCD13CDCE13CECF13CF0470F0C3
:10035B0030D5DE02048CE9D2E7C933E833F892D505
:10036B00EDD2E7CD33EC33FC5002B2D522EC30E7C3
:10037B00100FBF000C0EBE00080DBD00040BEB6090
:10038B0014A2D5EB13FCED92E7FD2274FFFCFDFEEE
:10039B00FF22E480F8A2D574FF13FC7D80E480EF8C
:1003AB00BB010689828A83E0225002E722BBFE0250
:1003BB00E32289828A83E49322BB010CE58229F52F
:1003CB0082E5833AF583E0225006E92582F8E6229E
:1003DB00BBFE06E92582F8E222E58229F582E58358
:1003EB003AF583E49322BB010689828A83F022507B
:1003FB0002F722BBFE01F322F8BB010DE58229F5C2
:10040B0082E5833AF583E8F0225006E92582C8F6A7
:10041B0022BBFE05E92582C8F222EF8DF0A4A8F0DD
:10042B00CF8CF0A428CE8DF0A42EFE22BC000BBEE8
:10043B000029EF8DF084FFADF022E4CCF875F008C5
:10044B00EF2FFFEE33FEEC33FCEE9DEC984005FCFA
:10045B00EE9DFE0FD5F0E9E4CEFD22EDF8F5F0EEC2
:10046B008420D21CFEADF075F008EF2FFFED33FDAD
:10047B004007985006D5F0F222C398FD0FD5F0EA4D
:10048B0022C3E49FFFE49EFEE49DFDE49CFC22E777
:10049B0009F608DFFA8046E709F208DFFA803E88A2
:1004AB00828C83E709F0A3DFFA8032E309F608DFD9
:1004BB00FA806EE309F208DFFA806688828C83E3A8
:1004CB0009F0A3DFFA805A89828A83E0A3F608DF5A
:1004DB00FA804E89828A83E0A3F208DFFA80428099
:1004EB00D280FA80C680D4805580F280298010801B
:1004FB00A680EA809A80A880DA80E280CA80298868
:10050B00848C8589828A83E493A30592F0A3159248
:10051B00DFF5DEF3800B89828A83E493A3F608DF91
:10052B00F9ECFAA9F0EDFB2288848C8589828A8309
:10053B00E0A30592F0A31592DFF6DEF480E3898247
:10054B008A83E493A3F208DFF980D688F0EF600189
:10055B000E4E60CD88F0ED2402B4040050C3F5823A
:10056B00EB2402B4040050B923234582239004EA00
:10057B0073787FE4F6D8FD7581610205C3020647E7
:10058B00E493A3F8E493A34003F68001F208DFF4AD
:10059B008029E493A3F85407240CC8C333C4540F25
:1005AB004420C8834004F456800146F6DFE4800BF8
:1005BB000102040810204080900608E47E0193603D
:1005CB00BCA3FF543F30E509541FFEE493A3600125
:1005DB000ECF54C025E060A840B8E493A3FAE4938F
:1005EB00A3F8E493A3C8C582C8CAC583CAF0A3C83D
:1005FB00C582C8CAC583CADFE9DEE780BE42805325
:10060B00000050800504192A3F4D00000000000037
:10061B00000000000045803F0104070A0D418000E7
:10062B00FF4180470041804A0042804B00004280DE
:10063B0015000045804E000000000000120EEBD1AB
:10064B0077E4F594D2AF120DC2754700754800756B
:10065B004900754A00754B00754C007B007A007998
:10066B0029120F48EF60E285298080DD78447C00F9
:10067B007D007BFF7A0079037E007F05B156120F58
:10068B0026C290A20B9292C20C7F0112135B7F01C8
:10069B001213387FFF12132CE4908004F090801C0F
:1006AB007405F0C209C20AE4908001F0C208D201BD
:1006BB00D202C206D20090801DF0A3F0C203C20486
:1006CB00C205908046F07B017A80793FFF120CC205
:1006DB007B007A0079447F01120CC27544037B00C6
:1006EB007A0079447F02120CC27544047B007A00B5
:1006FB0079447F03120CC27544057B007A00794460
:10070B007F04120CC27544067B007A0079447F0586
:10071B00120CC2908004E02405F582E43480F5834A
:10072B00E0FF120C49E490801FF0A3F0A304F0A3A8
:10073B0074F4F0A3E4F0A37402F0A3E4F0A3742325
:10074B00F0E4A3F0A3F0A3F0A3743FF0E4908035A2
:10075B00F0A3F090802BF0A3F0A3F0A37464F0A3AC
:10076B007403F0A374F0F0A37401F0A37468F0A306
:10077B00E4F0A37402F0908037E4F0A37403F0E488
:10078B00A3F0A3F0A3F0A37496F0A3E4F0A3743248
:10079B00F01212D37F011212F77F0212128D7F0516
:1007AB001212BC113912114F1211587FF07E031225
:1007BB000FC0120B6C012EEF60122007157F01F199
:1007CB00DE7F03AE071FEE70FAD20722E4FFF1DEE5
:1007DB00C207228F1AE4FF120D548F1BE51AB401C6
:1007EB0005431B028003531BFDAD1BE4FF020C9F53
:1007FB007F60020D54C0E0C0F0C083C082C085C0D2
:10080B0084C0925392FEC0D075D000C000C001C00E
:10081B0002C003C004C005C006C007C2C611599070
:10082B008054E004F07006908053E004F0D007D0C1
:10083B0006D005D004D003D002D001D000D0D0D048
:10084B0092D084D085D082D083D0F0D0E032C2B9A0
:10085B00C2AD1211B7300A0C90802FE0FEA3E0FF5F
:10086B00F1C0C20A90804DE064026002210F71B6A4
:10087B007522008F23D20BD292908004E0652370F7
:10088B0002E5226022C290A20B9292C20C74052F39
:10089B00F582E43480F583E0FF9149D292D290D275
:1008AB000C908004E523F0D15C8E228F23D15CEF7A
:1008BB004E700F7F011207C2D206D292D290D20C89
:1008CB00800FC290A20B9292C20CC206E4FF1207D9
:1008DB00C2908003E004F07006908002E004F09078
:1008EB00802BE0FEA3E08E22F523D39400EE940040
:1008FB00403E908003E09523908002E095224030AB
:10090B00716C802C90804DE06401702430082112B2
:10091B0012548E228F2330030FE523452270117161
:10092B00B6908004E0B5070831AEC290D206C2087B
:10093B00D390801EE0940090801DE09400400EA3A5
:10094B00E024FFF090801DE034FFF08002C203C270
:10095B000BA20C9292D2B9D2AD22C0E0C0F0C083F0
:10096B00C082C085C084C0925392FEC0D075D000A7
:10097B00C000C001C002C003C004C005C006C00750
:10098B0031C7D007D006D005D004D003D002D00198
:10099B00D000D0D0D092D084D085D082D083D0F06C
:1009AB00D0E032D292D290D20C7F0A7E00000000AF
:1009BB000000EF1F70011E144E70F222C2B9C2ADBF
:1009CB00D20BD29291FE8F27E52730E633D204F17A
:1009DB0001EF24FF9205719E90804DE0B4012190B0
:1009EB008001E0FF908046E0FE2419F582E434801C
:1009FB00F583EFF0EEC394025006908046E004F0CE
:100A0B00E52720E40330E51CD1F8EF04F5249080B2
:100A1B0018E0C39524F0908049E02524F09080489D
:100A2B00E03400F0E52720E50241D590804DE064ED
:100A3B0001600241D5D20A908017E0241275F004B0
:100A4B00A4FF908032E02FFF908031E035F0FEC3A1
:100A5B00908030E09FFF90802FE09EFEE52730E6F0
:100A6B000874D82FFF74FF3EFEF1C012121D719E49
:100A7B0090801FE0F525A3E0F52690803BE0FFA3D7
:100A8B00E090801DCFF0A3EFF0E5266402452560D2
:100A9B0010E526640345256008E5266404452570AA
:100AAB0002D203F10AEF6006D200716C801CF114C4
:100ABB00E4908002F0A3F0908048F0A3F0D292D2A1
:100ACB0090D20C7F0AFE31B8C290E52720E4026178
:100ADB0061C290A20B9292C20C908003E02524F08D
:100AEB00908002E03400F0908021E0F525A3E0F542
:100AFB0026E5264525600FC3908003E09526908060
:100B0B0002E095255003300904716C8049908018E0
:100B1B00E0703D90803DE0FEA3E0FFD3908045E088
:100B2B009F908044E09E400DE490801DF0A3F0C2A6
:100B3B00037F018017300312121254D3EF9401EE8E
:100B4B0094004002C2067F0280027F0371D18006AF
:100B5B00915D31AEC290C20BA20C9292D2B9D2ADC2
:100B6B0022C290A20B9292C20C90804DE0B402056F
:100B7B007F0F121198908039E07004A3E06401702C
:100B8B0003FF80027F011207C2C206C209E49080F4
:100B9B004DF022908033E0FFA3E090804BCFF0A389
:100BAB00EFF0908004E090804AF022D390804CE0EC
:100BBB00940090804BE09400400690804AE0FF2226
:100BCB00908047E0FF228F18F114915DE5181460B7
:100BDB001014601B14601F8000908004E0F51980D6
:100BEB002990801CE0FDE4FF1211618F19801B120C
:100BFB00122D8F198014908004E004F51990801C3D
:100C0B00E0FFE5198FF08485F019908004E06519F9
:100C1B00601FE519F0E02405F582E43480F583E0EC
:100C2B00FF9149908045E004F07006908044E00409
:100C3B00F0300303D20822D20631AEC29022E4F583
:100C4B001DEF547FFFE51D54804FF51DAD1D7F0536
:100C5B008042908018E0D3940F40087DFA7C007F8F
:100C6B000F800C908018E0C39401FF7DFA7C00ABE1
:100C7B0007EC540FC454F0FFE51C540F4FF51CEB5D
:100C8B00540FFFE51C54F04FF51CAD1C7F04800482
:100C9B007D707F07C291EF2420F5E5C2C030C0FD07
:100CAB00AFE58DE5C2C030C0FD85E51ED291227B3C
:100CBB00017A80793FE4FF8F498B4A8A4B894CE557
:100CCB004914600A24FB5019600424067024120096
:100CDB00418F51E549242AFFAB4AAA4BA94C021379
:100CEB007CE549240AFFAB4AAA4BA94C1203ABFD86
:100CFB00919F22919BEF5470F5287F07B154EF54CD
:100D0B000F4228AF28228F457F02B1548F467F01B7
:100D1B00B1548F47E54524FA500624076016801915
:100D2B00AF457401A807088002C333D8FCF45246C0
:100D3B0052478005E4F546F547AD467F02919FADDE
:100D4B00477F01819F8F497F1DC2918FE5C2C030C4
:100D5B00C0FDAFE5E4F5E5C2C030C0FDAFE5D29113
:100D6B00228F458D467F02B1548F477F01B1548F3F
:100D7B0048E54524FA500624076021802EAF4574C0
:100D8B0001A807088002C333D8FCFF4247E5466041
:100D9B0005EF42488015EFF45248800F75473FE549
:100DAB0046600575483F8003E4F548AD477F0291E7
:100DBB009FAD487F01819FD13C30023FF126C2029B
:100DCB00D20191BA7FFFB111E4F54474017E00A802
:100DDB0044088005C333CE33CED8F9FF908029E089
:100DEB005EFEA3E05F4E60067D01AF44B16C05442F
:100DFB00E544C3940640D47F01D1217F011207C281
:100E0B00E4908002F0A3F090804D7402F0D292D265
:100E1B0090D20C02002E8F45E4FFB1548F46E5456E
:100E2B00B4010543460180035346FEAD46E4FF8102
:100E3B009F90804DE0B4010AD20990804DE0601084
:100E4B0080F890804DE0B40207F126716C12002EF1
:100E5B0022908027E07002A3E0600FD390804CE0DB
:100E6B00940090804BE094004004E4FEFF229080BD
:100E7B0015E07002A3E07003FEFF22908025E0FED8
:100E8B00A3E0FF7C017DDC12042590802FE0FCA306
:100E9B00E0FD120437AB07AA0690801CE0FF7E0032
:100EAB00AD03AC02120425D3908016E09F90801501
:100EBB00E09E5016E0FEA3E0FF120437C3EB9DFF4C
:100ECB00EA9CCF24FFCF34FFFE22908015E0FEA3D7
:100EDB00E0FFC390802EE09FFF90802DE09EFE22CE
:100EEB00D2B9C29075E61075C810D2C8227F08B16E
:100EFB0054EF540FFF227F09B154EF5401FF227FAF
:100F0B0017B154EFC45401FF2230030590802380A6
:100F1B0003908025A3E0908018F022A2AFE433C2A7
:100F2B00AFC2B9C2ADD20BD29224FF92AF22F1263F
:100F3B0012114FE4908046F0C20402002E8B448ABB
:100F4B00458946F1263004671207FB8F4EE54ED3D9
:100F5B0094205059AB44AA45A946F1F7908046E03E
:100F6B00D394004012E014F0E02419F582E43480AD
:100F7B00F583E0F54D80028E4D121322EF6002C215
:100F8B0004E54C454B454A600BAB4AAA4BA94CE5D3
:100F9B004D1203F1E54945484547600BAB47AA485D
:100FAB00A949E54E1203F112002E7F0122F13912ED
:100FBB00002E7F0022AD07AC06E41202F1E4FBFA2F
:100FCB0079807840120146E4FBFA794078401202AE
:100FDB004FE4FBFAF9783F12005512032AC3E49F42
:100FEB00FFE49EF5CB8FCAF5CD8FCC227F08800511
:101000008F568B578A588959755E0185575CE5560E
:1010100014600C24FB600824FE60142408702A125B
:1010200000418F5A8F5BC291E556240AFF8016312A
:101030002F8F56E556C39407500F1207FB8F5A8F18
:101040005BC2917F6131458005E4F55BF55AE55C53
:10105000702685595FE4F5E5C2C0E55E7008A85FBB
:10106000A65D055F8003E4F55E30C0FD85E55DD5D6
:101070005AE3A85FA65D2126E55C640170398558B6
:101080005F855960E4F5E5C2C0E55E701385608256
:10109000855F83E55DF00560E5607002055F8003B4
:1010A000E4F55E30C0FD85E55DD55AD88560828562
:1010B0005F83E55DF0806FE55C64FE702885595FB5
:1010C000E4F5E5C2C0E55E7009A85FE55DF2055F85
:1010D0008003E4F55E30C0FD85E55DD55AE2A85F8A
:1010E000E55DF2804185575F855860855961E4F57B
:1010F000E5C2C0E55E7018AB5FAA60A961E55D124C
:1011000003F174012561F561E43560F5608003E465
:10111000F55E30C0FD85E55DD55AD3AB5FAA60A909
:1011200061E55D1203F1D291E556FEE55BFF2231E8
:101130003CEF540EFFE4C313EF13FF22C2917FFF75
:101140003145D291228FE5C2C030C0FDAFE522C249
:10115000917FE23145D29122C2917FE13145D29116
:1011600022EFD394004005908000EFF0908000E0E3
:10117000FFC43333335480FEEFC4333354806206EC
:10118000E0FFC43354806206EF54806206E0C3136C
:101190004EF08DF084AFF022AE071FEED3940040E6
:1011A000157C007D2DED1DAA0470011CD39400EA6E
:1011B000940040E480EF22D390804CE09400908033
:1011C0004BE09400400CA3E024FFF090804BE0340F
:1011D000FFF0908016E02401FF908015E03400FEBF
:1011E00090802DE0FCA3E0FD120437908015ECF018
:1011F000A3EDF0908027E07002A3E0600A908015D4
:10120000E07002A3E07015908047E004FF90801C1E
:10121000E0FEEF8EF084908047E5F0F022908004AD
:10122000E0908047F0E4908015F0A3F022D3908006
:101230004CE0940190804BE09400400690804AE09E
:10124000FF22908047E004FF90801CE0FEEF8EF0CC
:1012500084AFF022908027E07002A3E0600FD3906B
:10126000804CE0940090804BE094004004E4FEFF4A
:1012700022908015E0FCA3E0FD4C7003FEFF22C32A
:1012800090802EE09DFF90802DE09CFE228F49E40F
:10129000FF120D548F4AE54914600C1460112402AA
:1012A0007013534AF7800E434A08534AFB800643A3
:1012B0004A08434A04AD4AE4FF020C9FE4F549EFB3
:1012C00024FE5403FFE54954FC4FF549AD497F0323
:1012D000020C9F908037A3E0FF8F497F06120D54C8
:1012E0008F4AE549540325E0FFE54A54F94FF54A92
:1012F000AD4A7F06020C9F8F497F06120D548F4A1C
:10130000E549600924FE700D434A208003534ADFFB
:10131000534AF78006534ADF434A08AD4A7F060224
:101320000C9F7F17120D54EF5401FF22EF543FF52D
:1013300049AD497F1C020C9F120D508F4AE5497F31
:101340000060027F01EF540125E025E0FFE54A54EB
:10135000FB4FF54AAD4A7F1D020C9F120D508F4A7C
:10136000E5497F0060027F01EF540125E0FFE54A77
:1013700054FD4FF54AAD4A7F1D020C9F8B4E8A4F9C
:101380008950AD4EC2918FE5C2C0ED7018855053A3
:10139000A853E6FE055330C0FD85E5528EE5C2C078
:1013A000D551ED8072ED64017025854F5385505401
:1013B000855482855383E0FE0554E554700205533D
:1013C00030C0FD85E5528EE5C2C0D551E38048EDC1
:1013D00064FE7018855053A853E2FE055330C0FDDB
:1013E00085E5528EE5C2C0D551ED802B854E5385E3
:1013F0004F54855055AB53AA54A9551203ABFE74F4
:10140000012555F555E43554F55430C0FD85E552B8
:101410008EE5C2C0D551DE30C0FD85E552D29122A5
:00000001FF
