:1000000002059B50001504192A3F4D000000000016
:1000100000000000000045004F0104070A0D4100E8
:1000200010FF4100570041005A0042005B000042AF
:1000300000250000007F0212156E7F031213D57F8A
:1000400001121554121564BF02FA220209337F60AF
:10005000E167D2B9D2BDC20BA20C92EA227F08029C
:08006000080090005DE0FF22A2
:10006B00C1900203B5E86480F8E933E8336011040A
:10007B0060F0ED33EC337009E8FCE9FDEAFEEBFFD1
:10008B00220460DED3EB9FEA9EE99DE8C2E78CF089
:10009B00C2F795F0400CE8CCF8E9CDF9EACEFAEBD3
:1000AB00CFFB12038085D0F05804700320D5B3E842
:1000BB000470075002B2D50203BF92D5EC0460F76F
:1000CB00E4CCC0E0C398F8603B94186008400DD0B6
:1000DB00E0FB020397E4FBFAC9FC8028E830E40656
:1000EB00E4C9FBE4CAFCE830E305E4C9CACBFCE88D
:1000FB0054076010F8C3E913F9EA13FAEB13FBEC9E
:10010B0013FCD8F130F52FC3E49CFCEF9BFFEE9A68
:10011B00FEED99FDD0E0FBEF4E4D4C701222DB0350
:10012B000203BCEC2CFCEF33FFEE33FEED33FDEDA5
:10013B0030E7EB020397EF2BFFEE3AFEED39FDD0E4
:10014B00E0FB50130BBB00030203BFED13FDEE13DB
:10015B00FEEF13FFEC13FC020397EC4D6011E84923
:10016B007017ED33EC3304600DE4FCFFFEFD22E968
:10017B0033E8330470F80203B512038058046009A6
:10018B00E4CC248150062850090203BF2840030207
:10019B0003BCC0E0EB4A7044B98006D0E0FB02031D
:1001AB00ABEF4E701CBD8008EBFFEAFEE9FD80EB68
:1001BB00E98DF0A4FEE5F002024EE9CDF9EAFEEB83
:1001CB00FFEF89F0A4FCE5F0CE89F0A42EFFE43517
:1001DB00F0CD89F0A42DFEE435F08067EF4E70056D
:1001EB00BD80D780C3EF8BF0A4ACF0EE8BF0A42CCA
:1001FB00FCE435F0F8EF8AF0A42CE5F038FCE4339E
:10020B00CB8DF0A42CFCE5F03BF8EE8AF0A42CFC93
:10021B00E5F038F8E433CF89F0A42CFCE5F038CFC7
:10022B003400CE89F0A42FFFE5F03EFEE433C98DF8
:10023B00F0A42EFEE5F039CD8AF0A42FFFE5F03EB9
:10024B00FEE43DFD33D0E0FB50070BBB000F020378
:10025B00BFEC2CFCEF33FFEE33FEED33FD020397C7
:10026B000203BFEC5D046005E8590470030203B59B
:10027B00120380580460F6EC4860F2EC7004FDFE4B
:10028B00FF22C860DB2481C85009C3986002500666
:10029B000203BC9850CAF582E9294B4A7005AB8220
:1002AB000203AB75F0007C1A7880C3EF9BEE9AEDDE
:1002BB0099400DC3EF9BFFEE9AFEED99FDE842F0DE
:1002CB00DC23ACF0D0E0FFD0E0FED0E0FDAB822031
:1002DB00E7101BEB60BAEC2CFCEF33FFEE33FEEDBB
:1002EB0033FD020397E803F830E705C0F075F00023
:1002FB00EF2FFFEE33FEED33FD40B830E7C280AA9F
:10030B0075F020800E75F010800575F0087D007E6D
:10031B00007F003392D530D5031204ABEC33401081
:10032B00EF33FFEE33FEED33FDEC33FCD5F0ED2276
:10033B00E5F0247EA2D513CC92E7CDCEFF22EDD2F1
:10034B00E7CD33EC3392D524814006E4FFFEFDFC70
:10035B0022FCE4CFCECDCC24E0501174FF80EDC352
:10036B00CC13CCCD13CDCE13CECF13CF0470F03036
:10037B00D5DE0204ABE9D2E7C933E833F892D5ED09
:10038B00D2E7CD33EC33FC5002B2D522EC30E71080
:10039B000FBF000C0EBE00080DBD00040BEB60146C
:1003AB00A2D5EB13FCED92E7FD2274FFFCFDFEFFE3
:1003BB0022E480F8A2D574FF13FC7D80E480EFBBB0
:1003CB00010689828A83E0225002E722BBFE02E308
:1003DB002289828A83E49322BB010CE58229F58270
:1003EB00E5833AF583E0225006E92582F8E622BB45
:1003FB00FE06E92582F8E222E58229F582E5833AB9
:10040B00F583E49322BB010689828A83F022500292
:10041B00F722BBFE01F322F8BB010DE58229F58221
:10042B00E5833AF583E8F0225006E92582C8F622E7
:10043B00BBFE05E92582C8F222EF8DF0A4A8F0CF10
:10044B008CF0A428CE8DF0A42EFE22BC000BBE0097
:10045B0029EF8DF084FFADF022E4CCF875F008EFB6
:10046B002FFFEE33FEEC33FCEE9DEC984005FCEEDB
:10047B009DFE0FD5F0E9E4CEFD22EDF8F5F0EE840C
:10048B0020D21CFEADF075F008EF2FFFED33FD40D1
:10049B0007985006D5F0F222C398FD0FD5F0EA224B
:1004AB00C3E49FFFE49EFEE49DFDE49CFC22E70970
:1004BB00F608DFFA8046E709F208DFFA803E888209
:1004CB008C83E709F0A3DFFA8032E309F608DFFA41
:1004DB00806EE309F208DFFA806688828C83E30979
:1004EB00F0A3DFFA805A89828A83E0A3F608DFFA49
:1004FB00804E89828A83E0A3F208DFFA804280D2A1
:10050B0080FA80C680D4805580F28029801080A626
:10051B0080EA809A80A880DA80E280CA8029888469
:10052B008C8589828A83E493A30592F0A31592DFCD
:10053B00F5DEF3800B89828A83E493A3F608DFF957
:10054B00ECFAA9F0EDFB2288848C8589828A83E002
:10055B00A30592F0A31592DFF6DEF480E389828A7D
:10056B0083E493A3F208DFF980D688F0EF60010EE5
:10057B004E60CD88F0ED2402B4040050C3F582EB3D
:10058B002402B4040050B923234582239005097338
:10059B00787FE4F6D8FD75816C0205E202064CE427
:1005AB0093A3F8E493A34003F68001F208DFF480F1
:1005BB0029E493A3F85407240CC8C333C4540F4441
:1005CB0020C8834004F456800146F6DFE4800B011B
:1005DB0002040810204080900003E47E019360BC6D
:1005EB00A3FF543F30E509541FFEE493A360010EB3
:1005FB00CF54C025E060A840B8E493A3FAE493A3DA
:10060B00F8E493A3C8C582C8CAC583CAF0A3C8C5FA
:10061B0082C8CAC583CADFE9DEE780BE0205080BC4
:10062B000E0004FFFFFFFFFFFF0001003FFFFFFF76
:10063B00FFFFFFFFFFFFFF003F00030001FFFFFF76
:10064B00FFE4F544F545F54611351209D3E4F5936E
:10065B00D2AF1162EF70FBF54AF54BF54CF54DF54A
:10066B004EF54FFB7A007929D1DAEF6005E529F4D5
:10067B00F58085A0297B007A007929E4F54B7D0173
:10068B00120B5880CDC0E0C0F0C083C082C085C0C3
:10069B0084C0925392FEC0D075D000C000C001C080
:1006AB0002C003C004C005C006C007121129D00741
:1006BB00D006D005D004D003D002D001D000D0D0CA
:1006CB00D092D084D085D082D083D0F0D0E0328B42
:1006DB00478A488949F18A300462114E8F51E5519E
:1006EB00D394205055AB47AA48A949115D900056A9
:1006FB00E0D394004012E014F0E02429F582E434B6
:10070B0000F583E0F55080028E50F181EF6002C25C
:10071B0004E54F454E454D600AAB4DAA4EA94FE53A
:10072B00509110E54C454B454A600AAB4AAA4BA980
:10073B004CE551911011527F0122F15511527F005E
:10074B00227F03F167EF2402FF22F18A120F97E455
:10075B00900056F0C20401528F4C7F1DC2E98FE707
:10076B00E5E6540260FAAFE7E4F5E7E5E65402602C
:10077B00FAAFE7D2E9227F17F167EF5401FF22A20C
:10078B00AFE433C2AFC2B9C2BDD20BD2EA24FF92DF
:10079B00AF2290005DE0B4010AD20990005DE060E9
:1007AB001080F890005DE0B40207F18A120F5B1124
:1007BB0052228F1AE4FFF1678F1BE51AB401054330
:1007CB001B028003531BFDAD1BE4FF020FC3EF6045
:1007DB00122007157F01F1BD7F03AE071FEE70FAE4
:1007EB00D20722E4FFF1BDC20722C2E97FFF120F3D
:0407FB008DD2E92290
:100800008F618B628A638964756901856267E561BE
:1008100014600C24FB600824FE60142408702A1263
:10082000074C8F658F66C2E9E561240AFF801631A7
:100830007C8F61E561C39407500F12004E8F658F66
:1008400066C2E97F61F18D8005E4F566F565E567CF
:10085000702785646AE4F5E7E5697008A86AA66808
:10086000056A8003E4F569E5E6540260FA85E76805
:10087000D565E2A86AA668212AE5676401703A8511
:10088000636A85646BE4F5E7E5697013856B8285BF
:100890006A83E568F0056BE56B7002056A8003E426
:1008A000F569E5E6540260FA85E768D565D7856B9A
:1008B00082856A83E568F08071E56764FE7029854A
:1008C000646AE4F5E7E5697009A86AE568F2056A13
:1008D0008003E4F569E5E6540260FA85E768D565CA
:1008E000E1A86AE568F2804285626A85636B856487
:1008F0006CE4F5E7E5697018AB6AAA6BA96CE5686A
:100900001204107401256CF56CE4356BF56B8003F3
:10091000E4F569E5E6540260FA85E768D565D2AB8F
:100920006AAA6BA96CE568120410D2E9E561FEE5DC
:1009300066FF22C0E0C0F0C083C082C085C084C012
:10094000925392FEC0D075D000C000C001C002C05A
:1009500003C004C005C006C007B197D007D006D0B9
:1009600005D004D003D002D001D000D0D0D092D096
:1009700084D085D082D083D0F0D0E0321207F5EF5A
:10098000540EFFE4C313EF13FF22AD07AC06E4FFE0
:1009900091D70F91D7E4120310E4FBFAF9784712CC
:1009A00001657B007A247974784912026EE4FBFABF
:1009B000F9783F120074120349EF24FFFFEE34FF71
:1009C000FEE5B35406FD53B3F9EFF5B4EEF5B5ED1E
:1009D00042B32278477C007D007BFF7A0679277E30
:1009E000007F0512057512078AC2E8A20B92EAC2BF
:1009F0000C7F011215337F011215107FFFF1E0E427
:100A0000900014F090002C7405F0C209C20AE49022
:100A10000011F0C208D201D202C206D20090002D0D
:100A2000F0A3F0C203C204C205900056F07B017A25
:100A300000794FFF711D7B007A0079477F01711D9E
:100A40007547037B007A0079477F02711D75470463
:100A50007B007A0079477F03711D7547057B007A1B
:100A60000079477F04711D7547067B007A0079473E
:100A70007F05711D900014E02415F582E43400F523
:100A800083E0FF121114E490002FF0A3F0A304F010
:100A9000A374F4F0A3E4F0A37402F0A3E4F0A3744D
:100AA00023F0E4A3F0A3F0A3F0A3743FF0E49000DC
:100AB00045F0A3F090003BF0A3F0A3F0A37464F022
:100AC000A37403F0A374F0F0A37401F0A37468F0AE
:100AD000A3E4F0A37402F0900047E4F0A37403F0E1
:100AE000E4A3F0A3F0A3F0A37496F0A3E4F0A3743E
:100AF00032F01214A07F011214C47F021214007F7E
:100B000005121489F1B8F19791CE7FF07E03318AF6
:100B1000F15B0200527B017A00794FE4FF8F548B26
:100B2000558A568957E55414600A24FB501860040E
:100B30002406702312074C8F5CE554242AFFAB5522
:100B4000AA56A95781EEE554240AFFAB55AA56A927
:100B5000571203CAFDF1C3228B478A4889498D4A3F
:100B6000E54A6005D3941B40037F0022900027E5EF
:100B70004AF090005DE0B4020312079D12078A90CC
:100B80000011E0654B6005E54BF0D20190005DE09F
:100B900060028183200102811FC201D202FF121371
:100BA000E37D01E4FF12142FE54B700E7B017A0008
:100BB000794F7F06711D711580657B007A00794C35
:100BC0007F01919A8F53E54B64016038E54B24FD1A
:100BD000601214601914602080007B007A00794C48
:100BE0007F02801C7B007A00794C7F0380127B009F
:100BF0007A00794C7F0480087B007A00794C7F056D
:100C0000919A8F537B007A00794CE4FF711D7B0031
:100C10007A00794C7F06711D7D01AF4B121015E4EF
:100C2000900012F0A3F0900054F0A3F0900058F060
:100C3000A3F091CE91E2C20090002FE0F551A3E025
:100C4000F5527F011207D9300317E551700BE552B9
:100C500024FD60071460068000801480167F0280E7
:100C600014E551700EE55224FE600424027004E481
:100C7000FF80027F0112104C90005D7401F01200A1
:100C800052FF2220010E1214FAEF700891E21200B6
:100C9000527F01221200527F00228F548B558A56B8
:100CA0008957E55414600824FB60042406700AABDD
:100CB00055AA56A957AF540100E554240AFF12075C
:100CC00067AB55AA56A957EF1204107F0122C2E95B
:100CD0007FE1F18DD2E922EF600443B3012253B3E7
:100CE000FE22AB47AA48A949AD4A8D5C7FA08B592B
:100CF0008A5A895BAD59C2E98FE7ED7019855B5E51
:100D0000A85EE6FE055EE5E6540260FA85E75D8EC4
:100D1000E7D55CEC8075ED64017026855A5E855BD5
:100D20005F855F82855E83E0FE055FE55F7002059B
:100D30005EE5E6540260FA85E75D8EE7D55CE28009
:100D40004AED64FE7019855B5EA85EE2FE055EE515
:100D5000E6540260FA85E75D8EE7D55CEC802C8571
:100D6000595E855A5F855B60AB5EAA5FA96012031E
:100D7000CAFE74012560F560E4355FF55FE5E65471
:100D80000260FA85E75D8EE7D55CDDE5E65402603A
:100D9000FA85E75DD2E922C2B9C2BDD20BD2EA120E
:100DA00010008F27E52730E634D204121506EF2411
:100DB000FF9205F1A090005DE0B40121900011E0E8
:100DC000FF900056E0FE2429F582E43400F583EF1D
:100DD000F0EEC394025006900056E004F0E52720A0
:100DE000E40330E51CF1EBEF04F524900028E0C3A8
:100DF0009524F0900059E02524F0900058E034004C
:100E0000F0E52720E502C1A990005DE064016002E1
:100E1000C1A9D20A900027E0241275F004A4FF9023
:100E20000042E02FFF900041E035F0FEC39000400B
:100E3000E09FFF90003FE09EFEE52730E60874D873
:100E40002FFF74FF3EFE318A1213C5F1A090002FD0
:100E5000E0F525A3E0F52690004BE0FFA3E090002D
:100E60002DCFF0A3EFF0E526640245256010E526BE
:100E7000640345256008E526640445257002D20315
:100E80001214EFEF6006D200F15B801D121102E434
:100E9000900012F0A3F0900058F0A3F0D2EAD2E84C
:100EA000D20C7F0AFEF14CC2E8E52720E402E137CC
:100EB000C2E8A20B92EAC20C900013E02524F09045
:100EC0000012E03400F0900031E0F525A3E0F526B3
:100ED000E5264525600FC3900013E095269000128B
:100EE000E095255003300904F15B804B900028E029
:100EF000703E90004DE0FEA3E0FFD3900055E09FD0
:100F0000900054E09E400DE490002DF0A3F0C20349
:100F10007F018017300312121307D3EF9401EE9470
:100F2000004002C2067F0280027F0312104C80073D
:100F30001210C3F142C2E8C20BA20C92EAD2B9D29B
:100F4000BD22D2EAD2E8D20C7F0A7E000000000067
:100F500000EF1F70011E144E70F222C2E8A20B9225
:100F6000EAC20C90005DE0B402057F0F1213A69058
:100F70000049E07004A3E064017003FF80027F0178
:100F80001207D9C206C209E490005DF0228FE7E59E
:100F9000E630E1FBAFE722C2E97FE2F18DD2E92240
:100FA000900043E0FFA3E090005BCFF0A3EFF09050
:100FB0000014E090005AF022F1BFEF5470FF227D40
:100FC000707F07C2E9EF2420F5E7E5E6540260FAF6
:100FD000AFE78DE7E5E6540260FA85E71ED2E92225
:100FE000EF543FF54CAD4C7F1C80D87F081207674B
:050FF000EF540FFF2289
:10100000120FBFEF5470F5287F07120767EF540FD8
:101010004228AF2822EFD394004005900010EFF053
:10102000900010E0FFC43333335480FEEFC43333F9
:1010300054806206E0FFC43354806206EF5480623D
:1010400006E0C3134EF08DF084AFF0228F1831020A
:1010500011C3E51814601014601A14601D8000900C
:101060000014E0F519802790002CE0FDE4FF111535
:101070008F19801A51E08F198014900014E004F544
:101080001990002CE0FFE5198FF08485F01990008D
:1010900014E06519601FE519F0E02415F582E434C9
:1010A00000F583E0FF3114900055E004F0700690E5
:1010B0000054E004F0300303D20822D206120F429B
:1010C000C2E822900028E0D3940F40087DFA7C000B
:1010D0007F0F800C900028E0C39401FF7DFA7C0014
:1010E000AB07EC540FC454F0FFE51C540F4FF51C34
:1010F000EB540FFFE51C54F04FF51CAD1C7F0402B0
:101100000FC33003059000338003900035A3E090B7
:101110000028F022E4F51DEF547FFFE51D54804FB9
:10112000F51DAD1D7F05020FC3C2B9C2BD714030B0
:101130000A0D90003FE0FEA3E0FF12098AC20A9068
:10114000005DE06402600221E051367522008F23C9
:10115000D20BD2EA900014E065237002E5226022EF
:10116000C2E8A20B92EAC20C74152FF582E4340097
:10117000F583E0FF3114D2EAD2E8D20C900014E5F6
:1011800023F051518E228F235151EF4E700F7F016A
:101190001207D9D206D2EAD2E8D20C800FC2E8A256
:1011A0000B92EAC20CC206E4FF1207D9900013E0CA
:1011B00004F07006900012E004F090003BE0FEA303
:1011C000E08E22F523D39400EE9400403F9000136C
:1011D000E09523900012E095224031120F5B802CA5
:1011E00090005DE06401702430082171078E228F29
:1011F0002330030FE523452270125136900014E08E
:10120000B50709120F42C2E8D206C208D390002ED9
:10121000E0940090002DE09400400EA3E024FFF045
:1012200090002DE034FFF08002C203C20BA20C92AA
:10123000EAD2B9D2BD22D390005CE0940090005B6A
:10124000E09400400690005AE0FF22900057E0FF33
:1012500022900037E07002A3E0600FD390005CE0C2
:10126000940090005BE094004004E4FEFF229000B4
:1012700025E07002A3E07003FEFF22900035E0FE3F
:10128000A3E0FF7C017DDC12044490003FE0FCA35E
:10129000E0FD120456AB07AA0690002CE0FF7E008A
:1012A000AD03AC02120444D3900026E09F900025C9
:1012B000E09E5016E0FEA3E0FF120456C3EB9DFF34
:1012C000EA9CCF24FFCF34FFFE22900025E0FEA34E
:1012D000E0FFC390003EE09FFF90003DE09EFE22B5
:1012E000D390005CE0940190005BE0940040069095
:1012F000005AE0FF22900057E004FF90002CE0FE2F
:10130000EF8EF084AFF022900037E07002A3E0602F
:101310000FD390005CE0940090005BE094004004E8
:10132000E4FEFF22900025E0FCA3E0FD4C7003FEEC
:10133000FF22C390003EE09DFF90003DE09CFE2216
:10134000D390005CE0940090005BE09400400CA31C
:10135000E024FFF090005BE034FFF0900026E024F2
:1013600001FF900025E03400FE90003DE0FCA3E08A
:10137000FD120456900025ECF0A3EDF0900037E04C
:101380007002A3E0600A900025E07002A3E07015EF
:10139000900057E004FF90002CE0FEEF8EF0849068
:1013A0000057E5F0F022AE071FEED3940040157C05
:1013B000007D2DED1DAA0470011CD39400EA940059
:1013C00040E480EF22900014E0900057F0E4900099
:1013D00025F0A3F022EF25E05406FFE5B354F94FC2
:1013E000F5B3228F54E4FF1207678F55E554B4011B
:1013F0000543550180035355FEAD55E4FF020FC36D
:101400008F4CE4FF1207678F4DE54C14600C14609D
:101410001124027013534DF7800E434D08534DFBBA
:101420008006434D08434D04AD4DE4FF020FC38FCA
:10143000548D557F021207678F567F011207678F01
:1014400057E55424FA500624076021802EAF5474C7
:1014500001A807088002C333D8FCFF4256E5556057
:1014600005EF42578015EFF45257800F75563FE550
:1014700055600575573F8003E4F557AD567F02125E
:101480000FC3AD577F01020FC3E4F54CEF24FE54A8
:1014900003FFE54C54FC4FF54CAD4C7F03020FC3EA
:1014A000900047A3E0FF8F4C7F061207678F4DE542
:1014B0004C540325E0FFE54D54F94FF54DAD4D7FFC
:1014C00006020FC38F4C7F061207678F4DE54C60F5
:1014D0000924FE700D434D208003534DDF534DF71B
:1014E0008006534DDF434D08AD4D7F06020FC37F8D
:1014F00017120767EFC45401FF227F17120767EF27
:10150000C4135401FF227F09120767EF5401FF2221
:101510001207638F4DE54C7F0060027F01EF54019D
:1015200025E025E0FFE54D54FB4FF54DAD4D7F1D0A
:10153000020FC31207638F4DE54C7F0060027F01ED
:10154000EF540125E0FFE54D54FD4FF54DAD4D7FC6
:101550001D020FC3EF6009E5A3448054F7F5A322F1
:1015600053A37722E5AD7F0130E3027F0222EF54DF
:0A15700007FFE5AD54F84FF5AD227A
:00000001FF
