:1000000002059B50001504192A3F4D000000000016
:1000100000000000000045004F0104070A0D4100E8
:1000200010FF4100570041005A0042005B000042AF
:1000300000250000007F021214017F031213D47FF9
:0A004000011213E2114EBF02FB2271
:10004B00021000E5AD7F0130E3027F022290005DDC
:0D005B00E0FF22A206E433FF227F60E17E79
:10006B00C19D0203B5E86480F8E933E833601104FD
:10007B0060F0ED33EC337009E8FCE9FDEAFEEBFFD1
:10008B00220460DED3EB9FEA9EE99DE8C2E78CF089
:10009B00C2F795F0400CE8CCF8E9CDF9EACEFAEBD3
:1000AB00CFFB12038085D0F05804700320D5B3E842
:1000BB000470075002B2D50203BF92D5EC0460F76F
:1000CB00E4CCC0E0C398F8603B94186008400DD0B6
:1000DB00E0FB020397E4FBFAC9FC8028E830E40656
:1000EB00E4C9FBE4CAFCE830E305E4C9CACBFCE88D
:1000FB0054076010F8C3E913F9EA13FAEB13FBEC9E
:10010B0013FCD8F130F52FC3E49CFCEF9BFFEE9A68
:10011B00FEED99FDD0E0FBEF4E4D4C701222DB0350
:10012B000203BCEC2CFCEF33FFEE33FEED33FDEDA5
:10013B0030E7EB020397EF2BFFEE3AFEED39FDD0E4
:10014B00E0FB50130BBB00030203BFED13FDEE13DB
:10015B00FEEF13FFEC13FC020397EC4D6011E84923
:10016B007017ED33EC3304600DE4FCFFFEFD22E968
:10017B0033E8330470F80203B512038058046009A6
:10018B00E4CC248150062850090203BF2840030207
:10019B0003BCC0E0EB4A7044B98006D0E0FB02031D
:1001AB00ABEF4E701CBD8008EBFFEAFEE9FD80EB68
:1001BB00E98DF0A4FEE5F002024EE9CDF9EAFEEB83
:1001CB00FFEF89F0A4FCE5F0CE89F0A42EFFE43517
:1001DB00F0CD89F0A42DFEE435F08067EF4E70056D
:1001EB00BD80D780C3EF8BF0A4ACF0EE8BF0A42CCA
:1001FB00FCE435F0F8EF8AF0A42CE5F038FCE4339E
:10020B00CB8DF0A42CFCE5F03BF8EE8AF0A42CFC93
:10021B00E5F038F8E433CF89F0A42CFCE5F038CFC7
:10022B003400CE89F0A42FFFE5F03EFEE433C98DF8
:10023B00F0A42EFEE5F039CD8AF0A42FFFE5F03EB9
:10024B00FEE43DFD33D0E0FB50070BBB000F020378
:10025B00BFEC2CFCEF33FFEE33FEED33FD020397C7
:10026B000203BFEC5D046005E8590470030203B59B
:10027B00120380580460F6EC4860F2EC7004FDFE4B
:10028B00FF22C860DB2481C85009C3986002500666
:10029B000203BC9850CAF582E9294B4A7005AB8220
:1002AB000203AB75F0007C1A7880C3EF9BEE9AEDDE
:1002BB0099400DC3EF9BFFEE9AFEED99FDE842F0DE
:1002CB00DC23ACF0D0E0FFD0E0FED0E0FDAB822031
:1002DB00E7101BEB60BAEC2CFCEF33FFEE33FEEDBB
:1002EB0033FD020397E803F830E705C0F075F00023
:1002FB00EF2FFFEE33FEED33FD40B830E7C280AA9F
:10030B0075F020800E75F010800575F0087D007E6D
:10031B00007F003392D530D5031204ABEC33401081
:10032B00EF33FFEE33FEED33FDEC33FCD5F0ED2276
:10033B00E5F0247EA2D513CC92E7CDCEFF22EDD2F1
:10034B00E7CD33EC3392D524814006E4FFFEFDFC70
:10035B0022FCE4CFCECDCC24E0501174FF80EDC352
:10036B00CC13CCCD13CDCE13CECF13CF0470F03036
:10037B00D5DE0204ABE9D2E7C933E833F892D5ED09
:10038B00D2E7CD33EC33FC5002B2D522EC30E71080
:10039B000FBF000C0EBE00080DBD00040BEB60146C
:1003AB00A2D5EB13FCED92E7FD2274FFFCFDFEFFE3
:1003BB0022E480F8A2D574FF13FC7D80E480EFBBB0
:1003CB00010689828A83E0225002E722BBFE02E308
:1003DB002289828A83E49322BB010CE58229F58270
:1003EB00E5833AF583E0225006E92582F8E622BB45
:1003FB00FE06E92582F8E222E58229F582E5833AB9
:10040B00F583E49322BB010689828A83F022500292
:10041B00F722BBFE01F322F8BB010DE58229F58221
:10042B00E5833AF583E8F0225006E92582C8F622E7
:10043B00BBFE05E92582C8F222EF8DF0A4A8F0CF10
:10044B008CF0A428CE8DF0A42EFE22BC000BBE0097
:10045B0029EF8DF084FFADF022E4CCF875F008EFB6
:10046B002FFFEE33FEEC33FCEE9DEC984005FCEEDB
:10047B009DFE0FD5F0E9E4CEFD22EDF8F5F0EE840C
:10048B0020D21CFEADF075F008EF2FFFED33FD40D1
:10049B0007985006D5F0F222C398FD0FD5F0EA224B
:1004AB00C3E49FFFE49EFEE49DFDE49CFC22E70970
:1004BB00F608DFFA8046E709F208DFFA803E888209
:1004CB008C83E709F0A3DFFA8032E309F608DFFA41
:1004DB00806EE309F208DFFA806688828C83E30979
:1004EB00F0A3DFFA805A89828A83E0A3F608DFFA49
:1004FB00804E89828A83E0A3F208DFFA804280D2A1
:10050B0080FA80C680D4805580F28029801080A626
:10051B0080EA809A80A880DA80E280CA8029888469
:10052B008C8589828A83E493A30592F0A31592DFCD
:10053B00F5DEF3800B89828A83E493A3F608DFF957
:10054B00ECFAA9F0EDFB2288848C8589828A83E002
:10055B00A30592F0A31592DFF6DEF480E389828A7D
:10056B0083E493A3F208DFF980D688F0EF60010EE5
:10057B004E60CD88F0ED2402B4040050C3F582EB3D
:10058B002402B4040050B923234582239005097338
:10059B00787FE4F6D8FD75816A0205E202064CE429
:1005AB0093A3F8E493A34003F68001F208DFF480F1
:1005BB0029E493A3F85407240CC8C333C4540F4441
:1005CB0020C8834004F456800146F6DFE4800B011B
:1005DB0002040810204080900003E47E019360BC6D
:1005EB00A3FF543F30E509541FFEE493A360010EB3
:1005FB00CF54C025E060A840B8E493A3FAE493A3DA
:10060B00F8E493A3C8C582C8CAC583CAF0A3C8C5FA
:10061B0082C8CAC583CADFE9DEE780BE0205080BC4
:10062B000E0004FFFFFFFFFFFF0001003FFFFFFF76
:10063B00FFFFFFFFFFFFFF003F00030001FFFFFF76
:10064B00FFE4F52911351208497F021213F2114EFE
:10065B00BF02FB7D027C00E4FFD1E7D2AF1158EF64
:10066B00701DE529D394144016E580F4F52A7B0020
:10067B007A00792AE4F5497D011209CFE4F529C204
:10068B00AF115EEF700375A40475A407D2AF0529F3
:10069B0080CBC0E0C0F0C083C082C085C084C09254
:1006AB005392FEC0D075D000C000C001C002C00381
:1006BB00C004C005C006C007121147D007D006D032
:1006CB0005D004D003D002D001D000D0D0D092D02E
:1006DB0084D085D082D083D0F0D0E032120D70EF71
:1006EB00C394105048EF25E0242FF582E43400F535
:1006FB0083ECF0A3EDF0EF24FB603024FD602424A9
:10070B00FC6024146012240D7023ED4C6006ED6424
:10071B00014C7019C2038015ED64014C700FFFF191
:10072B0043800AD20A8006F1D48002D202D2B9D217
:10073B00BDC20BA20C92EA22EF60122007157F01BB
:10074B00F15F7F03AE071FEE70FAD20722E4FFF1D1
:10075B005FC207228F1AE4FFF17E8F1BE51AB401EB
:10076B0005431B028003531BFDAD1BE4FF803D8F34
:10077B004A7F1DC2E98FE7E5E6540260FAAFE7E472
:10078B00F5E7E5E6540260FAAFE7D2E9228F52E4CF
:10079B00FFF17E8F53E552B40105435301800353A0
:1007AB0053FEAD53E4FF80047D707F07C2E9EF2455
:1007BB0020F5E7E5E6540260FAAFE78DE7E5E6548E
:1007CB000260FA85E71ED2E922900047A3E0FF8F73
:1007DB004A7F06F17E8F4BE54A540325E0FFE54B3C
:1007EB0054F94FF54BAD4B7F0680C1F1B3EF54700D
:0207FB00FF22DB
:10080000AD07AC06E4FF71170F7117E4120310E493
:10081000FBFAF978471201657B007A2479747849EC
:1008200012026EE4FBFAF9783F120074120349EFEA
:1008300024FFFFEE34FFFEE5B35406FD53B3F9EF9A
:10084000F5B4EEF5B5ED42B32278457C007D007B32
:10085000FF7A0679277E007F05120575B170C2E820
:10086000A20B92EAC20C7F011215337F0112151000
:100870007FFF121504E4900014F090002C7405F032
:10088000C209C20AE4900011F0C208D201D202C229
:1008900006D20090002DF0A3F0C203C204C205905E
:1008A0000056F07B017A00794FFF31947B007A008B
:1008B00079457F0131947545037B007A0079457F46
:1008C0000231947545047B007A0079457F033194A9
:1008D0007545057B007A0079457F0431947545069E
:1008E0007B007A0079457F053194900014E024154F
:1008F000F582E43400F583E0FF121132E490002F1A
:10090000F0A3F0A304F0A374F4F0A3E4F0A3740242
:10091000F0A3E4F0A37423F0E4A3F0A3F0A3F0A306
:10092000743FF0E4900045F0A3F090003BF0A3F09A
:10093000A3F0A37464F0A37403F0A374F0F0A374A1
:1009400001F0A37468F0A3E4F0A37402F0900047F0
:10095000E4F0A37403F0E4A3F0A3F0A3F0A374966F
:10096000F0A3E4F0A37432F01207D47F011214C292
:100970007F0212140D7F051214AB1207F6910B7152
:100980000E7FF07E031100B1A30207387B017A00CD
:10099000794FE4FF8F528B538A548955E552146086
:1009A0000A24FB5017600424067023B1508F5AE5C7
:1009B00052242AFFAB53AA54A955612EE552240AAA
:1009C000FFAB53AA54A9551203CAFD1207B7228BD5
:1009D000458A4689478D48E5486005D3941B400306
:1009E0007F0022900027E548F090005DE0B402020D
:1009F000B183B170900011E065496005E549F0D21E
:100A00000190005DE0600241F72001024193C201C4
:100A1000D202FF1207987D01E4FF121451E54970DC
:100A20000E7B017A00794F7F063194318C80647B94
:100A3000007A00794A7F0171D78F51E549640160DE
:100A400038E54924FD601214601914602080007B91
:100A5000007A00794A7F02801C7B007A00794A7F05
:100A60000380127B007A00794A7F0480087B007A39
:100A700000794A7F0571D78F517B007A00794AE46B
:100A8000FF31947B007A00794A7F0631947D01AF73
:100A900049F1B0E4900012F0A3F0900054F0A3F0FC
:100AA000900058F0A3F0710E7122C20090002FE068
:100AB000F54FA3E0F5507F01120743300317E54FD0
:100AC000700BE55024FD60071460068000801480E0
:100AD000167F028014E54F700EE55024FE6004245A
:100AE000027004E4FF80027F0112106990005D74BF
:100AF00001F0120738FF2220010E1214F8EF7008DF
:100B000071221207387F01221207387F0022C2E9C2
:100B10007FE19114D2E922EF600443B3012253B381
:100B2000FE22AB45AA46A947AD488D5A7FA08B57F8
:100B30008A588959AD57C2E98FE7ED701985595C1C
:100B4000A85CE6FE055CE5E6540260FA85E75B8E8C
:100B5000E7D55AEC8075ED6401702685585C85599F
:100B60005D855D82855C83E0FE055DE55D70020567
:100B70005CE5E6540260FA85E75B8EE7D55AE280D1
:100B80004AED64FE701985595CA85CE2FE055CE5DF
:100B9000E6540260FA85E75B8EE7D55AEC802C8537
:100BA000575C85585D85595EAB5CAA5DA95E1203F2
:100BB000CAFE7401255EF55EE4355DF55DE5E6543B
:100BC0000260FA85E75B8EE7D55ADDE5E654026000
:100BD000FA85E75BD2E9228F528B538A548955E517
:100BE0005214600824FB60042406700AAB53AA5414
:100BF000A955AF528028E552240AFF12077EAB5355
:100C0000AA54A955EF1204107F0122C2E97FE29194
:100C100014D2E9228FE7E5E630E1FBAFE7228F5FF0
:100C20008B608A618962756701856065E55F146024
:100C30000C24FB600824FE601324087029B1508F37
:100C4000638F64C2E9E55F240AFF8016B15A8F5FA3
:100C5000E55FC39407500F1200648F638F64C2E98D
:100C60007F6191148005E4F564F563E5657027857F
:100C70006268E4F5E7E5677008A868A6660568801D
:100C800003E4F567E5E6540260FA85E766D563E2BA
:100C9000A868A666A147E5656401703A8561688524
:100CA0006269E4F5E7E5677013856982856883E525
:100CB00066F00569E569700205688003E4F567E59B
:100CC000E6540260FA85E766D563D7856982856850
:100CD00083E566F08071E56564FE7029856268E4ED
:100CE000F5E7E5677009A868E566F205688003E442
:100CF000F567E5E6540260FA85E766D563E1A86822
:100D0000E566F2804285606885616985626AE4F51E
:100D1000E7E5677018AB68AA69A96AE5661204106E
:100D20007401256AF56AE43569F5698003E4F567BD
:100D3000E5E6540260FA85E766D563D2AB68AA6936
:100D4000A96AE566120410D2E9E55FFEE564FF22B8
:100D50007F0312077EEF2402FF22B167EF540EFFDC
:100D6000E4C313EF13FF22C2E97FFF9114D2E922FB
:100D7000A2AFE433C2AFC2B9C2BDD20BD2EA24FFE4
:100D800092AF2290005DE0B4010AD20990005DE0CC
:100D9000601080F890005DE0B40207B170B1A3125A
:100DA000073822C2E8A20B92EAC20C90005DE0B4C0
:100DB00002057F0F12104A900049E07004A3E0641E
:100DC000017003FF80027F01120743C206C209E4DB
:100DD00090005DF022C2B9C2BDD20BD2EA12143C1F
:100DE0008F27E52730E633D204F1F1EF24FF920597
:100DF000F19890005DE0B40121900011E0FF9000B7
:100E000056E0FE2429F582E43400F583EFF0EEC3CA
:100E100094025006900056E004F0E52720E40330E9
:100E2000E51CF1E7EF04F524900028E0C39524F0D9
:100E3000900059E02524F0900058E03400F0E527B8
:100E400020E502C1E690005DE064016002C1E6D2E7
:100E50000A900027E0241275F004A4FF900042E0FD
:100E60002FFF900041E035F0FEC3900040E09FFF6F
:100E700090003FE09EFEE52730E60874D82FFF740F
:100E8000FF3EFE11001213C4F19890002FE0F525EB
:100E9000A3E0F52690004BE0FFA3E090002DCFF0FB
:100EA000A3EFF0E526640245256010E526640345BE
:100EB000256008E526640445257002D2031214ED6E
:100EC000EF6006D200B1A3801D121120E490001241
:100ED000F0A3F0900058F0A3F0D2EAD2E8D20C7F51
:100EE0000AFEF189C2E8E52720E402E174C2E8A223
:100EF0000B92EAC20C900013E02524F0900012E05F
:100F00003400F0900031E0F525A3E0F526E5264514
:100F100025600FC3900013E09526900012E0952500
:100F20005003300904B1A3804B900028E0703E903C
:100F3000004DE0FEA3E0FFD3900055E09F900054E9
:100F4000E09E400DE490002DF0A3F0C2037F0180ED
:100F500017300312121325D3EF9401EE94004002D0
:100F6000C2067F0280027F0312106980071210E11F
:100F7000F17FC2E8C20BA20C92EAD2B9D2BD22D252
:100F8000EAD2E8D20C7F0A7E000000000000EF1FCA
:100F900070011E144E70F222900043E0FFA3E09017
:100FA000005BCFF0A3EFF0900014E090005AF02225
:100FB000EFD394004005900010EFF0900010E0FF98
:100FC000C43333335480FEEFC4333354806206E0BD
:100FD000FFC43354806206EF54806206E0C3134EB0
:100FE000F08DF084AFF0227F0812077EEF540FFFE0
:0B0FF000227F0912077EEF5401FF2250
:10100000C0E0C0F0C083C082C085C084C09253924B
:10101000FEC0D075D000C000C001C002C003C00433
:10102000C005C006C007120DD5D007D006D005D028
:1010300004D003D002D001D000D0D0D092D084D040
:1010400085D082D083D0F0D0E032AE071FEED394AB
:101050000040157C007D2DED1DAA0470011CD39469
:1010600000EA940040E480EF228F18312011E1E57E
:101070001814601014601B14601E8000900014E0AF
:10108000F519802890002CE0FDE4FF120FB08F19B5
:10109000801A51FE8F198014900014E004F5199005
:1010A000002CE0FFE5198FF08485F019900014E022
:1010B0006519601FE519F0E02415F582E43400F5A8
:1010C00083E0FF3132900055E004F0700690005448
:1010D000E004F0300303D20822D206120F7FC2E8E8
:1010E00022900028E0D3940F40087DFA7C007F0F07
:1010F000800C900028E0C39401FF7DFA7C00AB07D0
:10110000EC540FC454F0FFE51C540F4FF51CEB5486
:101110000FFFE51C54F04FF51CAD1C7F040207B710
:101120003003059000338003900035A3E090002841
:10113000F022E4F51DEF547FFFE51D54804FF51DAF
:10114000AD1D7F050207B7C2B9C2BD715E300A0D81
:1011500090003FE0FEA3E0FF120800C20A90005D8D
:10116000E06402600221FE51547522008F23D20BED
:10117000D2EA900014E065237002E5226022C2E802
:10118000A20B92EAC20C74152FF582E43400F583A9
:10119000E0FF3132D2EAD2E8D20C900014E523F01D
:1011A000516F8E228F23516FEF4E700F7F01120708
:1011B00043D206D2EAD2E8D20C800FC2E8A20B9248
:1011C000EAC20CC206E4FF120743900013E004F0E9
:1011D0007006900012E004F090003BE0FEA3E08E69
:1011E00022F523D39400EE9400403F900013E09545
:1011F00023900012E095224031120DA3802C900024
:101200005DE06401702430082171258E228F233027
:10121000030FE523452270125154900014E0B507E6
:1012200009120F7FC2E8D206C208D390002EE094C4
:101230000090002DE09400400EA3E024FFF0900009
:101240002DE034FFF08002C203C20BA20C92EAD25E
:10125000B9D2BD22D390005CE0940090005BE09492
:1012600000400690005AE0FF22900057E0FF2290D5
:101270000037E07002A3E0600FD390005CE09400C0
:1012800090005BE094004004E4FEFF22900025E023
:101290007002A3E07003FEFF22900035E0FEA3E0A1
:1012A000FF7C017DDC12044490003FE0FCA3E0FDE4
:1012B000120456AB07AA0690002CE0FF7E00AD0397
:1012C000AC02120444D3900026E09F900025E09EDB
:1012D0005016E0FEA3E0FF120456C3EB9DFFEA9C0C
:1012E000CF24FFCF34FFFE22900025E0FEA3E0FFD5
:1012F000C390003EE09FFF90003DE09EFE22D39011
:10130000005CE0940190005BE09400400690005A7D
:10131000E0FF22900057E004FF90002CE0FEEF8EEB
:10132000F084AFF022900037E07002A3E0600FD3AA
:1013300090005CE0940090005BE094004004E4FEC8
:10134000FF22900025E0FCA3E0FD4C7003FEFF228D
:10135000C390003EE09DFF90003DE09CFE22D390B4
:10136000005CE0940090005BE09400400CA3E0245B
:10137000FFF090005BE034FFF0900026E02401FFD6
:10138000900025E03400FE90003DE0FCA3E0FD125B
:101390000456900025ECF0A3EDF0900037E07002C9
:1013A000A3E0600A900025E07002A3E070159000B1
:1013B00057E004FF90002CE0FEEF8EF08490005781
:1013C000E5F0F022900014E0900057F0E490002542
:1013D000F0A3F022EF25E05406FFE5B354F94FF5F2
:1013E000B322EF6009E5A3448054F7F5A32253A389
:1013F0007722EF5403C454F0FFE5A354C74FF5A37D
:1014000022EF5407FFE5AD54F84FF5AD228F4AE4C3
:10141000FF12077E8F4BE54A14600C146011240202
:101420007013534BF7800E434B08534BFB8006431E
:101430004B08434B04AD4BE4FF0207B71207B3EF71
:101440005470F5287F0712077EEF540F4228AF280B
:10145000228F528D537F0212077E8F547F01120715
:101460007E8F55E55224FA500624076021802EAF66
:10147000527401A807088002C333D8FCFF4254E528
:10148000536005EF42558015EFF45255800F7554A7
:101490003FE553600575553F8003E4F555AD547F36
:1014A000021207B7AD557F010207B7E4F54AEF24F2
:1014B000FE5403FFE54A54FC4FF54AAD4A7F030250
:1014C00007B78F4A7F0612077E8F4BE54A600924D3
:1014D000FE700D434B208003534BDF534BF78006C8
:1014E000534BDF434B08AD4B7F060207B77F171204
:1014F000077EEFC45401FF227F1712077EEFC4134B
:101500005401FF22EF543FF54AAD4A7F1C0207B752
:1015100012077A8F4BE54A7F0060027F01EF54018A
:1015200025E025E0FFE54B54FB4FF54BAD4B7F1D10
:101530000207B712077A8F4BE54A7F0060027F01EE
:10154000EF540125E0FFE54B54FD4FF54BAD4B7FCC
:041550001D0207B7BA
:00000001FF
