:1000000002077D50009204192A3F4D0000000000B5
:100010000000000000004500CC0104070A0D41006B
:100020008DFF4100D4004100D7004200D8000042BB
:1000300000A2000000D2B9D2BDC20BA20C92EA22EB
:10004000120D741227D680EDAFD722021AD1000408
:1000500006080A32536601172D391A440C400D491F
:100060000D3E1A2D0C4D7F60021223020A1002036E
:10007000B6E86480F8E933E83360110460F0ED33EA
:10008000EC337009E8FCE9FDEAFEEBFF220460DED8
:10009000D3EB9FEA9EE99DE8C2E78CF0C2F795F0AA
:1000A000400CE8CCF8E9CDF9EACEFAEBCFFB12032D
:1000B0008185D0F05804700320D5B3E80470075050
:1000C00002B2D50203C092D5EC0460F7E4CCC0E0E4
:1000D000C398F8603B94186008400DD0E0FB020321
:1000E00098E4FBFAC9FC8028E830E406E4C9FBE4A4
:1000F000CAFCE830E305E4C9CACBFCE85407601049
:10010000F8C3E913F9EA13FAEB13FBEC13FCD8F18B
:1001100030F52FC3E49CFCEF9BFFEE9AFEED99FDBA
:10012000D0E0FBEF4E4D4C701222DB030203BDEC1E
:100130002CFCEF33FFEE33FEED33FDED30E7EB0249
:100140000398EF2BFFEE3AFEED39FDD0E0FB5013A4
:100150000BBB00030203C0ED13FDEE13FEEF13FF14
:10016000EC13FC020398EC4D6011E8497017ED3375
:10017000EC3304600DE4FCFFFEFD22E933E83304B8
:1001800070F80203B612038158046009E4CC24819C
:1001900050062850090203C02840030203BDC0E0F6
:1001A000EB4A7044B98006D0E0FB0203ACEF4E701E
:1001B0001CBD8008EBFFEAFEE9FD80EBE98DF0A4B1
:1001C000FEE5F002024FE9CDF9EAFEEBFFEF89F020
:1001D000A4FCE5F0CE89F0A42EFFE435F0CD89F043
:1001E000A42DFEE435F08067EF4E7005BD80D7800A
:1001F000C3EF8BF0A4ACF0EE8BF0A42CFCE435F054
:10020000F8EF8AF0A42CE5F038FCE433CB8DF0A4B1
:100210002CFCE5F03BF8EE8AF0A42CFCE5F038F875
:10022000E433CF89F0A42CFCE5F038CF3400CE893C
:10023000F0A42FFFE5F03EFEE433C98DF0A42EFEBE
:10024000E5F039CD8AF0A42FFFE5F03EFEE43DFD58
:1002500033D0E0FB50070BBB000F0203C0EC2CFCBB
:10026000EF33FFEE33FEED33FD0203980203C0ECE3
:100270005D046005E8590470030203B61203815857
:100280000460F6EC4860F2EC7004FDFEFF22C860EA
:10029000DB2481C85009C398600250060203BD9850
:1002A00050CAF582E9294B4A7005AB820203AC754E
:1002B000F0007C1A7880C3EF9BEE9AED99400DC355
:1002C000EF9BFFEE9AFEED99FDE842F0DC23ACF0E7
:1002D000D0E0FFD0E0FED0E0FDAB8220E7101BEBCA
:1002E00060BAEC2CFCEF33FFEE33FEED33FD02037E
:1002F00098E803F830E705C0F075F000EF2FFFEE47
:1003000033FEED33FD40B830E7C280AA75F020809F
:100310000E75F010800575F0087D007E007F0033BB
:1003200092D530D50312050BEC334010EF33FFEEBE
:1003300033FEED33FDEC33FCD5F0ED22E5F0247E09
:10034000A2D513CC92E7CDCEFF22EDD2E7CD33EC90
:100350003392D524814006E4FFFEFDFC22FCE4CF6D
:10036000CECDCC24E0501174FF80EDC3CC13CCCDA6
:1003700013CDCE13CECF13CF0470F030D5DE0205EF
:100380000BE9D2E7C933E833F892D5EDD2E7CD33A4
:10039000EC33FC5002B2D522EC30E7100FBF000C5A
:1003A0000EBE00080DBD00040BEB6014A2D5EB13CC
:1003B000FCED92E7FD2274FFFCFDFEFF22E480F8D5
:1003C000A2D574FF13FC7D80E480EFBB0106898217
:1003D0008A83E0225002E722BBFE02E32289828A5E
:1003E00083E49322BB010CE58229F582E5833AF58B
:1003F00083E0225006E92582F8E622BBFE06E925C5
:1004000082F8E222E58229F582E5833AF583E493D6
:1004100022BB010FF8E58229F582E5833AF583E0F6
:1004200028F0225009C58229F8E58226F622BBFE73
:1004300009C58229F8E22582F222F8EA2583F583AC
:10044000E9932822BB010689828A83F0225002F7B1
:1004500022BBFE01F322F8BB010DE58229F582E5FE
:10046000833AF583E8F0225006E92582C8F622BBDC
:10047000FE05E92582C8F222EF8DF0A4A8F0CF8C0A
:10048000F0A428CE8DF0A42EFE22BC000BBE0029C5
:10049000EF8DF084FFADF022E4CCF875F008EF2F7B
:1004A000FFEE33FEEC33FCEE9DEC984005FCEE9D38
:1004B000FE0FD5F0E9E4CEFD22EDF8F5F0EE842054
:1004C000D21CFEADF075F008EF2FFFED33FD4007B5
:1004D000985006D5F0F222C398FD0FD5F0EA22C558
:1004E000F0F8A3E028F0C5F0F8E582158270021557
:1004F00083E038F022A3F8E0C5F025F0F0E582159E
:100500008270021583E0C838F0E822C3E49FFFE45C
:100510009EFEE49DFDE49CFC22E3F5F009E208B5B3
:10052000F06BDFF58067E3F5F009E608B5F05EDF14
:10053000F5805A87F009E608B5F052DFF6804E875D
:10054000F009E208B5F046DFF6804288828C8387A6
:10055000F009E0A3B5F036DFF6803288828C83871D
:10056000F009E493A3B5F025DFF5802188828C8320
:10057000E3F5F009E0A3B5F014DFF5801088828C74
:1005800083E3F5F009E493A3B5F002DFF402063447
:10059000808780E9809080D4803480158064807466
:1005A000809D80B7808D80A38047806A803202065C
:1005B0004088848C8589828A83E493F5F0A3059230
:1005C000E493A31592B5F06CDFEFDEED80668982CF
:1005D0008A83E493F5F0A3E208B5F058DFF4805481
:1005E00089828A83E0F5F0A3E608B5F047DFF5805D
:1005F0004389828A83E0F5F0A3E208B5F036DFF59F
:10060000803289828A83E493F5F0A3E608B5F0246A
:10061000DFF480208002804388848C8589828A83ED
:10062000E493F5F0A30592E0A31592B5F006DFF090
:10063000DEEE80007FFFB5F0020F2240027F012234
:1006400088848C8589828A83E0F5F0A30592E0A3F3
:100650001592B5F0DFDFF1DEEF80D988848C8589D3
:10066000828A83E0F5F0A30592E493A31592B5F096
:10067000C3DFF0DEEE80BD88F0EF60010E4E60BF9C
:10068000ED2402B4040050ACF582EB2402B4040063
:1006900050A2232345822390059073E709F608DFD3
:1006A000FA8046E709F208DFFA803E88828C83E709
:1006B00009F0A3DFFA8032E309F608DFFA806EE37F
:1006C00009F208DFFA806688828C83E309F0A3DFF1
:1006D000FA805A89828A83E0A3F608DFFA804E897D
:1006E000828A83E0A3F208DFFA804280D280FA8017
:1006F000C680D4805580F28029801080A680EA8050
:100700009A80A880DA80E280CA802988848C8589D2
:10071000828A83E493A30592F0A31592DFF5DEF3BA
:10072000800B89828A83E493A3F608DFF9ECFAA9A7
:10073000F0EDFB2288848C8589828A83E0A3059270
:10074000F0A31592DFF6DEF480E389828A83E493D6
:10075000A3F208DFF980D688F0EF60010E4E60CD7D
:1007600088F0ED2402B4040050C3F582EB2402B4F7
:10077000040050B923234582239006EB73787FE46D
:10078000F6D8FD7581210207C4020939E493A3F864
:10079000E493A34003F68001F208DFF48029E49398
:1007A000A3F85407240CC8C333C4540F4420C8838F
:1007B0004004F456800146F6DFE4800B0102040891
:1007C00010204080900003E47E019360BCA3FF549E
:1007D0003F30E509541FFEE493A360010ECF54C0DF
:1007E00025E060A840B8E493A3FAE493A3F8E49367
:1007F000A3C8C582C8CAC583CAF0A3C8C582C8CA6F
:10080000C583CADFE9DEE780BE637C777BF26B6F6E
:10081000C53001672BFED7AB76CA82C97DFA59472E
:10082000F0ADD4A2AF9CA472C0B7FD9326363FF7BB
:10083000CC34A5E5F171D8311504C723C31896054A
:100840009A071280E2EB27B27509832C1A1B6E5AA5
:10085000A0523BD6B329E32F8453D100ED20FCB145
:100860005B6ACBBE394A4C58CFD0EFAAFB434D331D
:100870008545F9027F503C9FA851A3408F929D3837
:10088000F5BCB6DA2110FFF3D2CD0C13EC5F974420
:1008900017C4A77E3D645D197360814FDC222A90E6
:1008A0008846EEB814DE5E0BDBE0323A0A490624D5
:1008B0005CC2D3AC629195E479E7C8376D8DD54EB3
:1008C000A96C56F4EA657AAE08BA78252E1CA6B44F
:1008D000C6E8DD741F4BBD8B8A703EB5664803F6D3
:1008E0000E613557B986C11D9EE1F8981169D98E00
:1008F000949B1E87E9CE5528DF8CA1890DBFE64267
:100900006841992D0FB054BB168D010204081020C8
:1009100040801B360205080B0E0004FFFFFFFFFF9F
:10092000FF0001003FFFFFFFFFFFFFFFFFFFFF0092
:100930003F00030001FFFFFFFFF1DBD12791F47FB0
:100940000191A57F05917FAC06EF4404FD7F053141
:10095000BAE4F593D2AF714F71BE121EDEEF6003A1
:100960001220F5121B1BEF6402600612208FEF604D
:10097000E790005BE4F0A3F0A3F0F9A3C9F0A3F0C3
:10098000A3E9F07B017A007917B187EF6008900046
:1009900017E0F58080C2900035E4F0A3F0A3F07B6F
:1009A000017A00791712209D900017E0F58080A849
:1009B000917FAC06EF4401FD7F05AE07B174EEC335
:1009C00094105049EE25E024ACF582E43400F58320
:1009D000ECF0A3EDF0EE24FB603124FD602424FC58
:1009E0006024146012240D7024ED4C6006ED640147
:1009F0004C701AC2038016ED64014C7010FFB12DCB
:100A0000800BD20A800712138F8002D202020035B7
:100A1000C0E0C0F0C083C082C085C084C092539241
:100A2000FEC0D075D000C000C001C002C003C00429
:100A3000C005C006C00712185AD007D006D005D08E
:100A400004D003D002D001D000D0D0D092D084D036
:100A500085D082D083D0F0D0E03290004EEBF0A36E
:100A6000EAF0A3E9F0E49000F0F0B14B7F05917F4C
:100A7000900051EFF07F04917F900052EFF0121F31
:100A8000F2EF7002613AE4FDFC7F0531BAE4FDFC4F
:100A90007F0431BA7D967C007F0631BAD119714F3F
:100AA00091EEEF70FB9000537408F07B017A0079AF
:100AB000547D041221297B017A007953E49000646B
:100AC000F07D05121D1F7D5E7C017F0631BA7D0120
:100AD0007C007F0531BA714F91EEEF603B90005B77
:100AE000E4F0A3F0A3F0F9A3C9F0A3F0A3E9F09018
:100AF000004EE0FBA3E0FAA3E0F9B187EF60D990E4
:100B0000004EE0FBA3E0FAA3E0F91203CBB401C866
:100B10009000F07401F080C0120040D119E4FDFC97
:100B20007F0631BA900051E0FD7C007F0531BA901C
:100B30000052E0FD7C007F048013900051E054FEE1
:100B4000FD7C007F0531BA7DF47C017F0631BAB1AE
:100B50004B300250B174C202D201F1797FFF121200
:100B60003DE4900060F0900060E0FFC39406502FD9
:100B700074017E00A807088005C333CE33CED8F9B0
:100B8000FF9000B6E05EFEA3E05F4E600A9000605A
:100B9000E0FF7D011212B7900060E004F080C77F93
:100BA000011213B47F01B12DE490008FF0A3F090F7
:100BB00000DA7402F0D2EAD2E8D20C020035E490F6
:100BC00000F0F0121B1BEF600A640170799000DBEB
:100BD000E0707390005B7401F0A37400F0A37432B2
:100BE000F0A3E4F0A3F0A3F07B017A007933B1879E
:100BF000900033E024FE601A14602214602A14600E
:100C00002C1460342406703E7B017A007933515AEB
:100C100080347B017A0079331221E180297B017ACB
:100C2000007933122261801E121EB380197B017A73
:100C3000007933122504800E7B017A00793390000D
:100C400032E0FD121EE991EEEF7012FDFC7F0631DD
:100C5000BA9000DCE060047F0531B0714FE4FF74AE
:100C6000DD2FF582E43400F583E004F074DD2FF528
:100C700082E43400F583E070050FEFB405E122AEA5
:100C800007B174EEC394105015120035EE25E02420
:100C9000ACF582E43400F583E0FEA3E0FF2212000D
:100CA00035E4FEFF22900032EFF091EE900033EF3A
:100CB000F0900032E0FF9000DCE06F6030B14B90CC
:100CC0000032E07F05600431B08011917FAC06EF07
:100CD00054FEFD7F0531BAE49000EFF0900032E061
:100CE0009000DCF0900033E0B40202714F229000DB
:100CF000DAE0FF227B017A0079327D041221297B20
:100D0000017A007932121B777F05917FAC06EF44A0
:100D100002FD7F0531BAE49000DCF09000F0F09025
:100D200000EFF09000DBF0FDFC7F0621BAEF6013CE
:100D30002007177F011213417F03AE071FEE70FAE1
:100D4000D20722E4FF121341C207229000DAE0B476
:100D5000010AD2099000DAE0601180F89000DAE030
:100D6000B40208B1741216B212003522EBF0A3EAF5
:100D7000F0A3E9F0A2AFE433C2AFC2B9C2BDD20B57
:100D8000D2EA24FF92AF22900058B16C200402C135
:100D900013120066900062EFF0D39420507390001D
:100DA00058E0FBA3E0FAA3E0F9F1F19000D3E0D31F
:100DB00094004010E014F0E024A6F582E43400F53D
:100DC00083E08001EE900061F01227BEEF6002C266
:100DD0000490005EE0FBA3E0FAA3E04A4B600EA3A0
:100DE000E0FF90005EA3A3E0F9EF12044490005BE3
:100DF000E0FBA3E0FAA3E04A4B6010900062E0FF42
:100E000090005BA3A3E0F9EF1204441200357F01C8
:100E100022D1191200357F0022B174F1D1E4900083
:100E2000D3F0C20402003578327C007D017BFF7A6A
:100E30000979147E007F05120757B174C2E8A20B2E
:100E400092EAC20C7F011213E07F0112140C7FFFA3
:100E50001227C8E4900091F09000A97405F0C2092F
:100E6000C20AE490008EF0C208D201D202C206D2B9
:100E7000009000AAF0A3F0C203C204C2059000D300
:100E8000F07B017A0079CCFFF1817B017A00793225
:100E90007F01F1819000327403F07B017A00793296
:100EA0007F02F1819000327404F07B017A00793284
:100EB0007F03F1819000327405F07B017A00793272
:100EC0007F04F1819000327406F07B017A00793260
:100ED0007F05F181900091E02492F582E43400F5E1
:100EE00083E0FF1217E1E49000ACF0A3F0A304F05C
:100EF000A374F4F0A3E4F0A37402F0A3E4F0A374E9
:100F000023F0E4A3F0A3F0A3F0A3743FF0E4900077
:100F1000C2F0A3F09000B8F0A3F0A3F0A37464F0C3
:100F2000A37403F0A374F0F0A37401F0A37468F049
:100F3000A3E4F0A37402F09000C4E4F0A37403F0FF
:100F4000E4A3F0A3F0A3F0A37496F0A3E4F0A374D9
:100F500032F012138F7F0112143A7F021214777F3E
:100F6000051227A712279BF1D11227D67FF07E0307
:100F70001218001216B20200357B017A0079CCE417
:100F8000FF900062EBF0A3EAF0A3E9F0900061EFBC
:100F9000F014600A24FB5021600424067032121100
:100FA000F690006EEFF0900061E0242AFFA3E0FBD2
:100FB000A3E0FAA3E0F9021D6E900061E0240AFFAD
:100FC000A3E0FBA3E0FAA3E0F91203CBFD12129514
:100FD00022C2E97FE2121215D2E9227F0212280012
:100FE0007F0312278D7F011227E01227F0BF02FA3C
:0B0FF000227F08800B9000A9E0FF2288
:10100000900127EBF0A3EAF0A3E9F0900126EFF0BE
:1010100090012E7401F0900127E090012CF0EF1464
:10102000600C24FB600824FE60182408703231F63E
:1010300090012AEFF0A3F0C2E9900126E0240AFF14
:10104000801A31FF900126EFF0C39407501212006E
:101050006690012AEFF0A3F0C2E97F615115800983
:10106000E490012BF090012AF090012CE0FF704BEE
:10107000900127A3A3E090012FF0E4F5E790012E63
:10108000E0701190012DE0FE90012FE0F8A606E03F
:1010900004F08005E490012EF0E5E6540260FA9039
:1010A000012DE5E7F090012AE014F070CD90012DBC
:1010B000E0FE90012FE0F8A60621E7EF64017069D9
:1010C000900127A3E0FAA3E0FF90012FEAF0A3EF3D
:1010D000F0E4F5E790012EE0702290012DE0FF9002
:1010E000012FE0FCA3E0F5828C83EFF0900130E06B
:1010F00004F0700690012FE004F08005E490012ECA
:10110000F0E5E6540260FA90012DE5E7F090012A3F
:10111000E014F070BC90012DE0FF90012FE0FCA3E3
:10112000E0F5828C83EFF021E790012CE064FE7003
:101130004B900127A3A3E090012FF0E4F5E7900185
:101140002EE0701190012DE0FF90012FE0F8EFF2FA
:10115000E004F08005E490012EF0E5E6540260FA28
:1011600090012DE5E7F090012AE014F070CD900198
:101170002DE0FF90012FE0F8EFF2806B900127E067
:10118000F9A3E0FAA3E090012FC9F0A3EAF0A3E9E4
:10119000F0E4F5E790012EE0702090012DE0FF9043
:1011A000012FE0FBA3E0FAA3E0F9EF120444900161
:1011B00030E475F0011204DF8005E490012EF0E5C3
:1011C000E6540260FA90012DE5E7F090012AE01460
:1011D000F070BE90012DE0FF90012FE0FBA3E0FA3C
:1011E000A3E0F9EF120444D2E9900126E0FE900159
:1011F0002BE0FDEDFF227F035123EF2402FF22515C
:101200000CEF540EFFE4C313EF13FF22C2E97FFF7C
:101210005115D2E9228FE7E5E630E1FBAFE722EF97
:10122000F07F06C2E98FE7E5E6540260FAAFE7E433
:10123000F5E7E5E6540260FAAFE7D2E922900061F3
:10124000EFF07F025123900062EFF07F0151239075
:101250000063EFF0900061E0FF24FA50062407607D
:101260001B80207401A807088002C333D8FCF4FD5A
:10127000900062E05DF0A3E05DF08007E490006222
:10128000F0A3F09000625191900063E0FD7F018037
:1012900004E0FD7F02C2E9EF2420F5E7E5E6540211
:1012A00060FAAFE7AE058EE7E5E6540260FA90011A
:1012B0003CE5E7F0D2E922900061EFF0A3EDF07F8A
:1012C000025123900063EFF07F015123900064EFFF
:1012D000F0900061E0FF24FA50062407603C805340
:1012E0007401A807088002C333D8FCFD900063E0B6
:1012F0004DF0900062E06008900064E04DF08033B3
:10130000900061E0FF7401A807088002C333D8FC95
:10131000F4FF900064E05FF08019900063743FF088
:10132000900062E06008900064743FF08005E490F3
:101330000064F09000635191900064E0FD7F0141F2
:1013400095900138EFF0E4FF5123900139EFF090D0
:101350000138E0B40107A3E04402F08007900139AE
:10136000E054FDF0900139E0FDE4FF41957D707F90
:10137000075195EF5470900016F0E0FFC0077F070B
:101380005123EF540FFED0E04EFF900016F0229054
:1013900000C4A3E0FF900058511F900059EFF09057
:1013A0000058E0540325E0FFA3E054F94FF0E0FDBE
:1013B0007F064195900061EFF0E4FF5123900062B9
:1013C000EFF0900061E0B40107A3E04401F0800772
:1013D000900062E054FEF0900062E0FDE4FF419571
:1013E000900037EFF07F1D5123900038EFF0900010
:1013F00037E07F0060027F01EF540125E0FF90009D
:1014000038E054FD4FF0E0FD7F1D4195900037EF2F
:10141000F07F1D5123900038EFF0900037E07F00FF
:1014200060027F01EF540125E025E0FF900038E0E5
:1014300054FB4FF0E0FD7F1D4195900037511F9008
:101440000038EFF0900037E0600C24FE701590003B
:1014500038E044208006900038E054DFF0E054F794
:10146000F0800B900038E054DFF0E04408F090008A
:1014700038E0FD7F064195900037EFF0E4FF5123FF
:10148000900038EFF0900037E014601014601A24D8
:10149000027021900038E054F7F08018900038E096
:1014A0004408F0E054FBF0800B900038E04408F072
:1014B000E04404F0900038E0FDE4FF4195C2B9C279
:1014C000BDD20BD2EA716D900015EFF030E633D249
:1014D00004D1EDEF24FF9205D19A9000DAE0B40137
:1014E0002190008EE0FF9000D3E0FE24A6F582E478
:1014F0003400F583EFF0EEC3940250069000D3E081
:1015000004F0900015E0FF20E40330E51ED1E4EF85
:1015100004FF900012F0FD9000A5E0C39DF0900044
:10152000D6E02FF09000D5E03400F0900015E0FDFB
:1015300020E502A1DB9000DAE064016002A1DBD2C9
:101540000A9000A4E0241275F004A4FF9000BFE00C
:101550002FFF9000BEE035F0FEC39000BDE09FFF7E
:101560009000BCE09EFEED30E60874D82FFF74FFBB
:101570003EFE121800122058D19A9000ACE0FEA353
:10158000E0FF900013EEF0A3EFF09000C8E0FDA3A1
:10159000E09000AACDF0A3EDF0EF64024E6013904E
:1015A0000013E0FEA3E0FF64034E6006EF64044E08
:1015B0007002D203D1F6EF6006D200D1B2801CF1E6
:1015C000CFE490008FF0A3F09000D5F0A3F0D2EA22
:1015D000D2E8D20C7F0AFED18BC2E8900015E02041
:1015E000E402C176C2E8A20B92EAC20C900012E0BB
:1015F000FF900090E02FF090008FE03400F090001A
:10160000AEE0FEA3E0FF900013EEF0A3EFF04E601B
:1016100015900013E0FEA3E0FFC3900090E09F90C0
:10162000008FE09E5003300904D1B280499000A59C
:10163000E0703D9000CAE0FEA3E0FFD39000D2E04E
:101640009F9000D1E09E400DE49000AAF0A3F0C26C
:10165000037F018017300312121A32D3EF9401EE88
:1016600094004002C2067F0280027F03F13D8006A3
:10167000F100D181C2E8C20BA20C92EAD2B9D2BD6C
:1016800022D2EAD2E8D20C7F0A7E000000000000DD
:10169000EF1F70011E144E70F2229000C0E0FFA3F5
:1016A000E09000D8CFF0A3EFF0900091E09000D749
:1016B000F022C2E8A20B92EAC20C9000DAE0B40277
:1016C000057F0F1220399000C6E07004A3E064018A
:1016D0007003FF80027F01120D2DC206C209E49043
:1016E00000DAF0227F085123EF540FFF227F0951C7
:1016F00023EF5401FF227F175123EFC45401FF222F
:101700009000A5E0D3940F40087DFA7C007F0F8005
:101710000C9000A5E0C39401FF7DFA7C00AB07ECC0
:10172000540FC454F0FF90013AE0540F4FF0EB54C3
:101730000FFFE054F04FF0E0FD7F0441959001363B
:10174000EFF0F1CFF100900136E014601214602048
:101750001460278000900091E0900137F080359070
:1017600000A9E0FDE4FF122000900137EFF0802493
:10177000122068900137EFF0801A900091E00490F9
:101780000137F0E0FF9000A9E0FEEF8EF0849001B9
:1017900037E5F0F0900091E0FF900137E0FE6F60D8
:1017A00021900091EEF0E02492F582E43400F5837C
:1017B000E0FFF1E19000D2E004F070069000D1E08B
:1017C00004F0300303D20822D206D181C2E82230CD
:1017D00003059000B080039000B2A3E09000A5F054
:1017E00022E490013BF0EF547FFFE054804FF0E0A3
:0B17F000FD7F054195900103EFF02202
:10180000AD07AC06E4FF114F0F114FE4120311E4D2
:10181000FBFAF978471201667B007A2479747849DB
:1018200012026FE4FBFAF9783F12007512034AAC1A
:1018300006AD07EF24FFFFEE34FFFEE5B35406FDCF
:1018400053B3F9EFF5B4EEF5B5AF05EF42B322EFC0
:10185000600443B3012253B3FE22C2B9C2BD516B2F
:10186000300A0C9000BCE0FEA3E0FF1100C20A9019
:1018700000DAE064026002212A31887E00900010C4
:10188000EEF0A3EFF0D20BD2EA900091E06F70017E
:10189000E4602AC2E8A20B92EAC20C900010A3E016
:1018A0002492F582E43400F583E0FF1217E1D2EAD6
:1018B000D2E8D20C900010A3E0900091F031A390F8
:1018C0000010EEF0A3EFF031A3EF4E700F7F011286
:1018D0000D2DD206D2EAD2E8D20C800FC2E8A20BBC
:1018E00092EAC20CC206E4FF120D2D900090E004B3
:1018F000F0700690008FE004F09000B8E0FEA3E0E6
:10190000FF900010EEF0A3EFF0D39400EE940040AF
:101910004D900010E0FEA3E0FF900090E09F90004B
:101920008FE09E40391216B280349000DAE06401F4
:10193000702C3008295132900010EEF0A3EFF030F7
:101940000313900010E07002A3E070123188900041
:1019500091E0B50709121681C2E8D206C208D390F9
:1019600000ABE094009000AAE09400400EA3E024B5
:10197000FFF09000AAE034FFF08002C203C20BA285
:101980000C92EAD2B9D2BD22D39000D9E094009053
:1019900000D8E0940040069000D7E0FF229000D4E9
:1019A000E0FF229000B4E07002A3E0600FD390004B
:1019B000D9E094009000D8E094004004E4FEFF22B7
:1019C0009000A2E07002A3E07003FEFF229000B23C
:1019D000E0FEA3E0FF7C017DDC1204789000BCE017
:1019E000FCA3E0FD12048AAB07AA069000A9E0FF61
:1019F0007E00AD03AC02120478D39000A3E09F9068
:101A000000A2E09E5016E0FEA3E0FF12048AC3EBA2
:101A10009DFFEA9CCF24FFCF34FFFE229000A2E07E
:101A2000FEA3E0FFC39000BBE09FFF9000BAE09EE2
:101A3000FE229000B4E07002A3E0600FD39000D9C2
:101A4000E094009000D8E094004004E4FEFF22906F
:101A500000A2E0FCA3E0FD4C7003FEFF22C3900057
:101A6000BBE09DFF9000BAE09CFE22D39000D9E03D
:101A700094009000D8E09400400CA3E024FFF09084
:101A800000D8E034FFF09000A3E02401FF9000A212
:101A9000E03400FE9000BAE0FCA3E0FD12048A905E
:101AA00000A2ECF0A3EDF09000B4E07002A3E060BF
:101AB0000A9000A2E07002A3E070159000D4E00448
:101AC000FF9000A9E0FEEF8EF0849000D4E5F0F0E6
:101AD00022C0E0C0F0C083C082C085C084C09253E1
:101AE00092FEC0D075D000C000C001C002C003C0CB
:101AF00004C005C006C0071214BDD007D006D0052B
:101B0000D004D003D002D001D000D0D0D092D08465
:101B1000D085D082D083D0F0D0E032120D74300462
:101B20001F9000D3E0FFD39400400E74A52FF582E0
:101B3000E43400F583E0FE80091211FFAE07800255
:101B40007EFF120035AF0622120D74E4900091F072
:101B50009000A9EDF0E0FF7E0078927C007D0112FC
:101B60000757900091E02492F582E43400F583E079
:101B7000FF1217E1020035900036EBF0A3EAF0A364
:101B8000E9F07BFF7A00794EE4FF911A900036E08D
:101B9000FBA3E0FAA3E04A4B6055E4A3F0900036C3
:101BA000E0FBA3E0FAA3E0F9A3E0FFF58275830070
:101BB0001203E4FE744B2FF582E43400F583EEF05B
:101BC000900039E004F0E0B404D39000397401F0DF
:101BD000900039E0FFC39406501590004AEFF07B67
:101BE000017A00794A911A900039E004F080E112FC
:101BF0000FF5900055EFF09000527401F0A37400BF
:101C0000F0A3744BF07B017A00793A9157120FF5EB
:101C1000AD077B017A00793A614890004FEFF0A35D
:101C2000120D6CD201D20290004FE0701678CC7C7D
:101C3000007D01A3E0FBA3E0FAA3E0F97E007F05AD
:101C400012075790004FE0FFA3E0FBA3E0FAA3E0E8
:101C5000F9120F8102003590004FEBF0A3EAF0A3D8
:101C6000E9F0900055E0FF744E8FF084FF7402128B
:101C70000444900055E024FFFDE434FFFC90004F45
:101C8000E0FBA3E0FAA3E0F98D828C83744F120489
:101C9000567E01900055E014FDEEC39D5038900033
:101CA00052E0FBA3E0FAA3E0F9EE5403F58275835A
:101CB000001203E48FF084ADF0EF8EF0A42DFD90C0
:101CC000004FE0FBA3E0FAA3E0F98E82758300EDFC
:101CD0001204560E80BD7E01900055E0FFEEC39FBA
:101CE000503CEE24FFFDE434FFFC90004FE0FBA3EA
:101CF000E0FAA3E0F98D828C831203E4FF8E8275F3
:101D000083001203E4C39FFFC39405500EC3740500
:101D10009FFF8E82758300EF1204110E80BA22900D
:101D20000060EBF0A3EAF0A3E9F0A3EDF0120D746C
:101D3000E0FF600AD3940A5005D17AEF60061200E2
:101D4000357F0022900064E0FF900060E0FBA3E09C
:101D5000FAA3E0F9A3E0900069F0B1621200357FC8
:101D60000122EF44A8FF900069E090006EF090001F
:101D70006BEBF0A3EAF0A3E9F090006BE0FDC2E9A1
:101D80008FE7ED7029A3A3E0900070F0900070E061
:101D9000F8E6FEE004F0E5E6540260FA90006FE534
:101DA000E7F08EE790006EE014F070E0C16BED6438
:101DB00001704390006BA3E0FBA3E0900070CBF0B8
:101DC000A3EBF0900070E0FEA3E0F5828E83E0FECE
:101DD000900071E004F07006900070E004F0E5E619
:101DE000540260FA90006FE5E7F08EE790006EE035
:101DF00014F070CF8075ED64FE702C90006BA3A37F
:101E0000E0900070F0900070E0F8E2FEE004F0E591
:101E1000E6540260FA90006FE5E7F08EE790006EFE
:101E2000E014F070E0804490006BE0F9A3E0FAA3C6
:101E3000E0900070C9F0A3EAF0A3E9F0900070E030
:101E4000FBA3E0FAA3E0F91203CBFE900071E47566
:101E5000F0011204DFE5E6540260FA90006FE5E756
:101E6000F08EE790006EE014F070D1E5E654026069
:101E7000FA90006FE5E7F0D2E9227F17121223EF04
:101E8000C4135401FF2290005BEBF0A3EAF0A3E936
:101E9000F0A3EDF0120D4B12004090005BE0FBA3AD
:101EA000E0FAA3E0F9A3E0FDA3E0900064F0B11F25
:101EB000020B4F90004E740AF07B017A00794FF1CB
:101EC000CBD1DEEF70087B017A00794FF1BE7B0148
:101ED0007A00794E90005F7401F07D0680A8900032
:101EE000EFE07F0060027F012290004EEBF0A3EA5A
:101EF000F0A3E9F0A3EDF0D1DEEF6004E4FF80028F
:101F00007F021217F590004EE0FBA3E0FAA3E02455
:101F100001F9E43AFAC003C002C00190004EA3E008
:101F2000FAA3E02401F9E43AFA90005EEBF0A3EAA8
:101F3000F0A3E9F0900051E014900061F0D001D0DE
:101F400002D0031224C3EF6026900051E024FCFF6E
:101F50009000DBF07E0090004EE0FBA3E0FAA3E0EF
:101F60002404F9E43AFA78E27C007D0112075790E4
:101F70000052740BF07B017A0079581226C9900048
:101F80005E7401F0A37400F0A37458F0A37403F01E
:101F90007B017A00795812231D7B017A007953F175
:101FA000CBD1DEEF70087B017A007953F1BE7B0163
:101FB0007A00795290005F7401F07D09C18678FE45
:101FC0007C007D017E007F0502075790005BEBF0EF
:101FD000A3EAF0A3E9F090005BE0FBA3E0FAA3E042
:101FE000F8AC02AD037B017A0079DD7E007F05024B
:081FF0000757A205E433FF22AC
:10200000EFD39400400590008DEFF090008DE0FF3D
:10201000C43333335480FEEFC4333354806EFEE058
:10202000FFC43354806EFEEF54806EFEE0C3134E47
:10203000F0AE058EF084AFF022AE071FEED3940011
:1020400040157C007D2DED1DAA0470011CD3940069
:10205000EA940040E480EF22900091E09000D4F0F8
:10206000E49000A2F0A3F022D39000D9E094019074
:1020700000D8E0940040069000D7E0FF229000D402
:10208000E004FF9000A9E0FEEF8EF084AFF0229014
:1020900000DBE0D394007F0040027F0122900032F9
:1020A000EBF0A3EAF0A3E9F09000DBE0FFD39400AB
:1020B00040407E00900032E0FBA3E0FAA3E0F8ACE1
:1020C00002AD037B017A0079E2120757900035E0F8
:1020D000FBA3E0FAA3E04A4B60109000DBE0FF9026
:1020E0000035A3A3E0F9EF120444E49000DBF07F95
:1020F00001227F0022121EDEEF60069000EF7402C4
:10210000F022311EBFFF14E4FDFF319F90005BE41D
:10211000F0A37405F00FF1337F01227F00227F00CE
:102120007EFC8F828E83E0FF22900058EBF0A3EAC2
:10213000F0A3E9F0A3EDF07F067EFC3122EFF4700E
:1021400030FD7F06319F7F0131BFE4FC90005BE0F2
:10215000FFECC39F5017D1FDEF60FB120048AD07A5
:10216000EC2407FFE434FCFE319F0C80DFE4FF31F8
:10217000BFE4FC90005BE0FFECC39F5021EC240720
:10218000FFE434FCFE3122900058E0FBA3E475F03C
:10219000011204F5A9F0FAEF1204440C80D522A232
:1021A000AF92D5C2AFD2FD900132EEF0A3EFF0F5C1
:1021B000828E83EDF020FCFDC2FDA2D592AF22EF0E
:1021C000600443D6802253D67F22311EEF700F90D9
:1021D0000087F0A37405F07F01F10E7F01227F00DC
:1021E0002290004EEBF0A3EAF0A3E9F09000DCE0CF
:1021F000606E121EDEEF701990004EE0FBA3E0FA55
:10220000A3E02401F9E43AFA121FBE9000EF740132
:10221000F07B017A00795131CAEF70447A0079512C
:10222000121FCB9000857401F0A37400F0A37451C9
:10223000F090004EE0FBA3E0FAA3E02401F9E43AB9
:10224000FA900088EBF0A3EAF0A3E9F0A37405F09C
:102250007B017A007951911B7B017A00795131021F
:102260002290004EEBF0A3EAF0A3E9F0121EDEEF9D
:102270007002611CE4FF1217F590004EE0FBA3E032
:10228000FAA3E02401F9E43AFAC003C002C00190C5
:10229000004EA3E0FAA3E02401F9E43AFA90005ECC
:1022A000EBF0A3EAF0A3E9F0A37403F0D001D002AD
:1022B000D00391C3EF60659000EFE024FD6012044D
:1022C000701C9000557401F0FB7A00795631CA8079
:1022D000069000557402F0E49000EFF08005E49061
:1022E0000055F09000517409F07B017A007952D1C9
:1022F000C990005E7401F0A37400F0A37452F0A3BF
:102300007409F07B017A007952711D7B017A0079A2
:102310005190005F7401F07D0A121E862290005BCE
:10232000EBF0A3EAF0A3E9F0900103E014601914C4
:1023300060332402705578627C007D017BFF7A0057
:1023400079567E007F10804078627C007D017BFFA3
:102350007A0079567E007F101207577B017A007948
:102360006231CA802678627C007D017BFF7A007929
:10237000567E007F1012075778627C007D017B013A
:102380007A0079F17E007F0D120757E4FFEFC394C6
:1023900005501A74FE2FF582E43400F583E0FE74D4
:1023A000722FF582E43400F583EEF0800C74722F06
:1023B000F582E43400F583E4F00FEFB410CF900021
:1023C00087E4F0A3F0A3F07B017A0079627D04FF3B
:1023D00091829000857401F0A37400F0A37472F0F0
:1023E0007B017A00F9B16590005EE0F9A3E0FAA301
:1023F000E0900085C9F0A3EAF0A3E9F0A37401F02E
:10240000A37400F0A37472F0900061E090008BF070
:1024100090005BE0FBA3E0FAA3E0F9900082EBF010
:10242000A3EAF0A3E9F0E4FF90008BE0FEEFC39E87
:10243000504F900088E0FBA3E0FAA3E0F91203CB31
:10244000FE900085E0FBA3E0FAA3E0F91203CB6E57
:10245000FE900082E0FBA3E0FAA3E0F9EE12044450
:10246000900083E475F0011204DF900086E475F0BB
:10247000011204DF900089E475F0011204DF0F807F
:10248000A722900082EFF0A3EDF090008AEBF0A37A
:10249000EAF0A3E9F0E4FF90008AE0FBA3E0FAA3EE
:1024A000E0F98F827583001203E4FE74002FF8EECA
:1024B000F274162FF582E43401F583EEF00FEFB4D9
:1024C00010D522711D90004EE0FBA3E0FAA3E0249A
:1024D00001F9E43AFA90005BEBF0A3EAF0A3E9F02B
:1024E00090005BE0FBA3E0FAA3E0F8AC02AD037B55
:1024F000FF7A0079537E007F03120677EF7F00702A
:10250000027F012290004EEBF0A3EAF0A3E9F07FF6
:10251000011217F590004EE0FBA3E0FAA3E02401BE
:10252000F9E43AFAC003C002C00190004EA3E0FAF9
:10253000A3E02401F9E43AFA90005EEBF0A3EAF09C
:10254000A3E9F0A37410F0D001D002D00391C3EF3F
:10255000601290004EE0FBA3E0FAA3E02404F9E44B
:102560003AFAD1F022900082EBF0A3EAF0A3E9F06E
:10257000E4900088F0900085E0FBA3E0FAA3E0F986
:10258000A3E0FFF5827583001203E4FE74082FF8C0
:10259000A606900088E004F0E0B410D975DE02E4ED
:1025A000900088F07F081228FA7F08122A399000DC
:1025B00088E0FFD113900088E004F0E0C394094064
:1025C000E37F081228FA7F09D1137F0812280CE450
:1025D000900088F0900088E0FF2416F582E4340132
:1025E000F583E0FE74002FF8EEF2900088E0FF24FF
:1025F00008F8E6FE900082E0FBA3E0FAA3E0F98F82
:1026000082758300EE120456900088E004F0E0B476
:1026100010C222780DE290080993FE7800E2FDEEE8
:102620006DFEEF90090A936EF2780EE2900809931E
:10263000FF7801E2FEEF6EF2780FE293FF7802E29C
:10264000FEEF6EF2780CE293FF7803E2FEEF6EF29B
:1026500008E2FF7800E26F7804F208E2FF7801E216
:102660006F7805F208E2FF7802E26F7806F208E27E
:10267000FF7803E26F7807F208E2FF7804E26F78F0
:1026800008F208E2FF7805E26F7809F208E2FF78C5
:1026900006E26F780AF208E2FF7807E26F780BF241
:1026A00008E2FF7808E26F780CF208E2FF7809E2AE
:1026B0006F780DF208E2FF780AE26F780EF208E216
:1026C000FF780BE26F780FF22290005BEBF0A3EA49
:1026D000F0A3E9F090005BE0FBA3E0FAA3E0F8AC24
:1026E00002AD037BFF7A0079537E007F0302075718
:1026F00078F17C007D017E007F0D020757E5D654FE
:1027000020D39400E494007F0040027F01229000D7
:102710008774FFF5F01204F545F060168F828E8302
:10272000E01204440FBF00010E740129F9E43AFAE3
:1027300080DC22900058EBF0A3EAF0A3E9F0A2AF0E
:1027400092D5C2AFD2FD900134EEF0A3EFF090002D
:102750005B74FFF5F01204F545F0602A900058E034
:10276000FBA3E475F0011204F5A9F0FA1203CBFF04
:10277000900134E475F0011204F585F082F583EFE1
:10278000F030FCCA80FBC2FDA2D592AF22EF25E05B
:102790005406FFE5B354F94FF5B3227D707F07125D
:1027A0001295EF5470FF22E4900037F0EF24FE54AE
:1027B00003FFE054FC4FF0E0FD7F030212957F170A
:1027C000121223EF5401FF22EF543F900037F0E044
:1027D000FD7F1C021295C2E97FE1121215D2E92297
:1027E000EF6009E5A3448054F7F5A32253A37722B1
:0A27F000E5AD7F0130E3027F022215
:10280000EF5407FFE5AD54F84FF5AD22A807C0001F
:10281000E6FE7800E26ED000F6EF04F8C000E6FEB7
:102820007801E26ED000F6EF2402F8C000E6FE78F0
:1028300002E26ED000F6EF2403F8C000E6FE780353
:10284000E26ED000F6EF2404F8C000E6FE7804E261
:102850006ED000F6EF2405F8C000E6FE7805E26EC3
:10286000D000F6EF2406F8C000E6FE7806E26ED04F
:1028700000F6EF2407F8C000E6FE7807E26ED0000D
:10288000F6EF2408F8C000E6FE7808E26ED000F605
:10289000EF2409F8C000E6FE7809E26ED000F6EFFA
:1028A000240AF8C000E6FE780AE26ED000F6EF24B3
:1028B0000BF8C000E6FE780BE26ED000F6EF240CB9
:1028C000F8C000E6FE780CE26ED000F6EF240DF8BA
:1028D000C000E6FE780DE26ED000F6EF240EF8C0E0
:1028E00000E6FE780EE26ED000F6EF240FF8C0008E
:1028F000E6FF780FE26FD000F622A807E6FE780028
:10290000E26E90080993A807F6E82404F8E6FE783A
:1029100004E26E93FEEF2404F8A606EF2408F8E61E
:10292000FE7808E26E93FEEF2408F8A606EF240C6A
:10293000F8E6FE780CE26E93FEEF240CF8A606EFA4
:1029400004F8E6FE7801E26E93FE900089F0EF2431
:1029500005F8E6FD7805E26D90080993FDEF04F8AF
:10296000A605EF2409F8E6FD7809E26D93FDEF2452
:1029700005F8A605EF240DF8E6FD780DE26D93FD50
:10298000EF2409F8A605EF240DF8A606EF2402F8B7
:10299000E6FE7802E26E93900089F0EF2406F8E6F6
:1029A000FE7806E26E90080993FE90008AF0EF240C
:1029B0000AF8E6FD780AE26D90080993FDEF24021B
:1029C000F8A605EF240EF8E6FD780EE26D93FDEF14
:1029D0002406F8A605900089E0FDEF240AF8A60574
:1029E000EF240EF8A606EF240FF8E6FE780FE26E4D
:1029F00090080993FE900089F0EF240BF8E6FD782B
:102A00000BE26D90080993FDEF240FF8A605EF2463
:102A100007F8E6FD7807E26D93FDEF240BF8A605B5
:102A2000EF2403F8E6FD7803E26D93FDEF2407F849
:102A3000A605EF2403F8A60622EF2402F8E6FEEF2F
:102A40002403F8E66EFEEF04F8E6FD6EFEA807E646
:102A5000FC6EFEAB04EC6DF5DDADDFED6EFDE66DFD
:102A6000F6E82402F8E6FDEF04F8E6FC6DF5DDADCE
:102A7000DFED6E6CF6EF2403F8E6FDEF2402F8E6D6
:102A8000FC6DF5DDADDFED6E6CF6EF2403F8E6FCD2
:102A90006BF5DDADDFED6E6CF6EF2406F8E6FEEFCC
:102AA0002407F8E66EFEEF2405F8E6FD6EFEEF243F
:102AB00004F8E6FC6EFEAB04EC6DF5DDADDFED6E0B
:102AC000FDE66DF6EF2406F8E6FDEF2405F8E6FCDA
:102AD0006DF5DDADDFED6E6CF6EF2407F8E6FDEF8A
:102AE0002406F8E6FC6DF5DDADDFED6E6CF6EF2447
:102AF00007F8E6FC6BF5DDADDFED6E6CF6EF240A52
:102B0000F8E6FEEF240BF8E66EFEEF2409F8E6FD8A
:102B10006EFEEF2408F8E6FC6EFEAB04EC6DF5DD0E
:102B2000ADDFED6EFDE66DF6EF240AF8E6FDEF246D
:102B300009F8E6FC6DF5DDADDFED6E6CF6EF240B0C
:102B4000F8E6FDEF240AF8E6FC6DF5DDADDFED6E8D
:102B50006CF6EF240BF8E6FC6BF5DDADDFED6E6C8B
:102B6000F6EF240EF8E6FEEF240FF8E66EFEEF24F3
:102B70000DF8E66EFEEF240CF8E66EFEEF240CF87E
:102B8000E6FBEF240DF8E6FDEF240CF8E66DF5DD2D
:102B9000ADDFED6EFDEF240CF8E66DFDEF240CF8D3
:102BA000A605EF240EF8E6FDEF240DF8E66DF5DD41
:102BB000ADDFED6EFDEF240DF8E66DFDEF240DF8B1
:102BC000A605EF240FF8E6FDEF240EF8E6FC6DF500
:102BD000DDADDFED6E6CF6EF240FF8E6FCAD036DB6
:092BE000F5DDADDFED6E6CF622AF
:00000001FF
