:1000000002059C50001504192A3F4D000000000015
:1000100000000000000045004F0104070A0D4100E8
:1000200010FF4100570041005A0042005B000042AF
:100030000025000000D2B9D2BDC20BA20C92EA2268
:08004000120D3BEF5470FF228A
:10004B00021000C2E97FE2121231D2E922F1E4116F
:0F005B004EE4900056F0C20480D07F60020DF595
:10006B000208000203B6E86480F8E933E833601154
:10007B000460F0ED33EC337009E8FCE9FDEAFEEBCC
:10008B00FF220460DED3EB9FEA9EE99DE8C2E78C7A
:10009B00F0C2F795F0400CE8CCF8E9CDF9EACEFACE
:1000AB00EBCFFB12038185D0F05804700320D5B33E
:1000BB00E80470075002B2D50203C092D5EC04607D
:1000CB00F7E4CCC0E0C398F8603B94186008400D8F
:1000DB00D0E0FB020398E4FBFAC9FC8028E830E48B
:1000EB0006E4C9FBE4CAFCE830E305E4C9CACBFC6F
:1000FB00E854076010F8C3E913F9EA13FAEB13FBA2
:10010B00EC13FCD8F130F52FC3E49CFCEF9BFFEE16
:10011B009AFEED99FDD0E0FBEF4E4D4C701222DBB9
:10012B00030203BDEC2CFCEF33FFEE33FEED33FD8E
:10013B00ED30E7EB020398EF2BFFEE3AFEED39FDC6
:10014B00D0E0FB50130BBB00030203C0ED13FDEE1D
:10015B0013FEEF13FFEC13FC020398EC4D6011E858
:10016B00497017ED33EC3304600DE4FCFFFEFD2208
:10017B00E933E8330470F80203B6120381580460C4
:10018B0009E4CC248150062850090203C0284003FF
:10019B000203BDC0E0EB4A7044B98006D0E0FB021D
:1001AB0003ACEF4E701CBD8008EBFFEAFEE9FD804F
:1001BB00EBE98DF0A4FEE5F002024FE9CDF9EAFE82
:1001CB00EBFFEF89F0A4FCE5F0CE89F0A42EFFE461
:1001DB0035F0CD89F0A42DFEE435F08067EF4E703D
:1001EB0005BD80D780C3EF8BF0A4ACF0EE8BF0A4F1
:1001FB002CFCE435F0F8EF8AF0A42CE5F038FCE4A5
:10020B0033CB8DF0A42CFCE5F03BF8EE8AF0A42C5C
:10021B00FCE5F038F8E433CF89F0A42CFCE5F0389A
:10022B00CF3400CE89F0A42FFFE5F03EFEE433C9B6
:10023B008DF0A42EFEE5F039CD8AF0A42FFFE5F06A
:10024B003EFEE43DFD33D0E0FB50070BBB000F023D
:10025B0003C0EC2CFCEF33FFEE33FEED33FD02035A
:10026B00980203C0EC5D046005E8590470030203B7
:10027B00B6120381580460F6EC4860F2EC7004FD92
:10028B00FEFF22C860DB2481C85009C3986002506E
:10029B00060203BD9850CAF582E9294B4A7005AB9B
:1002AB00820203AC75F0007C1A7880C3EF9BEE9A48
:1002BB00ED99400DC3EF9BFFEE9AFEED99FDE842E1
:1002CB00F0DC23ACF0D0E0FFD0E0FED0E0FDAB8261
:1002DB0020E7101BEB60BAEC2CFCEF33FFEE33FE88
:1002EB00ED33FD020398E803F830E705C0F075F035
:1002FB0000EF2FFFEE33FEED33FD40B830E7C28049
:10030B00AA75F020800E75F010800575F0087D0041
:10031B007E007F003392D530D5031204ACEC334012
:10032B0010EF33FFEE33FEED33FDEC33FCD5F0ED88
:10033B0022E5F0247EA2D513CC92E7CDCEFF22EDA1
:10034B00D2E7CD33EC3392D524814006E4FFFEFD9A
:10035B00FC22FCE4CFCECDCC24E0501174FF80ED19
:10036B00C3CC13CCCD13CDCE13CECF13CF0470F0A3
:10037B0030D5DE0204ACE9D2E7C933E833F892D5C5
:10038B00EDD2E7CD33EC33FC5002B2D522EC30E7A3
:10039B00100FBF000C0EBE00080DBD00040BEB6070
:1003AB0014A2D5EB13FCED92E7FD2274FFFCFDFECE
:1003BB00FF22E480F8A2D574FF13FC7D80E480EF6C
:1003CB00BB010689828A83E0225002E722BBFE0230
:1003DB00E32289828A83E49322BB010CE58229F50F
:1003EB0082E5833AF583E0225006E92582F8E6227E
:1003FB00BBFE06E92582F8E222E58229F582E58338
:10040B003AF583E49322BB010689828A83F022505A
:10041B0002F722BBFE01F322F8BB010DE58229F5A1
:10042B0082E5833AF583E8F0225006E92582C8F687
:10043B0022BBFE05E92582C8F222EF8DF0A4A8F0BD
:10044B00CF8CF0A428CE8DF0A42EFE22BC000BBEC8
:10045B000029EF8DF084FFADF022E4CCF875F008A5
:10046B00EF2FFFEE33FEEC33FCEE9DEC984005FCDA
:10047B00EE9DFE0FD5F0E9E4CEFD22EDF8F5F0EEA2
:10048B008420D21CFEADF075F008EF2FFFED33FD8D
:10049B004007985006D5F0F222C398FD0FD5F0EA2D
:1004AB0022C3E49FFFE49EFEE49DFDE49CFC22E757
:1004BB0009F608DFFA8046E709F208DFFA803E8882
:1004CB00828C83E709F0A3DFFA8032E309F608DFB9
:1004DB00FA806EE309F208DFFA806688828C83E388
:1004EB0009F0A3DFFA805A89828A83E0A3F608DF3A
:1004FB00FA804E89828A83E0A3F208DFFA80428079
:10050B00D280FA80C680D4805580F28029801080FA
:10051B00A680EA809A80A880DA80E280CA80298847
:10052B00848C8589828A83E493A30592F0A3159228
:10053B00DFF5DEF3800B89828A83E493A3F608DF71
:10054B00F9ECFAA9F0EDFB2288848C8589828A83E9
:10055B00E0A30592F0A31592DFF6DEF480E3898227
:10056B008A83E493A3F208DFF980D688F0EF600169
:10057B000E4E60CD88F0ED2402B4040050C3F5821A
:10058B00EB2402B4040050B9232345822390050ABF
:10059B0073787FE4F6D8FD7581610205E302064DA1
:1005AB00E493A3F8E493A34003F68001F208DFF48D
:1005BB008029E493A3F85407240CC8C333C4540F05
:1005CB004420C8834004F456800146F6DFE4800BD8
:1005DB000102040810204080900003E47E01936028
:1005EB00BCA3FF543F30E509541FFEE493A3600105
:1005FB000ECF54C025E060A840B8E493A3FAE4936F
:10060B00A3F8E493A3C8C582C8CAC583CAF0A3C81C
:10061B00C582C8CAC583CADFE9DEE780BE0205080A
:10062B000B0E0004FFFFFFFFFFFF0001003FFFFF6A
:10063B00FFFFFFFFFFFFFFFF003F00030001FFFF76
:10064B00FFFF120955D17DE4F593D2AF120E6575FC
:10065B004700754800754900754A00754B00754C8D
:10066B00007B007A00792912104AEF60E28529801D
:10067B0080DD78447C007D007BFF7A0679287E0044
:10068B007F05B176F1E4C2E8A20B92EAC20C7F01BE
:10069B00120F327F01120F727FFF1213BBE4900017
:1006AB0014F090002C7405F0C209C20AE4900011FA
:1006BB00F0C208D201D202C206D20090002DF0A3E4
:1006CB00F0C203C204C205900056F07B017A007998
:1006DB004FFF120D647B007A0079447F01120D6489
:1006EB007544037B007A0079447F02120D647544D4
:1006FB00047B007A0079447F03120D647544057BFB
:10070B00007A0079447F04120D647544067B007AED
:10071B000079447F05120D64900014E02415F582D6
:10072B00E43400F583E0FF120CE9E490002FF0A312
:10073B00F0A304F0A374F4F0A3E4F0A37402F0A309
:10074B00E4F0A37423F0E4A3F0A3F0A3F0A3743FAD
:10075B00F0E4900045F0A3F090003BF0A3F0A3F081
:10076B00A37464F0A37403F0A374F0F0A37401F00A
:10077B00A37468F0A3E4F0A37402F0900047E4F0D4
:10078B00A37403F0E4A3F0A3F0A3F0A37496F0A377
:10079B00E4F0A37432F0120F937F01120FB57F02B6
:1007AB001213757F051213A41140114E1212457FBF
:1007BB00F07E03120C1D120BD30135EF60132007D3
:1007CB00177F01120EE07F03AE071FEE70FAD20700
:1007DB0022E4FF120EE0C20722A2AFE433C2AFC283
:1007EB00B9C2BDD20BD2EA24FF92AF227F0802100E
:0107FB00C439
:10080000C0E0C0F0C083C082C085C084C092539253
:10081000FEC0D075D000C000C001C002C003C0043B
:10082000C005C006C0071149D007D006D005D004C6
:10083000D003D002D001D000D0D0D092D084D085C7
:10084000D082D083D0F0D0E032C2B9C2BD1212A49F
:10085000300A0C90003FE0FEA3E0FF911DC20A9019
:10086000005DE06402600201FF31847522008F2385
:10087000D20BD2EA900014E065237002E5226022D8
:10088000C2E8A20B92EAC20C74152FF582E4340080
:10089000F583E0FF91E9D2EAD2E8D20C900014E5AA
:1008A00023F0319F8E228F23319FEF4E700F7F01F7
:1008B0001207C6D206D2EAD2E8D20C800FC2E8A252
:1008C0000B92EAC20CC206E4FF1207C6900013E0C6
:1008D00004F07006900012E004F090003BE0FEA3EC
:1008E000E08E22F523D39400EE9400403E90001356
:1008F000E09523900012E09522403071D3802C9037
:10090000005DE0640170243008211211F88E228FFE
:100910002330030FE523452270113184900014E049
:10092000B50708316BC2E8D206C208D390002EE0AA
:10093000940090002DE09400400EA3E024FFF0907E
:10094000002DE034FFF08002C203C20BA20C92EA39
:10095000D2B9D2BD227F021213697F031213417FE5
:100960000112134F12135FBF02FA22D2EAD2E8D269
:100970000C7F0A7E000000000000EF1F70011E14B3
:100980004E70F222D390005CE0940090005BE09403
:1009900000400690005AE0FF22900057E0FF2290AE
:1009A0000037E07002A3E0600FD390005CE0940099
:1009B00090005BE094004004E4FEFF22900025E0FC
:1009C0007002A3E07003FEFF22900035E0FEA3E07A
:1009D000FF7C017DDC12044590003FE0FCA3E0FDBC
:1009E000120457AB07AA0690002CE0FF7E00AD036F
:1009F000AC02120445D3900026E09F900025E09EB3
:100A00005016E0FEA3E0FF120457C3EB9DFFEA9CE3
:100A1000CF24FFCF34FFFE22900025E0FEA3E0FFAD
:100A2000C390003EE09FFF90003DE09EFE22C2B9D1
:100A3000C2BDD20BD2EAB19F8F27E52730E633D271
:100A400004F10DEF24FF9205910590005DE0B401E3
:100A500021900011E0FF900056E0FE2429F582E489
:100A60003400F583EFF0EEC394025006900056E098
:100A700004F0E52720E40330E51CF104EF04F5243D
:100A8000900028E0C39524F0900059E02524F090D0
:100A90000058E03400F0E52720E502613C90005D5D
:100AA000E064016002613CD20A900027E0241275E4
:100AB000F004A4FF900042E02FFF900041E035F0E9
:100AC000FEC3900040E09FFF90003FE09EFEE527C0
:100AD00030E60874D82FFF74FF3EFE911D12130AF2
:100AE000910590002FE0F525A3E0F52690004BE05E
:100AF000FFA3E090002DCFF0A3EFF0E526640245C0
:100B0000256010E526640345256008E52664044554
:100B1000257002D203F116EF6006D20071D3801C5B
:100B2000F120E4900012F0A3F0900058F0A3F0D26E
:100B3000EAD2E8D20C7F0AFE3175C2E8E52720E44C
:100B40000261C8C2E8A20B92EAC20C900013E02531
:100B500024F0900012E03400F0900031E0F525A37D
:100B6000E0F526E5264525600FC3900013E09526A5
:100B7000900012E09525500330090471D38049900C
:100B80000028E0703D90004DE0FEA3E0FFD3900010
:100B900055E09F900054E09E400DE490002DF0A39E
:100BA000F0C2037F0180173003121211F8D3EF94C3
:100BB00001EE94004002C2067F0280027F03917121
:100BC000800691FD316BC2E8C20BA20C92EAD2B949
:100BD000D2BD22C2E8A20B92EAC20C90005DE0B442
:100BE00002057F0F121285900049E07004A3E064B3
:100BF000017003FF80027F011207C6C206C209E42A
:100C000090005DF022900043E0FFA3E090005BCFF6
:100C1000F0A3EFF0900014E090005AF022AD07AC82
:100C200006E4FF91660F9166E4120311E4FBFAF902
:100C300078471201667B007A247974784912026F32
:100C4000E4FBFAF9783F12007512034AEF24FFFF24
:100C5000EE34FFFEE5B35406FD53B3F9EFF5B4EE01
:100C6000F5B5ED42B322EF600443B3012253B3FE66
:100C7000228F18F12091FDE51814601014601B14E8
:100C8000601F8000900014E0F519802990002CE08E
:100C9000FDE4FF12124E8F19801B12131A8F198058
:100CA00014900014E004F51990002CE0FFE5198F72
:100CB000F08485F019900014E06519601FE519F0C3
:100CC000E02415F582E43400F583E0FF91E990001B
:100CD00055E004F07006900054E004F0300303D2B5
:100CE0000822D206316BC2E822E4F51DEF547FFFE3
:100CF000E51D54804FF51DAD1D7F058042900028F5
:100D0000E0D3940F40087DFA7C007F0F800C9000A8
:100D100028E0C39401FF7DFA7C00AB07EC540FC4BC
:100D200054F0FFE51C540F4FF51CEB540FFFE51C6E
:100D300054F04FF51CAD1C7F0480047D707F07C20A
:100D4000E9EF2420F5E7E5E6540260FAAFE78DE726
:100D5000E5E6540260FA85E71ED2E9227B017A00BB
:100D6000794FE4FF8F498B4A8A4B894CE5491460DF
:100D70000A24FB5018600424067023D1FB8F51E530
:100D800049242AFFAB4AAA4BA94C0213C7E54924C0
:100D90000AFFAB4AAA4BA94C1203CBFDB13F22B1CB
:100DA0003BEF5470F5287F07B1F5EF540F4228AFA1
:100DB00028228F457F02B1F58F467F01B1F58F471D
:100DC000E54524FA5006240760168019AF457401E2
:100DD000A807088002C333D8FCF452465247800566
:100DE000E4F546F547AD467F02B13FAD477F01A12F
:100DF0003F8F497F1DC2E98FE7E5E6540260FAAFF5
:100E0000E7E4F5E7E5E6540260FAAFE7D2E9228FBE
:100E1000458D467F02B1F58F477F01B1F58F48E5DB
:100E20004524FA500624076021802EAF457401A89E
:100E300007088002C333D8FCFF4247E5466005EF50
:100E400042488015EFF45248800F75473FE54660F1
:100E50000575483F8003E4F548AD477F02B13FADDB
:100E6000487F01A13FF1513002401207E4C202D293
:100E700001B15C7FFFB1B2E4F54474017E00A84487
:100E8000088005C333CE33CED8F9FF900039E05E39
:100E9000FEA3E05F4E60067D01AF44D10F0544E53F
:100EA00044C3940640D47F01D1C57F011207C6E434
:100EB000900012F0A3F090005D7402F0D2EAD2E844
:100EC000D20C0200358F45E4FFB1F58F46E545B4FD
:100ED000010543460180035346FEAD46E4FFA13FB2
:100EE0008F1AE4FFB1F58F1BE51AB40105431B020D
:100EF0008003531BFDAD1BE4FFA13F7F03B1F5EF62
:100F00002402FF227F08B1F5EF540FFF227F09B1C1
:100F1000F5EF5401FF227F17B1F5EFC45401FF2212
:100F20003003059000338003900035A3E090002843
:100F3000F022B1F18F4AE5497F0060027F01EF5452
:100F40000125E0FFE54A54FD4FF54AAD4A7F1DA15A
:100F50003F90005DE0B4010AD20990005DE06011AD
:100F600080F890005DE0B402081207E471D312002B
:100F70003522B1F18F4AE5497F0060027F01EF54CD
:100F80000125E025E0FFE54A54FB4FF54AAD4A7FD5
:100F90001DA13F900047A3E0FF8F497F06B1F58F69
:100FA0004AE549540325E0FFE54A54F94FF54AADB7
:100FB0004A7F06A13F8F497F06B1F58F4AE5496018
:100FC0000924FE700D434A208003534ADF534AF739
:100FD0008006534ADF434A08AD4A7F06A13FF1EB42
:100FE000EF540EFFE4C313EF13FF22C2E97FFF1299
:050FF0001231D2E922DC
:10100000C0E0C0F0C083C082C085C084C09253924B
:10101000FEC0D075D000C000C001C002C003C00433
:10102000C005C006C007120A2ED007D006D005D0D2
:1010300004D003D002D001D000D0D0D092D084D040
:1010400085D082D083D0F0D0E0328B448A45894667
:101050001207E43004681200658F4EE54ED39420E9
:101060005059AB44AA45A9461207F7900056E0D361
:1010700094004012E014F0E02429F582E43400F5F5
:1010800083E0F54D80028E4D513BEF6002C204E5D6
:101090004C454B454A600BAB4AAA4BA94CE54D1257
:1010A0000411E54945484547600BAB47AA48A949A3
:1010B000E54E1204111200357F0122120058120071
:1010C000357F00228F568B578A588959755E018566
:1010D000575CE55614600C24FB600824FE60142461
:1010E00008702B120EFB8F5A8F5BC2E9E556240A5B
:1010F000FF8017120FDE8F56E556C39407500F126C
:1011000000658F5A8F5BC2E97F6151318005E4F53C
:101110005BF55AE55C702785595FE4F5E7E55E709D
:1011200008A85FA65D055F8003E4F55EE5E654026E
:1011300060FA85E75DD55AE2A85FA65D21EFE55C20
:101140006401703A85585F855960E4F5E7E55E70A3
:1011500013856082855F83E55DF00560E560700260
:10116000055F8003E4F55EE5E6540260FA85E75D1D
:10117000D55AD7856082855F83E55DF08071E55C37
:1011800064FE702985595FE4F5E7E55E7009A85FA4
:10119000E55DF2055F8003E4F55EE5E6540260FA82
:1011A00085E75DD55AE1A85FE55DF2804285575F2E
:1011B000855860855961E4F5E7E55E7018AB5FAA74
:1011C00060A961E55D12041174012561F561E435E2
:1011D00060F5608003E4F55EE5E6540260FA85E7B9
:1011E0005DD55AD2AB5FAA60A961E55D120411D248
:1011F000E9E556FEE55BFF22900037E07002A3E0D0
:10120000600FD390005CE0940090005BE09400409D
:1012100004E4FEFF22900025E0FCA3E0FD4C7003F7
:10122000FEFF22C390003EE09DFF90003DE09CFE4B
:10123000228FE7E5E630E1FBAFE7227F17120DF5DD
:10124000EF5401FF22C2E97FE15131D2E922EFD30D
:1012500094004005900010EFF0900010E0FFC433C0
:1012600033335480FEEFC4333354806206E0FFC44E
:101270003354806206EF54806206E0C3134EF08D53
:10128000F084AFF022AE071FEED3940040157C002F
:101290007D2DED1DAA0470011CD39400EA9400403A
:1012A000E480EF22D390005CE0940090005BE09437
:1012B00000400CA3E024FFF090005BE034FFF090CE
:1012C0000026E02401FF900025E03400FE90003D60
:1012D000E0FCA3E0FD120457900025ECF0A3EDF034
:1012E000900037E07002A3E0600A900025E07002F1
:1012F000A3E07015900057E004FF90002CE0FEEF93
:101300008EF084900057E5F0F022900014E09000F9
:1013100057F0E4900025F0A3F022D390005CE09415
:101320000190005BE09400400690005AE0FF22909C
:101330000057E004FF90002CE0FEEF8EF084AFF049
:1013400022EF25E05406FFE5B354F94FF5B322EF41
:101350006009E5A3448054F7F5A32253A37722E55F
:10136000AD7F0130E3027F0222EF5407FFE5AD5469
:10137000F84FF5AD228F49E4FF120DF58F4AE5498C
:1013800014600C14601124027013534AF7800E434A
:101390004A08534AFB8006434A08434A04AD4AE4DC
:1013A000FF020D3FE4F549EF24FE5403FFE54954E5
:1013B000FC4FF549AD497F03020D3FEF543FF5491E
:1013C000AD497F1C020D3F8B4E8A4F8950AD4EC2F6
:1013D000E98FE7ED7019855053A853E6FE0553E5F4
:1013E000E6540260FA85E7528EE7D551EC8075ED40
:1013F00064017026854F53855054855482855383EC
:10140000E0FE0554E55470020553E5E6540260FA27
:1014100085E7528EE7D551E2804AED64FE7019856A
:101420005053A853E2FE0553E5E6540260FA85E7FF
:10143000528EE7D551EC802C854E53854F54855004
:1014400055AB53AA54A9551203CBFE74012555F58B
:1014500055E43554F554E5E6540260FA85E7528EBA
:10146000E7D551DDE5E6540260FA85E752D2E9227C
:00000001FF
