:1000000002075D0205080B0E0004FFFFFFFFFFFF64
:100010000001003FFFFFFFFFFFFFFFFFFFFF003F6B
:0800200000030001FFFFFFFFD8
:10002B00021AA0000406080A32536601172D391A6A
:10003B00440C400D490D3E1A2D0C4D7F600212F5FC
:10004B00021B6C020396E86480F8E933E833601115
:10005B000460F0ED33EC337009E8FCE9FDEAFEEBEC
:10006B00FF220460DED3EB9FEA9EE99DE8C2E78C9A
:10007B00F0C2F795F0400CE8CCF8E9CDF9EACEFAEE
:10008B00EBCFFB12036185D0F05804700320D5B37E
:10009B00E80470075002B2D50203A092D5EC0460BD
:1000AB00F7E4CCC0E0C398F8603B94186008400DAF
:1000BB00D0E0FB020378E4FBFAC9FC8028E830E4CB
:1000CB0006E4C9FBE4CAFCE830E305E4C9CACBFC8F
:1000DB00E854076010F8C3E913F9EA13FAEB13FBC2
:1000EB00EC13FCD8F130F52FC3E49CFCEF9BFFEE37
:1000FB009AFEED99FDD0E0FBEF4E4D4C701222DBDA
:10010B000302039DEC2CFCEF33FFEE33FEED33FDCE
:10011B00ED30E7EB020378EF2BFFEE3AFEED39FD06
:10012B00D0E0FB50130BBB00030203A0ED13FDEE5D
:10013B0013FEEF13FFEC13FC020378EC4D6011E898
:10014B00497017ED33EC3304600DE4FCFFFEFD2228
:10015B00E933E8330470F802039612036158046024
:10016B0009E4CC248150062850090203A02840033F
:10017B0002039DC0E0EB4A7044B98006D0E0FB025D
:10018B00038CEF4E701CBD8008EBFFEAFEE9FD808F
:10019B00EBE98DF0A4FEE5F002022FE9CDF9EAFEC2
:1001AB00EBFFEF89F0A4FCE5F0CE89F0A42EFFE481
:1001BB0035F0CD89F0A42DFEE435F08067EF4E705D
:1001CB0005BD80D780C3EF8BF0A4ACF0EE8BF0A411
:1001DB002CFCE435F0F8EF8AF0A42CE5F038FCE4C5
:1001EB0033CB8DF0A42CFCE5F03BF8EE8AF0A42C7D
:1001FB00FCE5F038F8E433CF89F0A42CFCE5F038BB
:10020B00CF3400CE89F0A42FFFE5F03EFEE433C9D6
:10021B008DF0A42EFEE5F039CD8AF0A42FFFE5F08A
:10022B003EFEE43DFD33D0E0FB50070BBB000F025D
:10023B0003A0EC2CFCEF33FFEE33FEED33FD02039A
:10024B00780203A0EC5D046005E859047003020317
:10025B0096120361580460F6EC4860F2EC7004FDF2
:10026B00FEFF22C860DB2481C85009C3986002508E
:10027B000602039D9850CAF582E9294B4A7005ABDB
:10028B008202038C75F0007C1A7880C3EF9BEE9A88
:10029B00ED99400DC3EF9BFFEE9AFEED99FDE84201
:1002AB00F0DC23ACF0D0E0FFD0E0FED0E0FDAB8281
:1002BB0020E7101BEB60BAEC2CFCEF33FFEE33FEA8
:1002CB00ED33FD020378E803F830E705C0F075F075
:1002DB0000EF2FFFEE33FEED33FD40B830E7C28069
:1002EB00AA75F020800E75F010800575F0087D0062
:1002FB007E007F003392D530D5031204EBEC3340F4
:10030B0010EF33FFEE33FEED33FDEC33FCD5F0EDA8
:10031B0022E5F0247EA2D513CC92E7CDCEFF22EDC1
:10032B00D2E7CD33EC3392D524814006E4FFFEFDBA
:10033B00FC22FCE4CFCECDCC24E0501174FF80ED39
:10034B00C3CC13CCCD13CDCE13CECF13CF0470F0C3
:10035B0030D5DE0204EBE9D2E7C933E833F892D5A6
:10036B00EDD2E7CD33EC33FC5002B2D522EC30E7C3
:10037B00100FBF000C0EBE00080DBD00040BEB6090
:10038B0014A2D5EB13FCED92E7FD2274FFFCFDFEEE
:10039B00FF22E480F8A2D574FF13FC7D80E480EF8C
:1003AB00BB010689828A83E0225002E722BBFE0250
:1003BB00E32289828A83E49322BB010CE58229F52F
:1003CB0082E5833AF583E0225006E92582F8E6229E
:1003DB00BBFE06E92582F8E222E58229F582E58358
:1003EB003AF583E49322BB010FF8E58229F582E508
:1003FB00833AF583E028F0225009C58229F8E5827B
:10040B0026F622BBFE09C58229F8E22582F222F8E4
:10041B00EA2583F583E9932822BB010689828A8327
:10042B00F0225002F722BBFE01F322F8BB010DE5CF
:10043B008229F582E5833AF583E8F0225006E92517
:10044B0082C8F622BBFE05E92582C8F222EF8DF0A9
:10045B00A4A8F0CF8CF0A428CE8DF0A42EFE22BC45
:10046B00000BBE0029EF8DF084FFADF022E4CCF839
:10047B0075F008EF2FFFEE33FEEC33FCEE9DEC989E
:10048B004005FCEE9DFE0FD5F0E9E4CEFD22EDF824
:10049B00F5F0EE8420D21CFEADF075F008EF2FFFC7
:1004AB00ED33FD4007985006D5F0F222C398FD0FAF
:1004BB00D5F0EA22C5F0F8A3E028F0C5F0F8E58204
:1004CB00158270021583E038F022A3F8E0C5F02501
:1004DB00F0F0E582158270021583E0C838F0E8224F
:1004EB00C3E49FFFE49EFEE49DFDE49CFC22E3F548
:1004FB00F009E208B5F06BDFF58067E3F5F009E68C
:10050B0008B5F05EDFF5805A87F009E608B5F052C2
:10051B00DFF6804E87F009E208B5F046DFF6804241
:10052B0088828C8387F009E0A3B5F036DFF6803242
:10053B0088828C8387F009E493A3B5F025DFF580DF
:10054B002188828C83E3F5F009E0A3B5F014DFF585
:10055B00801088828C83E3F5F009E493A3B5F00255
:10056B00DFF4020614808780E9809080D480348089
:10057B001580648074809D80B7808D80A3804780B8
:10058B006A803202062088848C8589828A83E49370
:10059B00F5F0A30592E493A31592B5F06CDFEFDEB3
:1005AB00ED806689828A83E493F5F0A3E208B5F0C7
:1005BB0058DFF4805489828A83E0F5F0A3E608B50E
:1005CB00F047DFF5804389828A83E0F5F0A3E208E8
:1005DB00B5F036DFF5803289828A83E493F5F0A398
:1005EB00E608B5F024DFF480208002804388848CF9
:1005FB008589828A83E493F5F0A30592E0A3159293
:10060B00B5F006DFF0DEEE80007FFFB5F0020F22C3
:10061B0040027F012288848C8589828A83E0F5F0F1
:10062B00A30592E0A31592B5F0DFDFF1DEEF80D9E1
:10063B0088848C8589828A83E0F5F0A30592E49304
:10064B00A31592B5F0C3DFF0DEEE80BD88F0EF604E
:10065B00010E4E60BFED2402B4040050ACF582EBEA
:10066B002402B4040050A223234582239005707307
:10067B00E709F608DFFA8046E709F208DFFA803E61
:10068B0088828C83E709F0A3DFFA8032E309F6084E
:10069B00DFFA806EE309F208DFFA806688828C83CA
:1006AB00E309F0A3DFFA805A89828A83E0A3F60874
:1006BB00DFFA804E89828A83E0A3F208DFFA804258
:1006CB0080D280FA80C680D4805580F28029801039
:1006DB0080A680EA809A80A880DA80E280CA80298E
:1006EB0088848C8589828A83E493A30592F0A31571
:1006FB0092DFF5DEF3800B89828A83E493A3F608FD
:10070B00DFF9ECFAA9F0EDFB2288848C8589828ACB
:10071B0083E0A30592F0A31592DFF6DEF480E38964
:10072B00828A83E493A3F208DFF980D688F0EF6026
:10073B00010E4E60CD88F0ED2402B4040050C3F5D9
:10074B0082EB2402B4040050B92323458223900684
:10075B00CB73787FE4F6D8FD7581210207A40208DC
:10076B0020E493A3F8E493A34003F68001F208DF9F
:10077B00F48029E493A3F85407240CC8C333C4545E
:10078B000F4420C8834004F456800146F6DFE48012
:10079B000B01020408102040809007E9E47E0193CE
:1007AB0060BCA3FF543F30E509541FFEE493A360E4
:1007BB00010ECF54C025E060A840B8E493A3FAE43F
:1007CB0093A3F8E493A3C8C582C8CAC583CAF0A390
:1007DB00C8C582C8CAC583CADFE9DEE780BE5080C0
:1007EB008404192A3F4D00000000000000000000A7
:1007FB00004580BE0104070A0D41807FFF4180C682
:10080B00004180C9004280CA00004280940000422F
:10081B008116000000121B5F916AD13A7F01518350
:10082B007F05515FAC06EF4404FD7F0511A1E4F594
:10083B0094D2AF31F151CC121C1CEF600312206F1C
:10084B00D10FEF64026006121BB6EF60E890804B8D
:10085B00E4F0A3F0A3F0F9A3C9F0A3F0A3E9F07BB4
:10086B00017A807907718CEF6008908007E0F58042
:10087B0080C3908025E4F0A3F0A3F07B017A80790C
:10088B0007121BC4908007E0F58080A9515FAC066E
:10089B00EF4401FD7F05AE079138EEC3941050482D
:1008AB00EE25E0249EF582E43480F583ECF0A3ED95
:1008BB00F0EE24FB603024FD602424FC60241460E3
:1008CB0012240D7023ED4C6006ED64014C7019C2BF
:1008DB00038015ED64014C700FFFD1BB800AD20A67
:1008EB008006F1968002D202D2B9D2ADC20BA20C15
:1008FB0092922290803EEBF0A3EAF0A3E9F0E49011
:10090B0080E2F0914B7F05515F908041EFF07F04C7
:10091B00515F908042EFF01217F2EF700221DCE48E
:10092B00FDFC7F0511A1E4FDFC7F0411A17D967CEC
:10093B00007F0611A1912331F1911DEF70FB908087
:10094B00437408F07B017A8079447D041222A07BEA
:10095B00017A807943E4908054F07D05D1737D5EFC
:10096B007C017F0611A17D017C007F0511A131F176
:10097B00911DEF603B90804BE4F0A3F0A3F0F9A343
:10098B00C9F0A3F0A3E9F090803EE0FBA3E0FAA34B
:10099B00E0F9718CEF60D990803EE0FBA3E0FAA305
:1009AB00E0F91203ABB401C89080E27401F080C08F
:1009BB00D1B59123E4FDFC7F0611A1908041E0FDB0
:1009CB007C007F0511A1908042E0FD7C007F0480BC
:1009DB0013908041E054FEFD7C007F0511A17DF456
:1009EB007C017F0611A1914B3002509138C202D28B
:1009FB0001B1B87FFF12130DE4908050F09080503E
:100A0B00E0FFC39406502F74017E00A807088005F1
:100A1B00C333CE33CED8F9FF9080A8E05EFEA3E0BF
:100A2B005F4E600A908050E0FF7D0112136390804F
:100A3B0050E004F080C77F011217697F01D1BBE43E
:100A4B00908081F0A3F09080CC7402F0D292D2907F
:100A5B00D20C01F3AE079138EEC39410501411F37E
:100A6B00EE25E0249EF582E43480F583E0FEA3E0DE
:100A7B00FF2211F3E4FEFF22908022EFF0911D90F4
:100A8B008023EFF0908022E0FF9080CEE06F60300B
:100A9B00914B908022E07F05600411978011515F8C
:100AAB00AC06EF54FEFD7F0511A1E49080E1F090C0
:100ABB008022E09080CEF0908023E0B4020231F1EE
:100ACB0022E49080E2F0D10FEF600A64017079901C
:100ADB0080CDE0707390804B7401F0A37480F0A311
:100AEB007422F0A3E4F0A3F0A3F07B017A807923C6
:100AFB00718C908023E024FE601A14602214602A0B
:100B0B0014602C1460342406703E7B017A807923A8
:100B1B0011FE80347B017A807923121F7880297B28
:100B2B00017A807923121E63801E1220A380197B09
:100B3B00017A807923122000800E7B017A80792341
:100B4B00908022E0FD121C27911DEF7012FDFC7F9F
:100B5B000611A19080CEE060047F05119731F1E47E
:100B6B00FF74CF2FF582E43480F583E004F074CF6B
:100B7B002FF582E43480F583E070050FEFB405E1C7
:100B8B0022908048913020040281181200469080F8
:100B9B0052EFF0D394205073908048E0FBA3E0FA1F
:100BAB00A3E0F91213EF9080C5E0D394004010E05E
:100BBB0014F0E02498F582E43480F583E08001EEB4
:100BCB00908051F01213F3EF6002C20490804EE05C
:100BDB00FBA3E0FAA3E04A4B600EA3E0FF90804E2C
:100BEB00A3A3E0F9EF12042490804BE0FBA3E0FAFF
:100BFB00A3E04A4B6010908052E0FF90804BA3A380
:100C0B00E0F9EF12042411F37F0122912311F37FFA
:100C1B0000229080CCE0FF229138F13BE49080C51C
:100C2B00F0C20401F3EBF0A3EAF0A3E9F0A2AFE406
:100C3B0033C2AFC2B9C2ADD20BD29224FF92AF2254
:100C4B009080CCE0B4010AD2099080CCE0600F8098
:100C5B00F89080CCE0B402069138F1BC11F3227805
:100C6B00227C807D017BFF7A0079037E007F051259
:100C7B0007379138C290A20B9292C20C7F011217C8
:100C8B00967F011217C37FFF12239AE4908083F0A3
:100C9B0090809B7405F0C209C20AE4908080F0C278
:100CAB0008D201D202C206D20090809CF0A3F0C2FF
:100CBB0003C204C2059080C5F07B017A8079BEFF28
:100CCB00B1C07B017A8079227F01B1C09080227400
:100CDB0003F07B017A8079227F02B1C0908022746D
:100CEB0004F07B017A8079227F03B1C0908022745B
:100CFB0005F07B017A8079227F04B1C09080227449
:100D0B0006F07B017A8079227F05B1C0908083E069
:100D1B002484F582E43480F583E0FF1216EFE4902F
:100D2B00809EF0A3F0A304F0A374F4F0A3E4F0A36B
:100D3B007402F0A3E4F0A37423F0E4A3F0A3F0A3F4
:100D4B00F0A3743FF0E49080B4F0A3F09080AAF08D
:100D5B00A3F0A3F0A37464F0A37403F0A374F0F0F6
:100D6B00A37401F0A37468F0A3E4F0A37402F090F1
:100D7B0080B6E4F0A37403F0E4A3F0A3F0A3F0A314
:100D8B007496F0A3E4F0A37432F0F1967F01122372
:100D9B005B7F021222F07F05122344122338F13BB2
:100DAB00F1ED7FF07E03121A30F1BC01F37B017A77
:100DBB008079BEE4FF908052EBF0A3EAF0A3E9F058
:100DCB00908051EFF014600A24FB5021600424063C
:100DDB0070311212D290805EEFF0908051E0242A95
:100DEB00FFA3E0FBA3E0FAA3E0F90223B490805148
:100DFB00E0240AFFA3E0FBA3E0FAA3E0F91203ABA4
:100E0B00FDF17622913830041F9080C5E0FFD3941A
:100E1B0000400E74972FF582E43480F583E0FE805A
:100E2B00091212DBAE0780027EFF11F3AF06227BA5
:100E3B00017A8079227D041222A07B017A807922AB
:100E4B001212027F05515FAC06EF4402FD7F0511C4
:100E5B00A1E49080CEF09080E2F09080E1F0908061
:100E6B00CDF0FDFC7F0601A1908050EBF0A3EAF0E2
:100E7B00A3E9F0A3EDF09138E0FF600BD3940A5097
:100E8B0006121727EF600511F37F0022908054E0C4
:100E9B00FF908050E0FBA3E0FAA3E0F9A3E0908081
:100EAB0059F01223A811F37F01229138F1ED01F3D0
:100EBB00EF60122007157F01F1457F03AE071FEE90
:100ECB0070FAD20722E4FFF145C2072290804BEB68
:100EDB00F0A3EAF0A3E9F0A3EDF0914BD1B590802C
:100EEB004BE0FBA3E0FAA3E0F9A3E0FDA3E09080C5
:100EFB0054F0D17321F190803FEFF0A39130D201E8
:100F0B00D20290803FE0701678BE7C807D01A3E01A
:100F1B00FBA3E0FAA3E0F97E007F05120737908070
:100F2B003FE0FFA3E0FBA3E0FAA3E0F9B1C001F3BC
:100F3B00C2917FE2121000D29122908118EFF0E45F
:100F4B00FF1212F5908119EFF0908118E0B40107B0
:100F5B00A3E04402F08007908119E054FDF09081EA
:100F6B0019E0FDE4FF8004E0FD7F02C291EF242035
:100F7B00F5E5C2C030C0FDAFE5AE058EE5C2C030B1
:100F8B00C0FD90811CE5E5F0D291229080B6A3E0E4
:100F9B00FF9080481212F1908049EFF0908048E06A
:100FAB00540325E0FFA3E054F94FF0E0FD7F0680EA
:100FBB00BAC290A20B9292C20C9080CCE0B4020504
:100FCB007F0F1218399080B8E07004A3E0640170B1
:100FDB0003FF80027F01D1BBC206C209E49080CC23
:0C0FEB00F022C2917FE1121000D291228E
:101000008FE5C2C030C0FDAFE522908109EBF0A3AF
:10101000EAF0A3E9F0908108EFF09081107401F0FC
:10102000908109E090810EF0EF14600C24FB6008C1
:1010300024FE60182408703251D290810CEFF0A386
:10104000F0C291908108E0240AFF801A51DB908160
:1010500008EFF0C39407501212004690810CEFF095
:10106000A3F0C2917F6111008009E490810DF0909E
:10107000810CF090810EE0FF704A908109A3A3E0FB
:10108000908111F0E4F5E5C2C0908110E0701190FC
:10109000810FE0FE908111E0F8A606E004F08005E3
:1010A000E4908110F030C0FD90810FE5E5F0908173
:1010B0000CE014F070CE90810FE0FE908111E0F80A
:1010C000A60621EDEF64017068908109A3E0FAA300
:1010D000E0FF908111EAF0A3EFF0E4F5E5C2C090E3
:1010E0008110E0702290810FE0FF908111E0FCA35D
:1010F000E0F5828C83EFF0908112E004F0700690AE
:101100008111E004F08005E4908110F030C0FD9082
:10111000810FE5E5F090810CE014F070BD90810F37
:10112000E0FF908111E0FCA3E0F5828C83EFF021D9
:10113000ED90810EE064FE704A908109A3A3E090D7
:101140008111F0E4F5E5C2C0908110E0701190814A
:101150000FE0FF908111E0F8EFF2E004F08005E489
:10116000908110F030C0FD90810FE5E5F090810C8A
:10117000E014F070CE90810FE0FF908111E0F8EF65
:10118000F2806A908109E0F9A3E0FAA3E09081116E
:10119000C9F0A3EAF0A3E9F0E4F5E5C2C09081103C
:1011A000E0702090810FE0FF908111E0FBA3E0FA56
:1011B000A3E0F9EF120424908112E475F001120407
:1011C000BF8005E4908110F030C0FD90810FE5E50F
:1011D000F090810CE014F070BF90810FE0FF9081DF
:1011E00011E0FBA3E0FAA3E0F9EF120424D29190FE
:1011F0008108E0FE90810DE0FDEDFF2290809BE0F4
:10120000FF22908026EBF0A3EAF0A3E9F07BFF7ABF
:1012100000792EE4FF120F01908026E0FBA3E0FA94
:10122000A3E04A4B6056E4A3F0908026E0FBA3E0E5
:10123000FAA3E0F9A3E0FFF5827583001203C4FE70
:10124000743B2FF582E43480F583EEF0908029E042
:1012500004F0E0B404D39080297401F0908029E078
:10126000FFC39406501690803AEFF07B017A8079A4
:101270003A120F01908029E004F080E031FC908068
:1012800045EFF09080427401F0A37480F0A3743BAA
:10129000F07B017A80792A1221B131FCAD077B0104
:1012A0007A80792A120C38E4908083F090809BED4C
:1012B000F0E0FF7E0078847C807D0112073790800B
:1012C00083E02484F582E43480F583E0FFD1EF02EB
:1012D00008F37F0351F5EF2402FF2251E8EF540E8B
:1012E000FFE4C313EF13FF22C2917FFF1100D291DD
:1012F00022EFF07F06C2918FE5C2C030C0FDAFE59E
:10130000E4F5E5C2C030C0FDAFE5D2912290805136
:10131000EFF07F0251F5908052EFF07F0151F59090
:101320008053EFF0908051E0FF24FA5006240760CC
:101330001B80207401A807088002C333D8FCF4FD89
:10134000908052E05DF0A3E05DF08007E490805271
:10135000F0A3F0908052120F72908053E0FD7F0155
:10136000020F76908051EFF0A3EDF07F0251F590DF
:101370008053EFF07F0151F5908054EFF090805151
:10138000E0FF24FA50062407603C80537401A8074C
:10139000088002C333D8FCFD908053E04DF090806C
:1013A00052E06008908054E04DF08033908051E02E
:1013B000FF7401A807088002C333D8FCF4FF9080B3
:1013C00054E05FF08019908053743FF0908052E0B9
:1013D0006008908054743FF08005E4908054F09051
:1013E0008053120F72908054E0FD7F01020F767FD0
:1013F00008010A7F1751F5EF5401FF227F0851F5CC
:10140000EF540FFF22C2B9C2ADD20BD292F10490B9
:101410008005EFF030E633D204D1CAEF24FF920505
:10142000B1E39080CCE0B40121908080E0FF908017
:10143000C5E0FE2498F582E43480F583EFF0EEC336
:10144000940250069080C5E004F0908005E0FF20F3
:10145000E40330E51E71FCEF04FF908002F0FD9084
:101460008097E0C39DF09080C8E02FF09080C7E0A7
:101470003400F0908005E0FD20E502A1239080CCAF
:10148000E064016002A123D20A908096E0241275E4
:10149000F004A4FF9080B1E02FFF9080B0E035F021
:1014A000FEC39080AFE09FFF9080AEE09EFEED30E7
:1014B000E60874D82FFF74FF3EFE121A30F132B1E5
:1014C000E390809EE0FEA3E0FF908003EEF0A3EFA8
:1014D000F09080BAE0FDA3E090809CCDF0A3EDF009
:1014E000EF64024E6013908003E0FEA3E0FF64030C
:1014F0004E6006EF64044E7002D203D1D3EF600752
:10150000D200120FBC801CD1DDE4908081F0A3F0EA
:101510009080C7F0A3F0D292D290D20C7F0AFEB195
:10152000D4C290908005E020E402A1BFC290A20B3B
:101530009292C20C908002E0FF908082E02FF090A7
:101540008081E03400F09080A0E0FEA3E0FF908076
:1015500003EEF0A3EFF04E6015908003E0FEA3E0F1
:10156000FFC3908082E09F908081E09E500330090D
:1015700005120FBC8049908097E0703D9080BCE0E0
:10158000FEA3E0FFD39080C4E09F9080C3E09E4024
:101590000DE490809CF0A3F0C2037F01801730031C
:1015A00012121A67D3EF9401EE94004002C2067F34
:1015B0000280027F03B1FB8006D18CB1CAC290C207
:1015C0000BA20C9292D2B9D2AD22D292D290D20C6E
:1015D0007F0A7E000000000000EF1F70011E144E05
:1015E00070F2229080B2E0FFA3E09080CACFF0A317
:1015F000EFF0908083E09080C9F022908114EFF0AA
:10160000D1DDD18C908114E014601214602014603C
:10161000268000908083E0908115F0803490809B3C
:10162000E0FDE4FF121800908115EFF08023F142F5
:10163000908115EFF0801A908083E004908115F07E
:10164000E0FF90809BE0FEEF8EF084908115E5F046
:10165000F0908083E0FF908115E0FE6F6021908024
:1016600083EEF0E02484F582E43480F583E0FFD15A
:10167000EF9080C4E004F070069080C3E004F03086
:101680000303D20822D206B1CAC29022908097E00A
:10169000D3940F40087DFA7C007F0F800C908097D8
:1016A000E0C39401FF7DFA7C00AB07EC540FC454F7
:1016B000F0FF90811AE0540F4FF0EB540FFFE0540D
:1016C000F04FF0E0FD7F04020F767F0951F5EF54F3
:1016D00001FF227F1751F5EFC45401FF22300305AB
:1016E0009080A280039080A4A3E0908097F022E4F1
:1016F00090811BF0EF547FFFE054804FF0E0FD7FBE
:1017000005020F767D707F07120F76EF5470908080
:1017100006F0E0FFC0077F0751F5EF540FFED0E061
:101720004EFF908006F0227F1751F5EFC41354014D
:10173000FF22908083E09080C6F0E4908094F0A334
:10174000F022D39080CBE094019080CAE0940040D6
:10175000069080C9E0FF229080C6E004FF90809B45
:10176000E0FEEF8EF084AFF022908051EFF0E4FFC6
:1017700051F5908052EFF0908051E0B40107A3E062
:101780004401F08007908052E054FEF0908052E0D7
:10179000FDE4FF020F76908027EFF07F1D51F5905A
:1017A0008028EFF0908027E07F0060027F01EF54F7
:1017B0000125E0FF908028E054FD4FF0E0FD7F1D03
:1017C000020F76908027EFF07F1D51F5908028EF73
:1017D000F0908027E07F0060027F01EF540125E058
:1017E00025E0FF908028E054FB4FF0E0FD7F1D02D4
:0C17F0000F76A205E433FF2243E801223B
:10180000EFD39400400590807FEFF090807FE0FF61
:10181000C43333335480FEEFC4333354806EFEE060
:10182000FFC43354806EFEEF54806EFEE0C3134E4F
:10183000F0AE058EF084AFF022AE071FEED3940019
:1018400040157C007D2DED1DAA0470011CD3940071
:10185000EA940040E480EF22C2B9C2AD51F9300AE7
:101860000C9080AEE0FEA3E0FF5130C20A9080CC25
:10187000E064026002212831867E00908000EEF054
:10188000A3EFF0D20BD292908083E06F7001E460FE
:101890002AC290A20B9292C20C908000A3E02484F2
:1018A000F582E43480F583E0FF1216EFD292D290F5
:1018B000D20C908000A3E0908083F031A190800052
:1018C000EEF0A3EFF031A1EF4E700F7F01120EBBCF
:1018D000D206D292D290D20C800FC290A20B9292DA
:1018E000C20CC206E4FF120EBB908082E004F070CE
:1018F00006908081E004F09080AAE0FEA3E0FF90D3
:101900008000EEF0A3EFF0D39400EE9400404D90F1
:101910008000E0FEA3E0FF908082E09F908081E065
:101920009E4039120FBC80349080CCE06401702C52
:101930003008295167908000EEF0A3EFF0300313D8
:10194000908000E07002A3E070123186908083E006
:10195000B507091215CAC290D206C208D390809D5D
:10196000E0940090809CE09400400EA3E024FFF0FF
:1019700090809CE034FFF08002C203C20BA20C9264
:1019800092D2B9D2AD22D39080CBE094009080CA9D
:10199000E0940040069080C9E0FF229080C6E0FFFE
:1019A000229080A6E07002A3E0600FD39080CBE08D
:1019B00094009080CAE094004004E4FEFF229080EE
:1019C00094E07002A3E07003FEFF229080A4E0FE8A
:1019D000A3E0FF7C017DDC1204589080AEE0FCA304
:1019E000E0FD12046AAB07AA0690809BE0FF7E0030
:1019F000AD03AC02120458D3908095E09F90809480
:101A0000E09E5016E0FEA3E0FF12046AC3EB9DFFC8
:101A1000EA9CCF24FFCF34FFFE22908094E0FEA307
:101A2000E0FFC39080ADE09FFF9080ACE09EFE227F
:101A3000AD07AC06E41202F1E4FBFA7980784012BB
:101A40000146E4FBFA7940784012024FE4FBFAF9D0
:101A5000783F12005512032AC3E49FFFE49EF5CBA2
:101A60008FCAF5CD8FCC229080A6E07002A3E060F3
:101A70000FD39080CBE094009080CAE094004004A3
:101A8000E4FEFF22908094E0FCA3E0FD4C7003FE96
:101A9000FF22C39080ADE09DFF9080ACE09CFE22D1
:101AA000C0E0C0F0C083C082C085C084C0925392A1
:101AB000FEC0D075D000C000C001C002C003C00489
:101AC000C005C006C007C2C61158908117E004F0D7
:101AD0007006908116E004F0D007D006D005D0043F
:101AE000D003D002D001D000D0D0D092D084D08505
:101AF000D082D083D0F0D0E032D39080CBE094007D
:101B00009080CAE09400400CA3E024FFF09080CACB
:101B1000E034FFF0908095E02401FF908094E03461
:101B200000FE9080ACE0FCA3E0FD12046A9080947B
:101B3000ECF0A3EDF09080A6E07002A3E0600A90C4
:101B40008094E07002A3E070159080C6E004FF90DE
:101B5000809BE0FEEF8EF0849080C6E5F0F022D20C
:101B6000B9C29075E61075C810D2C822C0E0C0F0A6
:101B7000C083C082C085C084C0925392FEC0D0751D
:101B8000D000C000C001C002C003C004C005C00630
:101B9000C007121405D007D006D005D004D003D05A
:101BA00002D001D000D0D0D092D084D085D082D0C5
:101BB00083D0F0D0E0329080CDE0D394007F00401D
:101BC000027F0122908022EBF0A3EAF0A3E9F090DB
:101BD00080CDE0FFD3940040407E00908022E0FB67
:101BE000A3E0FAA3E0F8AC02AD037B017A8079D4DC
:101BF000120737908025E0FBA3E0FAA3E04A4B6090
:101C0000109080CDE0FF908025A3A3E0F9EF1204AF
:101C100024E49080CDF07F01227F00229080E1E0DB
:101C20007F0060027F012290803EEBF0A3EAF0A3E8
:101C3000E9F0A3EDF0911CEF6004E4FF80027F0265
:101C4000F1F890803EE0FBA3E0FAA3E02401F9E480
:101C50003AFAC003C002C00190803EA3E0FAA3E0BC
:101C60002401F9E43AFA90804EEBF0A3EAF0A3E9FC
:101C7000F0908041E014908051F0D001D002D00368
:101C8000F137EF6026908041E024FCFF9080CDF09A
:101C90007E0090803EE0FBA3E0FAA3E02404F9E498
:101CA0003AFA78D47C807D01120737908042740B19
:101CB000F07B017A80794812227990804E7401F08D
:101CC000A37480F0A37448F0A37403F07B017A80BE
:101CD000794891FC7B017A80794312207C911CEF3A
:101CE00070097B017A8079431220D07B017A807958
:101CF0004290804F7401F07D09020ED790804BEB2B
:101D0000F0A3EAF0A3E9F09080F5E0146019146004
:101D1000332402705578527C807D017BFF7A0079F4
:101D2000367E007F10804078527C807D017BFF7A78
:101D30000079367E007F101207377B017A80795256
:101D4000F11E802678527C807D017BFF7A007936F7
:101D50007E007F1012073778527C807D017B017AEC
:101D60008079E37E007F0D120737E4FFEFC394050F
:101D7000501A74F02FF582E43480F583E0FE74622B
:101D80002FF582E43480F583EEF0800C74622FF539
:101D900082E43480F583E4F00FEFB410CF908077C5
:101DA000E4F0A3F0A3F07B017A8079527D04FF1266
:101DB00024E09080757401F0A37480F0A37462F045
:101DC0007B017A80F91225D990804EE0F9A3E0FAE0
:101DD000A3E0908075C9F0A3EAF0A3E9F0A3740131
:101DE000F0A37480F0A37462F0908051E090807B47
:101DF000F090804BE0FBA3E0FAA3E0F9908072EB57
:101E0000F0A3EAF0A3E9F0E4FF90807BE0FEEFC3EB
:101E10009E504F908078E0FBA3E0FAA3E0F9120314
:101E2000ABFE908075E0FBA3E0FAA3E0F91203ABF0
:101E30006EFE908072E0FBA3E0FAA3E0F9EE1204DC
:101E400024908073E475F0011204BF908076E475ED
:101E5000F0011204BF908079E475F0011204BF0F05
:101E600080A72290803EEBF0A3EAF0A3E9F0911C5A
:101E7000EF7002E11DE4FFF1F890803EE0FBA3E08B
:101E8000FAA3E02401F9E43AFAC003C002C00190C9
:101E9000803EA3E0FAA3E02401F9E43AFA90804EF0
:101EA000EBF0A3EAF0A3E9F0A37403F0D001D002B1
:101EB000D003F137EF60669080E1E024FD6012040A
:101EC000701C9080457401F0FB7A807946F11E8089
:101ED000069080457402F0E49080E1F08005E49083
:101EE0008045F09080417409F07B017A807942123C
:101EF000227990804E7401F0A37480F0A37442F0B4
:101F0000A37409F07B017A80794291FC7B017A808D
:101F1000794190804F7401F07D0A120ED722122170
:101F200010EF7010908077F0A37405F07F011224F9
:101F3000BB7F01227F002291FC90803EE0FBA3E06A
:101F4000FAA3E02401F9E43AFA90804BEBF0A3EA1B
:101F5000F0A3E9F090804BE0FBA3E0FAA3E0F8AC3B
:101F600002AD037BFF7A0079337E007F03120657B0
:101F7000EF7F0070027F012290803EEBF0A3EAF039
:101F8000A3E9F09080CEE0606E911CEF7019908014
:101F90003EE0FBA3E0FAA3E02401F9E43AFA1220C0
:101FA000D09080E17401F07B017A807941F11EEFDD
:101FB00070457A80794112207C9080757401F0A37D
:101FC0007480F0A37441F090803EE0FBA3E0FAA39C
:101FD000E02401F9E43AFA908078EBF0A3EAF0A368
:101FE000E9F0A37405F07B017A807941B1FC7B01B3
:0E1FF0007A8079411220DD229080F5EFF022F8
:1020000090803EEBF0A3EAF0A3E9F07F01121FF805
:1020100090803EE0FBA3E0FAA3E02401F9E43AFA61
:10202000C003C002C00190803EA3E0FAA3E02401F7
:10203000F9E43AFA90804EEBF0A3EAF0A3E9F0A3BA
:102040007410F0D001D002D003121F37EF6012904D
:10205000803EE0FBA3E0FAA3E02404F9E43AFA119D
:10206000622278E37C807D017E007F0D02073712BB
:102070001C1CEF60069080E17402F02290804BEB14
:10208000F0A3EAF0A3E9F090804BE0FBA3E0FAA311
:10209000E0F8AC02AD037B017A8079CF7E007F054A
:1020A00002073790803E740AF07B017A80793F11F5
:1020B0007C121C1CEF70087B017A80793F11D07B69
:1020C000017A80793E90804F7401F07D06020ED730
:1020D00078F07C807D017E007F0502073790804686
:1020E000EBF0A3EAF0A3E9F03110BFFF20E4FDFF1D
:1020F000311B908046E0FBA3E0FAA3E0F990804E0C
:10210000E4F0A37405F07F0131427F01227F0022B9
:102110007F007E3E8F828E83E0FF22A98E758E0126
:10212000A2AF92D5C2AF75FAAA75FA55D2FD8F82C9
:102130008E83EDF020FCFDC2FDA2D592AFAF018FE2
:102140008E2290804BEBF0A3EAF0A3E9F09080524E
:10215000E58EF0758E01A2AF92D5C2AF75FAAA7561
:10216000FA55D2FD908050EEF0A3EFF090804E74BF
:10217000FFF5F01204D545F0602A90804BE0FBA3F8
:10218000E475F0011204D5A9F0FA1203ABFF9080B8
:1021900050E475F0011204D585F082F583EFF0303C
:1021A000FCCA80FBC2FDA2D592AF908052E0F58EB2
:1021B0002290803FEBF0A3EAF0A3E9F0908045E0A5
:1021C000FF744E8FF084FF7402120424908045E067
:1021D00024FFFDE434FFFC90803FE0FBA3E0FAA382
:1021E000E0F98D828C83744F1204367E0190804515
:1021F000E014FDEEC39D5038908042E0FBA3E0FA6E
:10220000A3E0F9EE5403F5827583001203C48FF046
:1022100084ADF0EF8EF0A42DFD90803FE0FBA3E0B5
:10222000FAA3E0F98E82758300ED1204360E80BDAC
:102230007E01908045E0FFEEC39F503CEE24FFFD01
:10224000E434FFFC90803FE0FBA3E0FAA3E0F98DCB
:10225000828C831203C4FF8E827583001203C4C371
:102260009FFFC39405500EC374059FFF8E82758334
:1022700000EF1203F10E80BA2290804BEBF0A3EA3C
:10228000F0A3E9F090804BE0FBA3E0FAA3E0F8AC08
:1022900002AD037BFF7A0079337E007F03020737AC
:1022A000908048EBF0A3EAF0A3E9F0A3EDF07F0BF8
:1022B0007E00A2FBE433A3F0D2FBE4FD90804BE070
:1022C000FCEDC39C5021EF2DF582E43EF583E0FC4C
:1022D000908048E0FBA3E0FAA3E0F98D82758300CB
:1022E000EC1204360D80D590804CE024FF92FB2246
:1022F000908027EFF0E4FF1212F5908028EFF09025
:102300008027E014601014601A2402702190802845
:10231000E054F7F08018908028E04408F0E054FB87
:10232000F0800B908028E04408F0E04404F09080B6
:1023300028E0FDE4FF020F767D707F07120F76EF35
:102340005470FF22E4908027F0EF24FE5403FFE056
:1023500054FC4FF0E0FD7F03020F769080271212AD
:10236000F1908028EFF0908027E0600C24FE70153B
:10237000908028E044208006908028E054DFF0E040
:1023800054F7F0800B908028E054DFF0E04408F030
:10239000908028E0FD7F06020F76EF543F90802763
:1023A000F0E0FD7F1C020F76EF44A8FF908059E01B
:1023B00090805EF090805BEBF0A3EAF0A3E9F090F0
:1023C000805BE0FDC2918FE5C2C0ED7028A3A3E061
:1023D000908060F0908060E0F8E6FEE004F030C0AD
:1023E000FD90805FE5E5F08EE5C2C090805EE01470
:1023F000F070E181AFED6401704290805BA3E0FB7F
:10240000A3E0908060CBF0A3EBF0908060E0FEA3AF
:10241000E0F5828E83E0FE908061E004F07006902B
:102420008060E004F030C0FD90805FE5E5F08EE56F
:10243000C2C090805EE014F070D08073ED64FE70D6
:102440002B90805BA3A3E0908060F0908060E0F828
:10245000E2FEE004F030C0FD90805FE5E5F08EE53F
:10246000C2C090805EE014F070E1804390805BE039
:10247000F9A3E0FAA3E0908060C9F0A3EAF0A3E931
:10248000F0908060E0FBA3E0FAA3E0F91203ABFE5A
:10249000908061E475F0011204BF30C0FD90805F50
:1024A000E5E5F08EE5C2C090805EE014F070D230B9
:1024B000C0FD90805FE5E5F0D2912290807774FFB7
:1024C000F5F01204D545F060168F828E83E0120479
:1024D000240FBF00010E740129F9E43AFA80DC22CE
:1024E000908072EFF0A3EDF0A3EBF0A3EAF0A3E984
:1024F000F0908074E0FBA3E0FAA3E04A4B601190F7
:102500008074A3A3E0F990807E7410F0E4FDB1958F
:10251000908077E0FBA3E0FAA3E0F9EA494B601270
:1025200090807E7410F0E4FDB1587F04B14AE4FF5E
:10253000B14A908072E0600AE5E854FD4402F5E893
:10254000800353E8FD908073E0FFEF25E025E0FF76
:10255000E5E854E34FF5E82290807AEBF0A3EAF047
:10256000A3E9F0E5F554F04DF5F590807EE014FF19
:10257000C3EF64809480401C90807AE0FBA3E0FA73
:10258000A3E0F9EFFD3395E08D82F5831203C4F5E6
:10259000F21F80DC2290807AEBF0A3EAF0A3E9F04E
:1025A000AF05EFC454F0FFE5F5540F4FF5F59080FB
:1025B0007EE014FFC3EF64809480401C90807AE03A
:1025C000FBA3E0FAA3E0F9EFFD3395E08D82F583FC
:1025D0001203C4F5F11F80DC22908072EBF0A3EAB5
:1025E000F0A3E9F0A3E0FBA3E0FAA3E0F990807C7C
:1025F0007410F0E4FDD1551217F8D14FEF70FB9035
:102600008072E0FBA3E0FAA3E0F990807C7410F004
:10261000E4FD908078EBF0A3EAF0A3E9F0E5F6544E
:10262000F04DF5F690807CE014FFC3EF6480948059
:10263000401C908078E0FBA3E0FAA3E0F9EFFD33C3
:1026400095E08D82F583E5F31204361F80DC22E5E8
:10265000E85401FF22908078EBF0A3EAF0A3E9F0C0
:10266000AF05EFC454F0FFE5F6540F4FF5F6908038
:102670007CE014FFC3EF64809480401C908078E07D
:10268000FBA3E0FAA3E0F9EFFD3395E08D82F5833B
:092690001203C4F5F31F80DC22E3
:00000001FF
