:1000000002057C0205080B0E0004FFFFFFFFFFFF47
:100010000001003FFFFFFFFFFFFFFFFFFFFF003F6B
:0800200000030001FFFFFFFFD8
:10002B00020800D2B9D2ADC20BA20C9292229080E0
:0C003B004DE0FF22120CF4EF5470FF2285
:10004B000211B3020396E86480F8E933E8336011D8
:10005B000460F0ED33EC337009E8FCE9FDEAFEEBEC
:10006B00FF220460DED3EB9FEA9EE99DE8C2E78C9A
:10007B00F0C2F795F0400CE8CCF8E9CDF9EACEFAEE
:10008B00EBCFFB12036185D0F05804700320D5B37E
:10009B00E80470075002B2D50203A092D5EC0460BD
:1000AB00F7E4CCC0E0C398F8603B94186008400DAF
:1000BB00D0E0FB020378E4FBFAC9FC8028E830E4CB
:1000CB0006E4C9FBE4CAFCE830E305E4C9CACBFC8F
:1000DB00E854076010F8C3E913F9EA13FAEB13FBC2
:1000EB00EC13FCD8F130F52FC3E49CFCEF9BFFEE37
:1000FB009AFEED99FDD0E0FBEF4E4D4C701222DBDA
:10010B000302039DEC2CFCEF33FFEE33FEED33FDCE
:10011B00ED30E7EB020378EF2BFFEE3AFEED39FD06
:10012B00D0E0FB50130BBB00030203A0ED13FDEE5D
:10013B0013FEEF13FFEC13FC020378EC4D6011E898
:10014B00497017ED33EC3304600DE4FCFFFEFD2228
:10015B00E933E8330470F802039612036158046024
:10016B0009E4CC248150062850090203A02840033F
:10017B0002039DC0E0EB4A7044B98006D0E0FB025D
:10018B00038CEF4E701CBD8008EBFFEAFEE9FD808F
:10019B00EBE98DF0A4FEE5F002022FE9CDF9EAFEC2
:1001AB00EBFFEF89F0A4FCE5F0CE89F0A42EFFE481
:1001BB0035F0CD89F0A42DFEE435F08067EF4E705D
:1001CB0005BD80D780C3EF8BF0A4ACF0EE8BF0A411
:1001DB002CFCE435F0F8EF8AF0A42CE5F038FCE4C5
:1001EB0033CB8DF0A42CFCE5F03BF8EE8AF0A42C7D
:1001FB00FCE5F038F8E433CF89F0A42CFCE5F038BB
:10020B00CF3400CE89F0A42FFFE5F03EFEE433C9D6
:10021B008DF0A42EFEE5F039CD8AF0A42FFFE5F08A
:10022B003EFEE43DFD33D0E0FB50070BBB000F025D
:10023B0003A0EC2CFCEF33FFEE33FEED33FD02039A
:10024B00780203A0EC5D046005E859047003020317
:10025B0096120361580460F6EC4860F2EC7004FDF2
:10026B00FEFF22C860DB2481C85009C3986002508E
:10027B000602039D9850CAF582E9294B4A7005ABDB
:10028B008202038C75F0007C1A7880C3EF9BEE9A88
:10029B00ED99400DC3EF9BFFEE9AFEED99FDE84201
:1002AB00F0DC23ACF0D0E0FFD0E0FED0E0FDAB8281
:1002BB0020E7101BEB60BAEC2CFCEF33FFEE33FEA8
:1002CB00ED33FD020378E803F830E705C0F075F075
:1002DB0000EF2FFFEE33FEED33FD40B830E7C28069
:1002EB00AA75F020800E75F010800575F0087D0062
:1002FB007E007F003392D530D50312048CEC334053
:10030B0010EF33FFEE33FEED33FDEC33FCD5F0EDA8
:10031B0022E5F0247EA2D513CC92E7CDCEFF22EDC1
:10032B00D2E7CD33EC3392D524814006E4FFFEFDBA
:10033B00FC22FCE4CFCECDCC24E0501174FF80ED39
:10034B00C3CC13CCCD13CDCE13CECF13CF0470F0C3
:10035B0030D5DE02048CE9D2E7C933E833F892D505
:10036B00EDD2E7CD33EC33FC5002B2D522EC30E7C3
:10037B00100FBF000C0EBE00080DBD00040BEB6090
:10038B0014A2D5EB13FCED92E7FD2274FFFCFDFEEE
:10039B00FF22E480F8A2D574FF13FC7D80E480EF8C
:1003AB00BB010689828A83E0225002E722BBFE0250
:1003BB00E32289828A83E49322BB010CE58229F52F
:1003CB0082E5833AF583E0225006E92582F8E6229E
:1003DB00BBFE06E92582F8E222E58229F582E58358
:1003EB003AF583E49322BB010689828A83F022507B
:1003FB0002F722BBFE01F322F8BB010DE58229F5C2
:10040B0082E5833AF583E8F0225006E92582C8F6A7
:10041B0022BBFE05E92582C8F222EF8DF0A4A8F0DD
:10042B00CF8CF0A428CE8DF0A42EFE22BC000BBEE8
:10043B000029EF8DF084FFADF022E4CCF875F008C5
:10044B00EF2FFFEE33FEEC33FCEE9DEC984005FCFA
:10045B00EE9DFE0FD5F0E9E4CEFD22EDF8F5F0EEC2
:10046B008420D21CFEADF075F008EF2FFFED33FDAD
:10047B004007985006D5F0F222C398FD0FD5F0EA4D
:10048B0022C3E49FFFE49EFEE49DFDE49CFC22E777
:10049B0009F608DFFA8046E709F208DFFA803E88A2
:1004AB00828C83E709F0A3DFFA8032E309F608DFD9
:1004BB00FA806EE309F208DFFA806688828C83E3A8
:1004CB0009F0A3DFFA805A89828A83E0A3F608DF5A
:1004DB00FA804E89828A83E0A3F208DFFA80428099
:1004EB00D280FA80C680D4805580F280298010801B
:1004FB00A680EA809A80A880DA80E280CA80298868
:10050B00848C8589828A83E493A30592F0A3159248
:10051B00DFF5DEF3800B89828A83E493A3F608DF91
:10052B00F9ECFAA9F0EDFB2288848C8589828A8309
:10053B00E0A30592F0A31592DFF6DEF480E3898247
:10054B008A83E493A3F208DFF980D688F0EF600189
:10055B000E4E60CD88F0ED2402B4040050C3F5823A
:10056B00EB2402B4040050B923234582239004EA00
:10057B0073787FE4F6D8FD7581690205C3020647DF
:10058B00E493A3F8E493A34003F68001F208DFF4AD
:10059B008029E493A3F85407240CC8C333C4540F25
:1005AB004420C8834004F456800146F6DFE4800BF8
:1005BB000102040810204080900608E47E0193603D
:1005CB00BCA3FF543F30E509541FFEE493A3600125
:1005DB000ECF54C025E060A840B8E493A3FAE4938F
:1005EB00A3F8E493A3C8C582C8CAC583CAF0A3C83D
:1005FB00C582C8CAC583CADFE9DEE780BE42805325
:10060B00000050800504192A3F4D00000000000037
:10061B00000000000045803F0104070A0D418000E7
:10062B00FF4180470041804A0042804B00004280DE
:10063B0015000045804E000000000000120966D135
:10064B0068D2AF1139EF70FBE580F4F5297B007AA6
:10065B00007929E4F5487D1B120D5580E678447C22
:10066B00007D007BFF7A0079037E007F05B1561277
:10067B001041C290A20B9292C20C7F011214577FB1
:10068B00011214347FFF121428E4908004F0908040
:10069B001C7405F0C209C20AE4908001F0C208D2B2
:1006AB0001D202C206D20090801DF0A3F0C203C299
:1006BB0004C205908046F07B017A80793FFF120DD2
:1006CB001B7B007A0079447F01120D1B7544037B61
:1006DB00007A0079447F02120D1B7544047B007A6B
:1006EB000079447F03120D1B7544057B007A00795A
:1006FB00447F04120D1B7544067B007A0079447FFE
:10070B0005120D1B908004E02405F582E43480F57E
:10071B0083E0FF120CA2E490801FF0A3F0A304F07F
:10072B00A374F4F0A3E4F0A37402F0A3E4F0A374B5
:10073B0023F0E4A3F0A3F0A3F0A3743FF0E49080C4
:10074B0035F0A3F090802BF0A3F0A3F0A37464F02A
:10075B00A37403F0A374F0F0A37401F0A37468F016
:10076B00A3E4F0A37402F0908037E4F0A37403F0D9
:10077B00E4A3F0A3F0A3F0A37496F0A3E4F0A374A6
:10078B0032F01213C27F011213E67F021211FD7FAA
:10079B00051213AB113FF1EB1214787FF07E0312AD
:1007AB00100A120BDF012EEF60122007157F01F1EB
:1007BB00CE7F03AE071FEE70FAD20722E4FFF1CE15
:1007CB00C207228F1AE4FF120FA18F1BE51AB40187
:1007DB0005431B028003531BFDAD1BE4FF020CF80A
:1007EB00C2917FE2F1F4D291228FE5C2C030C0FDFD
:0307FB00AFE52245
:10080000C0E0C0F0C083C082C085C084C092539253
:10081000FEC0D075D000C000C001C002C003C0043B
:10082000C005C006C007C2C61159908054E004F04C
:100830007006908053E004F0D007D006D005D004B5
:10084000D003D002D001D000D0D0D092D084D085B7
:10085000D082D083D0F0D0E032C2B9C2AD1210DD68
:10086000300A0D90802FE0FEA3E0FF12100AC20AAA
:1008700090804DE0640260022110318C7522008F5F
:1008800023D20BD292908004E065237002E52260AF
:1008900022C290A20B9292C20C74052FF582E4340E
:1008A00080F583E0FF91A2D292D290D20C90800486
:1008B000E523F031A78E228F2331A7EF4E700F7FF3
:1008C000011207B2D206D292D290D20C800FC290FF
:1008D000A20B9292C20CC206E4FF1207B2908003F0
:1008E000E004F07006908002E004F090802BE0FEBF
:1008F000A3E08E22F523D39400EE9400403E908036
:1009000003E09523908002E09522403071DF802C37
:1009100090804DE06401702430082112117A8E22FB
:100920008F2330030FE52345227011318C90800412
:10093000E0B507083173C290D206C208D390801E7A
:10094000E0940090801DE09400400EA3E024FFF0AE
:1009500090801DE034FFF08002C203C20BA20C9213
:1009600092D2B9D2AD22D2B9C29075E61075C81034
:10097000D2C822D292D290D20C7F0A7E0000000010
:100980000000EF1F70011E144E70F222D390804CB5
:10099000E0940090804BE09400400690804AE0FF95
:1009A00022908047E0FF22908027E07002A3E06061
:1009B0000FD390804CE0940090804BE09400400472
:1009C000E4FEFF22908015E07002A3E07003FEFFBA
:1009D00022908025E0FEA3E0FF7C017DDC1204254F
:1009E00090802FE0FCA3E0FD120437AB07AA06902D
:1009F000801CE0FF7E00AD03AC02120425D3908082
:100A000016E09F908015E09E5016E0FEA3E0FF12D6
:100A10000437C3EB9DFFEA9CCF24FFCF34FFFE22B7
:100A2000908015E0FEA3E0FFC390802EE09FFF9032
:100A3000802DE09EFE22C2B9C2ADD20BD292F1B996
:100A40008F27E52730E634D204121000EF24FF92FE
:100A500005911190804DE0B40121908001E0FF905C
:100A60008046E0FE2419F582E43480F583EFF0EE51
:100A7000C394025006908046E004F0E52720E4038A
:100A800030E51CF1F0EF04F524908018E0C39524C4
:100A9000F0908049E02524F0908048E03400F0E5B3
:100AA0002720E502614890804DE0640160026148C2
:100AB000D20A908017E0241275F004A4FF908032CF
:100AC000E02FFF908031E035F0FEC3908030E09F52
:100AD000FF90802FE09EFEE52730E60874D82FFFB8
:100AE00074FF3EFE12100A121143911190801FE014
:100AF000F525A3E0F52690803BE0FFA3E090801D64
:100B0000CFF0A3EFF0E526640245256010E52664EA
:100B10000345256008E526640445257002D20312CA
:100B20001411EF6006D20071DF801D1210CBE4902B
:100B30008002F0A3F0908048F0A3F0D292D290D23D
:100B40000C7F0AFE317DC290E52720E40261D4C209
:100B500090A20B9292C20C908003E02524F090802A
:100B600002E03400F0908021E0F525A3E0F526E5D1
:100B7000264525600FC3908003E09526908002E013
:100B80009525500330090471DF8049908018E0708A
:100B90003D90803DE0FEA3E0FFD3908045E09F9034
:100BA0008044E09E400DE490801DF0A3F0C2037FDE
:100BB00001801730031212117AD3EF9401EE9400E2
:100BC0004002C2067F0280027F039129800691B60F
:100BD0003173C290C20BA20C9292D2B9D2AD22C292
:100BE00090A20B9292C20C90804DE0B402057F0F50
:100BF0001210AC908039E07004A3E064017003FF30
:100C000080027F011207B2C206C209E490804DF053
:100C100022908033E0FFA3E090804BCFF0A3EFF071
:100C2000908004E090804AF0228F181210CB91B689
:100C3000E51814601014601B14601F80009080047D
:100C4000E0F519802990801CE0FDE4FF1210758FFB
:100C500019801B1211538F198014908004E004F541
:100C60001990801CE0FFE5198FF08485F0199080C1
:100C700004E06519601FE519F0E02405F582E4340D
:100C800080F583E0FF91A2908045E004F07006902B
:100C90008044E004F0300303D20822D2063173C24C
:100CA0009022E4F51DEF547FFFE51D54804FF51DA4
:100CB000AD1D7F058042908018E0D3940F40087DE1
:100CC000FA7C007F0F800C908018E0C39401FF7DB8
:100CD000FA7C00AB07EC540FC454F0FFE51C540F32
:100CE0004FF51CEB540FFFE51C54F04FF51CAD1CE9
:100CF0007F0480047D707F07C291EF2420F5E5C258
:100D0000C030C0FDAFE58DE5C2C030C0FD85E51E39
:100D1000D291227B017A80793FE4FF8F518B528AF6
:100D2000538954E55114600A24FB501760042406CB
:100D30007022F1E78F59E551242AFFAB52AA53A93B
:100D400054C1F9E551240AFFAB52AA53A954120326
:100D5000ABFD91F8228B448A4589468D47E5476073
:100D600005D3941B40037F0022908017E547F09045
:100D7000804DE0B40203121054121041908001E043
:100D800065486005E548F0D20190804DE06002C101
:100D900080200102C11CC201D202FFF1CC7D01E41E
:100DA000FFD197E548700E7B017A80793F7F06B1CD
:100DB0001BB11380677B007A0079497F0112122CE6
:100DC0008F50E54864016039E54824FD60121460E5
:100DD0001914602080007B007A0079497F02801C12
:100DE0007B007A0079497F0380127B007A00794981
:100DF0007F0480087B007A0079497F0512122C8FCE
:100E0000507B007A007949E4FFB11B7B007A0079BE
:100E1000497F06B11B7D01AF48121075E490800236
:100E2000F0A3F0908044F0A3F0908048F0A3F0127B
:100E30001478D1EDC20090801FE0F54EA3E0F54F8D
:100E40007F011207B2300317E54E700BE54F24FD0A
:100E500060071460068000801480167F028014E50D
:100E60004E700EE54F24FE600424027004E4FF80FF
:100E7000027F01912990804D7401F012002EFF2213
:100E800020010E12141CEF7008D1ED12002E7F010C
:100E90002212002E7F00228F518D527F02F1A18FEE
:100EA000537F01F1A18F54E55124FA5006240760C5
:100EB00021802EAF517401A807088002C333D8FCEB
:100EC000FF4253E5526005EF42548015EFF452544F
:100ED000800F75533FE552600575543F8003E4F57C
:100EE00054AD537F0291F8AD547F0181F8AB44AA11
:100EF00045A946AD478D597FA08B568A578958AD75
:100F000056C2918FE5C2C0ED701885585BA85BE6AC
:100F1000FE055B30C0FD85E55A8EE5C2C0D559EDB2
:100F20008072ED6401702585575B85585C855C8215
:100F3000855B83E0FE055CE55C7002055B30C0FD0F
:100F400085E55A8EE5C2C0D559E38048ED64FE7050
:100F50001885585BA85BE2FE055B30C0FD85E55A4D
:100F60008EE5C2C0D559ED802B85565B85575C85D3
:100F7000585DAB5BAA5CA95D1203ABFE7401255DF5
:100F8000F55DE4355CF55C30C0FD85E55A8EE5C263
:100F9000C0D559DE30C0FD85E55AD291228F497FF8
:100FA0001DC2918FE5C2C030C0FDAFE5E4F5E5C2DA
:100FB000C030C0FDAFE5D2912291F4EF5470F52816
:100FC0007F07F1A1EF540F4228AF28228F51E4FF91
:100FD000F1A18F52E551B4010543520180035352F0
:100FE000FEAD52E4FF81F87F03F1A1EF2402FF225E
:090FF0007F08F1A1EF540FFF226C
:101000007F09120FA1EF5401FF22AD07AC06E412D5
:1010100002F1E4FBFA79807840120146E4FBFA79A8
:1010200040784012024FE4FBFAF9783F1200551263
:10103000032AC3E49FFFE49EF5CB8FCAF5CD8FCC86
:1010400022A2AFE433C2AFC2B9C2ADD20BD2922456
:10105000FF92AF2290804DE0B4010AD20990804DFA
:10106000E0601180F890804DE0B402081141120B4D
:10107000DF12002E22EFD394004005908000EFF0A5
:10108000908000E0FFC43333335480FEEFC4333329
:1010900054806206E0FFC43354806206EF548062DD
:1010A00006E0C3134EF08DF084AFF022AE071FEEC2
:1010B000D3940040157C007D2DED1DAA0470011C09
:1010C000D39400EA940040E480EF2230030590803E
:1010D000238003908025A3E0908018F022D3908095
:1010E0004CE0940090804BE09400400CA3E024FF7F
:1010F000F090804BE034FFF0908016E02401FF90E8
:101100008015E03400FE90802DE0FCA3E0FD120489
:1011100037908015ECF0A3EDF0908027E07002A3EB
:10112000E0600A908015E07002A3E070159080479F
:10113000E004FF90801CE0FEEF8EF084908047E595
:10114000F0F022908004E0908047F0E4908015F069
:10115000A3F022D390804CE0940190804BE0940067
:10116000400690804AE0FF22908047E004FF908094
:101170001CE0FEEF8EF084AFF022908027E070023A
:10118000A3E0600FD390804CE0940090804BE094FB
:10119000004004E4FEFF22908015E0FCA3E0FD4C3B
:1011A0007003FEFF22C390802EE09DFF90802DE013
:1011B0009CFE22C0E0C0F0C083C082C085C084C055
:1011C000925392FEC0D075D000C000C001C002C0D2
:1011D00003C004C005C006C007120A36D007D006F7
:1011E000D005D004D003D002D001D000D0D0D0920E
:1011F000D084D085D082D083D0F0D0E0328F49E443
:10120000FF120FA18F4AE54914600C1460112402EB
:101210007013534AF7800E434A08534AFB80064333
:101220004A08434A04AD4AE4FF020CF88F518B523E
:101230008A538954E55114600824FB600424067025
:101240000AAB52AA53A954AF518015E551240AFFA5
:10125000120FA1AB52AA53A954EF1203F17F01223E
:101260008F5E8B5F8A608961756601855F64E55E6C
:1012700014600C24FB600824FE60142408702A12F9
:101280000FE78F628F63C291E55E240AFF801571BC
:101290008F8F5EE55EC39407500F719C8F628F63E2
:1012A000C2917F611207F48005E4F563F562E5649D
:1012B0007026856167E4F5E5C2C0E5667008A86739
:1012C000A66505678003E4F56630C0FD85E565D554
:1012D00062E3A867A6656186E5646401703985608C
:1012E00067856168E4F5E5C2C0E5667013856882CC
:1012F000856783E565F00568E5687002056780032A
:10130000E4F56630C0FD85E565D562D885688285DF
:101310006783E565F0806FE56464FE70288561672A
:10132000E4F5E5C2C0E5667009A867E565F2056702
:101330008003E4F56630C0FD85E565D562E2A86707
:10134000E565F28041855F67856068856169E4F5E0
:10135000E5C2C0E5667018AB67AA68A969E56512C1
:1013600003F174012569F569E43568F5688003E4E3
:10137000F56630C0FD85E565D562D3AB67AA68A97F
:1013800069E5651203F1D291E55EFEE563FF227126
:10139000A1EF540EFFE4C313EF13FF227F60020F8F
:1013A000A1C2917FFF1207F4D29122E4F549EF2404
:1013B000FE5403FFE54954FC4FF549AD497F030254
:1013C0000CF8908037A3E0FF8F497F06120FA18FA2
:1013D0004AE549540325E0FFE54A54F94FF54AAD83
:1013E0004A7F06020CF88F497F06120FA18F4AE54B
:1013F00049600924FE700D434A208003534ADF539D
:101400004AF78006534ADF434A08AD4A7F06020C7A
:10141000F87F17120FA1EFC45401FF227F17120F9C
:10142000A1EFC4135401FF22EF543FF549AD497FAA
:101430001C020CF8120F9D8F4AE5497F0060027F65
:1014400001EF540125E025E0FFE54A54FB4FF54A42
:10145000AD4A7F1D020CF8120F9D8F4AE5497F00AF
:1014600060027F01EF540125E0FFE54A54FD4FF58E
:101470004AAD4A7F1D020CF8C2917FE11207F4D2F7
:021480009122B7
:00000001FF
